{
  "_format": "hh-sol-artifact-1",
  "contractName": "Bridge",
  "sourceName": "contracts/Bridge.sol",
  "abi": [
    {
      "inputs": [
        {
          "internalType": "address[]",
          "name": "initialValidators",
          "type": "address[]"
        },
        {
          "internalType": "address",
          "name": "WETHAddress_",
          "type": "address"
        }
      ],
      "stateMutability": "nonpayable",
      "type": "constructor"
    },
    {
      "anonymous": false,
      "inputs": [],
      "name": "Pause",
      "type": "event"
    },
    {
      "anonymous": false,
      "inputs": [
        {
          "indexed": false,
          "internalType": "bytes",
          "name": "txId",
          "type": "bytes"
        },
        {
          "indexed": false,
          "internalType": "uint256",
          "name": "blocktime",
          "type": "uint256"
        }
      ],
      "name": "RequestNewSignaturesEvent",
      "type": "event"
    },
    {
      "anonymous": false,
      "inputs": [
        {
          "indexed": true,
          "internalType": "address",
          "name": "token",
          "type": "address"
        }
      ],
      "name": "SupportedTokenAdded",
      "type": "event"
    },
    {
      "anonymous": false,
      "inputs": [
        {
          "indexed": true,
          "internalType": "address",
          "name": "token",
          "type": "address"
        }
      ],
      "name": "SupportedTokenRemoved",
      "type": "event"
    },
    {
      "anonymous": false,
      "inputs": [
        {
          "indexed": true,
          "internalType": "address",
          "name": "token",
          "type": "address"
        }
      ],
      "name": "SupportedWrappedTokenAdded",
      "type": "event"
    },
    {
      "anonymous": false,
      "inputs": [
        {
          "indexed": true,
          "internalType": "address",
          "name": "token",
          "type": "address"
        }
      ],
      "name": "SupportedWrappedTokenRemoved",
      "type": "event"
    },
    {
      "anonymous": false,
      "inputs": [
        {
          "indexed": false,
          "internalType": "address",
          "name": "from",
          "type": "address"
        },
        {
          "indexed": false,
          "internalType": "address",
          "name": "token",
          "type": "address"
        },
        {
          "indexed": false,
          "internalType": "uint256",
          "name": "amount",
          "type": "uint256"
        },
        {
          "indexed": false,
          "internalType": "string",
          "name": "recipient",
          "type": "string"
        },
        {
          "indexed": false,
          "internalType": "uint256",
          "name": "blocktime",
          "type": "uint256"
        }
      ],
      "name": "TokensLockedEvent",
      "type": "event"
    },
    {
      "anonymous": false,
      "inputs": [
        {
          "indexed": false,
          "internalType": "bytes",
          "name": "txId",
          "type": "bytes"
        },
        {
          "indexed": false,
          "internalType": "uint256",
          "name": "operationId",
          "type": "uint256"
        }
      ],
      "name": "TransferCompletedEvent",
      "type": "event"
    },
    {
      "anonymous": false,
      "inputs": [],
      "name": "Unpause",
      "type": "event"
    },
    {
      "anonymous": false,
      "inputs": [
        {
          "indexed": true,
          "internalType": "address",
          "name": "validator",
          "type": "address"
        }
      ],
      "name": "ValidatorAdded",
      "type": "event"
    },
    {
      "anonymous": false,
      "inputs": [
        {
          "indexed": true,
          "internalType": "address",
          "name": "validator",
          "type": "address"
        }
      ],
      "name": "ValidatorRemoved",
      "type": "event"
    },
    {
      "stateMutability": "payable",
      "type": "fallback"
    },
    {
      "inputs": [
        {
          "internalType": "bytes",
          "name": "txId",
          "type": "bytes"
        }
      ],
      "name": "RequestNewSignatures",
      "outputs": [],
      "stateMutability": "nonpayable",
      "type": "function"
    },
    {
      "inputs": [],
      "name": "WETHAddress",
      "outputs": [
        {
          "internalType": "address",
          "name": "",
          "type": "address"
        }
      ],
      "stateMutability": "view",
      "type": "function"
    },
    {
      "inputs": [
        {
          "internalType": "bytes[]",
          "name": "signatures",
          "type": "bytes[]"
        },
        {
          "internalType": "address",
          "name": "token",
          "type": "address"
        },
        {
          "internalType": "uint256",
          "name": "expiration",
          "type": "uint256"
        }
      ],
      "name": "addSupportedToken",
      "outputs": [],
      "stateMutability": "nonpayable",
      "type": "function"
    },
    {
      "inputs": [
        {
          "internalType": "bytes[]",
          "name": "signatures",
          "type": "bytes[]"
        },
        {
          "internalType": "address",
          "name": "token",
          "type": "address"
        },
        {
          "internalType": "uint256",
          "name": "expiration",
          "type": "uint256"
        }
      ],
      "name": "addSupportedWrappedToken",
      "outputs": [],
      "stateMutability": "nonpayable",
      "type": "function"
    },
    {
      "inputs": [
        {
          "internalType": "bytes[]",
          "name": "signatures",
          "type": "bytes[]"
        },
        {
          "internalType": "address",
          "name": "validator",
          "type": "address"
        },
        {
          "internalType": "uint256",
          "name": "expiration",
          "type": "uint256"
        }
      ],
      "name": "addValidator",
      "outputs": [],
      "stateMutability": "nonpayable",
      "type": "function"
    },
    {
      "inputs": [
        {
          "internalType": "bytes",
          "name": "txId",
          "type": "bytes"
        },
        {
          "internalType": "uint256",
          "name": "operationId",
          "type": "uint256"
        },
        {
          "internalType": "address",
          "name": "token",
          "type": "address"
        },
        {
          "internalType": "address",
          "name": "recipient",
          "type": "address"
        },
        {
          "internalType": "uint256",
          "name": "value",
          "type": "uint256"
        },
        {
          "internalType": "bytes[]",
          "name": "signatures",
          "type": "bytes[]"
        },
        {
          "internalType": "uint256",
          "name": "expiration",
          "type": "uint256"
        }
      ],
      "name": "completeTransfer",
      "outputs": [],
      "stateMutability": "nonpayable",
      "type": "function"
    },
    {
      "inputs": [],
      "name": "feeAmount",
      "outputs": [
        {
          "internalType": "uint256",
          "name": "",
          "type": "uint256"
        }
      ],
      "stateMutability": "view",
      "type": "function"
    },
    {
      "inputs": [],
      "name": "feeTo",
      "outputs": [
        {
          "internalType": "address",
          "name": "",
          "type": "address"
        }
      ],
      "stateMutability": "view",
      "type": "function"
    },
    {
      "inputs": [],
      "name": "getFeeAddress",
      "outputs": [
        {
          "internalType": "address",
          "name": "",
          "type": "address"
        }
      ],
      "stateMutability": "view",
      "type": "function"
    },
    {
      "inputs": [],
      "name": "getFeeAmount",
      "outputs": [
        {
          "internalType": "uint256",
          "name": "",
          "type": "uint256"
        }
      ],
      "stateMutability": "view",
      "type": "function"
    },
    {
      "inputs": [],
      "name": "getSupportedTokensLength",
      "outputs": [
        {
          "internalType": "uint256",
          "name": "",
          "type": "uint256"
        }
      ],
      "stateMutability": "view",
      "type": "function"
    },
    {
      "inputs": [],
      "name": "getSupportedWrappedTokensLength",
      "outputs": [
        {
          "internalType": "uint256",
          "name": "",
          "type": "uint256"
        }
      ],
      "stateMutability": "view",
      "type": "function"
    },
    {
      "inputs": [],
      "name": "getValidatorsLength",
      "outputs": [
        {
          "internalType": "uint256",
          "name": "",
          "type": "uint256"
        }
      ],
      "stateMutability": "view",
      "type": "function"
    },
    {
      "inputs": [
        {
          "internalType": "address",
          "name": "",
          "type": "address"
        }
      ],
      "name": "isSupportedToken",
      "outputs": [
        {
          "internalType": "bool",
          "name": "",
          "type": "bool"
        }
      ],
      "stateMutability": "view",
      "type": "function"
    },
    {
      "inputs": [
        {
          "internalType": "address",
          "name": "",
          "type": "address"
        }
      ],
      "name": "isSupportedWrappedToken",
      "outputs": [
        {
          "internalType": "bool",
          "name": "",
          "type": "bool"
        }
      ],
      "stateMutability": "view",
      "type": "function"
    },
    {
      "inputs": [
        {
          "internalType": "bytes32",
          "name": "",
          "type": "bytes32"
        }
      ],
      "name": "isTransferCompleted",
      "outputs": [
        {
          "internalType": "bool",
          "name": "",
          "type": "bool"
        }
      ],
      "stateMutability": "view",
      "type": "function"
    },
    {
      "inputs": [
        {
          "internalType": "address",
          "name": "",
          "type": "address"
        }
      ],
      "name": "isValidator",
      "outputs": [
        {
          "internalType": "bool",
          "name": "",
          "type": "bool"
        }
      ],
      "stateMutability": "view",
      "type": "function"
    },
    {
      "inputs": [],
      "name": "nonce",
      "outputs": [
        {
          "internalType": "uint256",
          "name": "",
          "type": "uint256"
        }
      ],
      "stateMutability": "view",
      "type": "function"
    },
    {
      "inputs": [
        {
          "internalType": "bytes[]",
          "name": "signatures",
          "type": "bytes[]"
        },
        {
          "internalType": "uint256",
          "name": "expiration",
          "type": "uint256"
        }
      ],
      "name": "pause",
      "outputs": [],
      "stateMutability": "nonpayable",
      "type": "function"
    },
    {
      "inputs": [],
      "name": "paused",
      "outputs": [
        {
          "internalType": "bool",
          "name": "",
          "type": "bool"
        }
      ],
      "stateMutability": "view",
      "type": "function"
    },
    {
      "inputs": [
        {
          "internalType": "bytes[]",
          "name": "signatures",
          "type": "bytes[]"
        },
        {
          "internalType": "address",
          "name": "token",
          "type": "address"
        },
        {
          "internalType": "uint256",
          "name": "expiration",
          "type": "uint256"
        }
      ],
      "name": "removeSupportedToken",
      "outputs": [],
      "stateMutability": "nonpayable",
      "type": "function"
    },
    {
      "inputs": [
        {
          "internalType": "bytes[]",
          "name": "signatures",
          "type": "bytes[]"
        },
        {
          "internalType": "address",
          "name": "token",
          "type": "address"
        },
        {
          "internalType": "uint256",
          "name": "expiration",
          "type": "uint256"
        }
      ],
      "name": "removeSupportedWrappedToken",
      "outputs": [],
      "stateMutability": "nonpayable",
      "type": "function"
    },
    {
      "inputs": [
        {
          "internalType": "bytes[]",
          "name": "signatures",
          "type": "bytes[]"
        },
        {
          "internalType": "address",
          "name": "validator",
          "type": "address"
        },
        {
          "internalType": "uint256",
          "name": "expiration",
          "type": "uint256"
        }
      ],
      "name": "removeValidator",
      "outputs": [],
      "stateMutability": "nonpayable",
      "type": "function"
    },
    {
      "inputs": [
        {
          "internalType": "bytes[]",
          "name": "signatures",
          "type": "bytes[]"
        },
        {
          "internalType": "address",
          "name": "_feeTo",
          "type": "address"
        },
        {
          "internalType": "uint256",
          "name": "_feeAmount",
          "type": "uint256"
        },
        {
          "internalType": "uint256",
          "name": "expiration",
          "type": "uint256"
        }
      ],
      "name": "setFeeTo",
      "outputs": [],
      "stateMutability": "nonpayable",
      "type": "function"
    },
    {
      "inputs": [
        {
          "internalType": "uint256",
          "name": "",
          "type": "uint256"
        }
      ],
      "name": "supportedTokens",
      "outputs": [
        {
          "internalType": "address",
          "name": "",
          "type": "address"
        }
      ],
      "stateMutability": "view",
      "type": "function"
    },
    {
      "inputs": [
        {
          "internalType": "uint256",
          "name": "",
          "type": "uint256"
        }
      ],
      "name": "supportedWrappedTokens",
      "outputs": [
        {
          "internalType": "address",
          "name": "",
          "type": "address"
        }
      ],
      "stateMutability": "view",
      "type": "function"
    },
    {
      "inputs": [
        {
          "internalType": "address",
          "name": "token",
          "type": "address"
        },
        {
          "internalType": "uint256",
          "name": "amount",
          "type": "uint256"
        },
        {
          "internalType": "string",
          "name": "recipient",
          "type": "string"
        }
      ],
      "name": "transferTokens",
      "outputs": [],
      "stateMutability": "nonpayable",
      "type": "function"
    },
    {
      "inputs": [
        {
          "internalType": "bytes[]",
          "name": "signatures",
          "type": "bytes[]"
        },
        {
          "internalType": "uint256",
          "name": "expiration",
          "type": "uint256"
        }
      ],
      "name": "unpause",
      "outputs": [],
      "stateMutability": "nonpayable",
      "type": "function"
    },
    {
      "inputs": [
        {
          "internalType": "uint256",
          "name": "",
          "type": "uint256"
        }
      ],
      "name": "validators",
      "outputs": [
        {
          "internalType": "address",
          "name": "",
          "type": "address"
        }
      ],
      "stateMutability": "view",
      "type": "function"
    },
    {
      "inputs": [
        {
          "internalType": "string",
          "name": "recipient",
          "type": "string"
        }
      ],
      "name": "wrapAndTransferETH",
      "outputs": [],
      "stateMutability": "payable",
      "type": "function"
    },
    {
      "stateMutability": "payable",
      "type": "receive"
    }
  ],
  "bytecode": "0x6080604052600180556000600c60006101000a81548160ff0219169083151502179055503480156200003057600080fd5b5060405162005ddb38038062005ddb83398181016040528101906200005691906200044a565b60016000819055506000825111620000a5576040517f08c379a00000000000000000000000000000000000000000000000000000000081526004016200009c9062000519565b60405180910390fd5b60005b8251811015620002cd576000838281518110620000ee577f4e487b7100000000000000000000000000000000000000000000000000000000600052603260045260246000fd5b60200260200101519050600073ffffffffffffffffffffffffffffffffffffffff168173ffffffffffffffffffffffffffffffffffffffff1614156200016b576040517f08c379a000000000000000000000000000000000000000000000000000000000815260040162000162906200053b565b60405180910390fd5b600560008273ffffffffffffffffffffffffffffffffffffffff1673ffffffffffffffffffffffffffffffffffffffff16815260200190815260200160002060009054906101000a900460ff1615620001fb576040517f08c379a0000000000000000000000000000000000000000000000000000000008152600401620001f2906200055d565b60405180910390fd5b6001600560008373ffffffffffffffffffffffffffffffffffffffff1673ffffffffffffffffffffffffffffffffffffffff16815260200190815260200160002060006101000a81548160ff0219169083151502179055506004819080600181540180825580915050600190039060005260206000200160009091909190916101000a81548173ffffffffffffffffffffffffffffffffffffffff021916908373ffffffffffffffffffffffffffffffffffffffff160217905550508080620002c4906200065c565b915050620000a8565b5080600c60016101000a81548173ffffffffffffffffffffffffffffffffffffffff021916908373ffffffffffffffffffffffffffffffffffffffff160217905550600160096000600c60019054906101000a900473ffffffffffffffffffffffffffffffffffffffff1673ffffffffffffffffffffffffffffffffffffffff1673ffffffffffffffffffffffffffffffffffffffff16815260200190815260200160002060006101000a81548160ff0219169083151502179055505050620007ae565b6000620003a8620003a284620005a8565b6200057f565b90508083825260208201905082856020860282011115620003c857600080fd5b60005b85811015620003fc5781620003e1888262000406565b845260208401935060208301925050600181019050620003cb565b5050509392505050565b600081519050620004178162000794565b92915050565b600082601f8301126200042f57600080fd5b81516200044184826020860162000391565b91505092915050565b600080604083850312156200045e57600080fd5b600083015167ffffffffffffffff8111156200047957600080fd5b62000487858286016200041d565b92505060206200049a8582860162000406565b9150509250929050565b6000620004b3601383620005d7565b9150620004c08262000719565b602082019050919050565b6000620004da601183620005d7565b9150620004e78262000742565b602082019050919050565b600062000501601483620005d7565b91506200050e826200076b565b602082019050919050565b600060208201905081810360008301526200053481620004a4565b9050919050565b600060208201905081810360008301526200055681620004cb565b9050919050565b600060208201905081810360008301526200057881620004f2565b9050919050565b60006200058b6200059e565b905062000599828262000626565b919050565b6000604051905090565b600067ffffffffffffffff821115620005c657620005c5620006d9565b5b602082029050602081019050919050565b600082825260208201905092915050565b6000620005f582620005fc565b9050919050565b600073ffffffffffffffffffffffffffffffffffffffff82169050919050565b6000819050919050565b620006318262000708565b810181811067ffffffffffffffff82111715620006535762000652620006d9565b5b80604052505050565b600062000669826200061c565b91507fffffffffffffffffffffffffffffffffffffffffffffffffffffffffffffffff8214156200069f576200069e620006aa565b5b600182019050919050565b7f4e487b7100000000000000000000000000000000000000000000000000000000600052601160045260246000fd5b7f4e487b7100000000000000000000000000000000000000000000000000000000600052604160045260246000fd5b6000601f19601f8301169050919050565b7f56616c696461746f727320726571756972656400000000000000000000000000600082015250565b7f496e76616c69642076616c696461746f72000000000000000000000000000000600082015250565b7f56616c696461746f72206e6f7420756e69717565000000000000000000000000600082015250565b6200079f81620005e8565b8114620007ab57600080fd5b50565b61561d80620007be6000396000f3fe6080604052600436106101d15760003560e01c80638bcb57f3116100f7578063c625562611610095578063f960cd6b11610064578063f960cd6b146106f1578063facd743b1461071c578063fdc520e114610759578063ff7a071b1461078257610211565b8063c625562614610639578063db917ff014610676578063e91f04201461069f578063ef69b68f146106c857610211565b8063ae5f8727116100d1578063ae5f87271461057d578063affed0e0146105ba578063bf5c9822146105e5578063c5ce2eb21461061057610211565b80638bcb57f3146104fb5780638df236d814610517578063aa4efa5b1461054057610211565b8063493d82801161016f57806369e154041161013e57806369e154041461045357806375be86421461047e5780637725dfe8146104a757806388b2a80a146104d257610211565b8063493d8280146103ab5780634e7ceacb146103d45780635c975abb146103ff5780635d62263b1461042a57610211565b80631cd775bb116101ab5780631cd775bb146102cb578063201efb3f146102f4578063240028e81461033157806335aa2e441461036e57610211565b8063017e7e581461024c57806305b18e03146102775780630af88b24146102a057610211565b36610211576040517f08c379a000000000000000000000000000000000000000000000000000000000815260040161020890614ae8565b60405180910390fd5b6040517f08c379a000000000000000000000000000000000000000000000000000000000815260040161024390614ae8565b60405180910390fd5b34801561025857600080fd5b506102616107ad565b60405161026e91906147c1565b60405180910390f35b34801561028357600080fd5b5061029e60048036038101906102999190614055565b6107d3565b005b3480156102ac57600080fd5b506102b5610daf565b6040516102c291906147c1565b60405180910390f35b3480156102d757600080fd5b506102f260048036038101906102ed9190613f6e565b610dd5565b005b34801561030057600080fd5b5061031b60048036038101906103169190613dfc565b610f75565b6040516103289190614896565b60405180910390f35b34801561033d57600080fd5b5061035860048036038101906103539190613dfc565b610f95565b6040516103659190614896565b60405180910390f35b34801561037a57600080fd5b5061039560048036038101906103909190614164565b610fb5565b6040516103a291906147c1565b60405180910390f35b3480156103b757600080fd5b506103d260048036038101906103cd9190614014565b610ff4565b005b3480156103e057600080fd5b506103e961108d565b6040516103f691906147c1565b60405180910390f35b34801561040b57600080fd5b506104146110b7565b6040516104219190614896565b60405180910390f35b34801561043657600080fd5b50610451600480360381019061044c9190613e8c565b6110ca565b005b34801561045f57600080fd5b506104686113a6565b6040516104759190614b88565b60405180910390f35b34801561048a57600080fd5b506104a560048036038101906104a09190613e8c565b6113ac565b005b3480156104b357600080fd5b506104bc611626565b6040516104c99190614b88565b60405180910390f35b3480156104de57600080fd5b506104f960048036038101906104f49190613e8c565b611633565b005b61051560048036038101906105109190614123565b61190f565b005b34801561052357600080fd5b5061053e60048036038101906105399190613e25565b611b79565b005b34801561054c57600080fd5b5061056760048036038101906105629190613feb565b612234565b6040516105749190614896565b60405180910390f35b34801561058957600080fd5b506105a4600480360381019061059f9190614164565b612254565b6040516105b191906147c1565b60405180910390f35b3480156105c657600080fd5b506105cf612293565b6040516105dc9190614b88565b60405180910390f35b3480156105f157600080fd5b506105fa612299565b6040516106079190614b88565b60405180910390f35b34801561061c57600080fd5b5061063760048036038101906106329190613e8c565b6122a3565b005b34801561064557600080fd5b50610660600480360381019061065b9190614164565b61251d565b60405161066d91906147c1565b60405180910390f35b34801561068257600080fd5b5061069d60048036038101906106989190613ef3565b61255c565b005b3480156106ab57600080fd5b506106c660048036038101906106c19190613f6e565b612676565b005b3480156106d457600080fd5b506106ef60048036038101906106ea9190613e8c565b6127fb565b005b3480156106fd57600080fd5b50610706612ad7565b6040516107139190614b88565b60405180910390f35b34801561072857600080fd5b50610743600480360381019061073e9190613dfc565b612ae4565b6040516107509190614896565b60405180910390f35b34801561076557600080fd5b50610780600480360381019061077b9190613e8c565b612b04565b005b34801561078e57600080fd5b50610797612d7e565b6040516107a49190614b88565b60405180910390f35b600260009054906101000a900473ffffffffffffffffffffffffffffffffffffffff1681565b600c60009054906101000a900460ff1615610823576040517f08c379a000000000000000000000000000000000000000000000000000000000815260040161081a90614948565b60405180910390fd5b60026000541415610869576040517f08c379a000000000000000000000000000000000000000000000000000000000815260040161086090614b48565b60405180910390fd5b60026000819055506103e84261087f9190614ed3565b8110156108c1576040517f08c379a00000000000000000000000000000000000000000000000000000000081526004016108b890614988565b60405180910390fd5b600760008673ffffffffffffffffffffffffffffffffffffffff1673ffffffffffffffffffffffffffffffffffffffff16815260200190815260200160002060009054906101000a900460ff16806109625750600960008673ffffffffffffffffffffffffffffffffffffffff1673ffffffffffffffffffffffffffffffffffffffff16815260200190815260200160002060009054906101000a900460ff165b6109a1576040517f08c379a000000000000000000000000000000000000000000000000000000000815260040161099890614a08565b60405180910390fd5b6000610a19600860098111156109e0577f4e487b7100000000000000000000000000000000000000000000000000000000600052602160045260246000fd5b898989898930896040516020016109fe989796959493929190614733565b60405160208183030381529060405280519060200120612d8b565b90506000610a4e8989604051602001610a339291906145d9565b60405160208183030381529060405280519060200120612d8b565b9050600b600082815260200190815260200160002060009054906101000a900460ff1615610ab1576040517f08c379a0000000000000000000000000000000000000000000000000000000008152600401610aa890614a48565b60405180910390fd5b6001600b600083815260200190815260200160002060006101000a81548160ff021916908315150217905550610ae78483612dbb565b60008773ffffffffffffffffffffffffffffffffffffffff166040516024016040516020818303038152906040527f313ce567000000000000000000000000000000000000000000000000000000007bffffffffffffffffffffffffffffffffffffffffffffffffffffffff19166020820180517bffffffffffffffffffffffffffffffffffffffffffffffffffffffff8381831617835250505050604051610b9091906145c2565b600060405180830381855afa9150503d8060008114610bcb576040519150601f19603f3d011682016040523d82523d6000602084013e610bd0565b606091505b50915050600081806020019051810190610bea91906141b6565b90506000610bf8888361318c565b9050600760008b73ffffffffffffffffffffffffffffffffffffffff1673ffffffffffffffffffffffffffffffffffffffff16815260200190815260200160002060009054906101000a900460ff1615610cbe578973ffffffffffffffffffffffffffffffffffffffff166340c10f198a8a6040518363ffffffff1660e01b8152600401610c8792919061486d565b600060405180830381600087803b158015610ca157600080fd5b505af1158015610cb5573d6000803e3d6000fd5b50505050610d60565b6000600260009054906101000a900473ffffffffffffffffffffffffffffffffffffffff169050600073ffffffffffffffffffffffffffffffffffffffff168173ffffffffffffffffffffffffffffffffffffffff1614610d5357600061271083600354610d2c9190614ed3565b610d369190614d31565b9050610d438c83836131ca565b8083610d4f9190614f2d565b9250505b610d5e8b8b846131ca565b505b7f87d736ddec252f246151c10998db4ad3bb9717bfe77c0dff2e9737b6e44d6df58c8c604051610d919291906148f6565b60405180910390a15050505050600160008190555050505050505050565b600c60019054906101000a900473ffffffffffffffffffffffffffffffffffffffff1681565b600c60009054906101000a900460ff16610e24576040517f08c379a0000000000000000000000000000000000000000000000000000000008152600401610e1b906149e8565b60405180910390fd5b6103e842610e329190614ed3565b811015610e74576040517f08c379a0000000000000000000000000000000000000000000000000000000008152600401610e6b90614988565b60405180910390fd5b6000610ee960076009811115610eb3577f4e487b7100000000000000000000000000000000000000000000000000000000600052602160045260246000fd5b60006001543086604051602001610ece9594939291906146d4565b60405160208183030381529060405280519060200120612d8b565b9050610ef58382612dbb565b6001600c60006101000a81548160ff0219169083151502179055506001806000828254610f229190614ca4565b925050819055506000600c60006101000a81548160ff0219169083151502179055507f7805862f689e2f13df9f062ff482ad3ad112aca9e0847911ed832e158c525b3360405160405180910390a1505050565b60076020528060005260406000206000915054906101000a900460ff1681565b60096020528060005260406000206000915054906101000a900460ff1681565b60048181548110610fc557600080fd5b906000526020600020016000915054906101000a900473ffffffffffffffffffffffffffffffffffffffff1681565b600c60009054906101000a900460ff1615611044576040517f08c379a000000000000000000000000000000000000000000000000000000000815260040161103b90614948565b60405180910390fd5b7f41f9d865e9570fc2c0097e4bcdf9738724c95a54729d01e0e51ae983b3d0fcaf816103e8426110749190614ed3565b6040516110829291906148f6565b60405180910390a150565b6000600260009054906101000a900473ffffffffffffffffffffffffffffffffffffffff16905090565b600c60009054906101000a900460ff1681565b6103e8426110d89190614ed3565b81101561111a576040517f08c379a000000000000000000000000000000000000000000000000000000000815260040161111190614988565b60405180910390fd5b600760008373ffffffffffffffffffffffffffffffffffffffff1673ffffffffffffffffffffffffffffffffffffffff16815260200190815260200160002060009054906101000a900460ff166111a6576040517f08c379a000000000000000000000000000000000000000000000000000000000815260040161119d906149a8565b60405180910390fd5b600061121a600660098111156111e5577f4e487b7100000000000000000000000000000000000000000000000000000000600052602160045260246000fd5b8460015430866040516020016111ff959493929190614627565b60405160208183030381529060405280519060200120612d8b565b90506112268482612dbb565b6000600760008573ffffffffffffffffffffffffffffffffffffffff1673ffffffffffffffffffffffffffffffffffffffff16815260200190815260200160002060006101000a81548160ff02191690831515021790555060005b600880549050811015611343578373ffffffffffffffffffffffffffffffffffffffff16600882815481106112df577f4e487b7100000000000000000000000000000000000000000000000000000000600052603260045260246000fd5b9060005260206000200160009054906101000a900473ffffffffffffffffffffffffffffffffffffffff1673ffffffffffffffffffffffffffffffffffffffff1614156113305761132f81613250565b5b808061133b90615067565b915050611281565b5060018060008282546113569190614ca4565b925050819055508273ffffffffffffffffffffffffffffffffffffffff167fc4d7c78b5869618497de798f19809c2d74b2afca7a1190ca9544ad256f35a3c760405160405180910390a250505050565b60035481565b6103e8426113ba9190614ed3565b8110156113fc576040517f08c379a00000000000000000000000000000000000000000000000000000000081526004016113f390614988565b60405180910390fd5b600560008373ffffffffffffffffffffffffffffffffffffffff1673ffffffffffffffffffffffffffffffffffffffff16815260200190815260200160002060009054906101000a900460ff1615611489576040517f08c379a000000000000000000000000000000000000000000000000000000000815260040161148090614b68565b60405180910390fd5b60006114fd600160098111156114c8577f4e487b7100000000000000000000000000000000000000000000000000000000600052602160045260246000fd5b8460015430866040516020016114e2959493929190614627565b60405160208183030381529060405280519060200120612d8b565b90506115098482612dbb565b6001600560008573ffffffffffffffffffffffffffffffffffffffff1673ffffffffffffffffffffffffffffffffffffffff16815260200190815260200160002060006101000a81548160ff0219169083151502179055506004839080600181540180825580915050600190039060005260206000200160009091909190916101000a81548173ffffffffffffffffffffffffffffffffffffffff021916908373ffffffffffffffffffffffffffffffffffffffff16021790555060018060008282546115d69190614ca4565b925050819055508273ffffffffffffffffffffffffffffffffffffffff167fe366c1c0452ed8eec96861e9e54141ebff23c9ec89fe27b996b45f5ec388498760405160405180910390a250505050565b6000600880549050905090565b6103e8426116419190614ed3565b811015611683576040517f08c379a000000000000000000000000000000000000000000000000000000000815260040161167a90614988565b60405180910390fd5b600560008373ffffffffffffffffffffffffffffffffffffffff1673ffffffffffffffffffffffffffffffffffffffff16815260200190815260200160002060009054906101000a900460ff1661170f576040517f08c379a000000000000000000000000000000000000000000000000000000000815260040161170690614aa8565b60405180910390fd5b60006117836002600981111561174e577f4e487b7100000000000000000000000000000000000000000000000000000000600052602160045260246000fd5b846001543086604051602001611768959493929190614627565b60405160208183030381529060405280519060200120612d8b565b905061178f8482612dbb565b6000600560008573ffffffffffffffffffffffffffffffffffffffff1673ffffffffffffffffffffffffffffffffffffffff16815260200190815260200160002060006101000a81548160ff02191690831515021790555060018060008282546117f99190614ca4565b9250508190555060005b6004805490508110156118c5578373ffffffffffffffffffffffffffffffffffffffff1660048281548110611861577f4e487b7100000000000000000000000000000000000000000000000000000000600052603260045260246000fd5b9060005260206000200160009054906101000a900473ffffffffffffffffffffffffffffffffffffffff1673ffffffffffffffffffffffffffffffffffffffff1614156118b2576118b18161342d565b5b80806118bd90615067565b915050611803565b508273ffffffffffffffffffffffffffffffffffffffff167fe1434e25d6611e0db941968fdc97811c982ac1602e951637d206f5fdda9dd8f160405160405180910390a250505050565b600c60009054906101000a900460ff161561195f576040517f08c379a000000000000000000000000000000000000000000000000000000000815260040161195690614948565b60405180910390fd5b600260005414156119a5576040517f08c379a000000000000000000000000000000000000000000000000000000000815260040161199c90614b48565b60405180910390fd5b6002600081905550600034905060006119bf82601261360a565b905060008111611a04576040517f08c379a00000000000000000000000000000000000000000000000000000000081526004016119fb90614ac8565b60405180910390fd5b6000611a1182601261318c565b83611a1c9190614f2d565b90506000811115611a6f573373ffffffffffffffffffffffffffffffffffffffff166108fc829081150290604051600060405180830381858888f19350505050158015611a6d573d6000803e3d6000fd5b505b600c60019054906101000a900473ffffffffffffffffffffffffffffffffffffffff1673ffffffffffffffffffffffffffffffffffffffff1663d0e30db08285611ab99190614f2d565b6040518263ffffffff1660e01b81526004016000604051808303818588803b158015611ae457600080fd5b505af1158015611af8573d6000803e3d6000fd5b50505050507f943004f24b74daf8f1b3184c2703c86aa64f95fc624bab58e578754f7bf8ab6b33600c60019054906101000a900473ffffffffffffffffffffffffffffffffffffffff1684876103e842611b529190614ed3565b604051611b63959493929190614813565b60405180910390a1505050600160008190555050565b600c60009054906101000a900460ff1615611bc9576040517f08c379a0000000000000000000000000000000000000000000000000000000008152600401611bc090614948565b60405180910390fd5b60026000541415611c0f576040517f08c379a0000000000000000000000000000000000000000000000000000000008152600401611c0690614b48565b60405180910390fd5b6002600081905550600760008473ffffffffffffffffffffffffffffffffffffffff1673ffffffffffffffffffffffffffffffffffffffff16815260200190815260200160002060009054906101000a900460ff1680611cb85750600960008473ffffffffffffffffffffffffffffffffffffffff1673ffffffffffffffffffffffffffffffffffffffff16815260200190815260200160002060009054906101000a900460ff165b611cf7576040517f08c379a0000000000000000000000000000000000000000000000000000000008152600401611cee90614a08565b60405180910390fd5b60008373ffffffffffffffffffffffffffffffffffffffff166040516024016040516020818303038152906040527f313ce567000000000000000000000000000000000000000000000000000000007bffffffffffffffffffffffffffffffffffffffffffffffffffffffff19166020820180517bffffffffffffffffffffffffffffffffffffffffffffffffffffffff8381831617835250505050604051611da091906145c2565b600060405180830381855afa9150503d8060008114611ddb576040519150601f19603f3d011682016040523d82523d6000602084013e611de0565b606091505b50915050600081806020019051810190611dfa91906141b6565b9050611e0f611e09858361360a565b8261318c565b9350600760008673ffffffffffffffffffffffffffffffffffffffff1673ffffffffffffffffffffffffffffffffffffffff16815260200190815260200160002060009054906101000a900460ff1615611ee157611e6f85333087613648565b8473ffffffffffffffffffffffffffffffffffffffff16639dc29fac30866040518363ffffffff1660e01b8152600401611eaa92919061486d565b600060405180830381600087803b158015611ec457600080fd5b505af1158015611ed8573d6000803e3d6000fd5b50505050612187565b60008573ffffffffffffffffffffffffffffffffffffffff166370a0823160e01b30604051602401611f1391906147c1565b604051602081830303815290604052907bffffffffffffffffffffffffffffffffffffffffffffffffffffffff19166020820180517bffffffffffffffffffffffffffffffffffffffffffffffffffffffff8381831617835250505050604051611f7d91906145c2565b600060405180830381855afa9150503d8060008114611fb8576040519150601f19603f3d011682016040523d82523d6000602084013e611fbd565b606091505b50915050600081806020019051810190611fd7919061418d565b90506000600260009054906101000a900473ffffffffffffffffffffffffffffffffffffffff169050600073ffffffffffffffffffffffffffffffffffffffff168173ffffffffffffffffffffffffffffffffffffffff161461206f576000612710886003546120479190614ed3565b6120519190614d31565b905061205f89338484613648565b808861206b9190614f2d565b9750505b61207b8833308a613648565b60008873ffffffffffffffffffffffffffffffffffffffff166370a0823160e01b306040516024016120ad91906147c1565b604051602081830303815290604052907bffffffffffffffffffffffffffffffffffffffffffffffffffffffff19166020820180517bffffffffffffffffffffffffffffffffffffffffffffffffffffffff838183161783525050505060405161211791906145c2565b600060405180830381855afa9150503d8060008114612152576040519150601f19603f3d011682016040523d82523d6000602084013e612157565b606091505b50915050600081806020019051810190612171919061418d565b9050838161217f9190614f2d565b985050505050505b6000612193858361360a565b9050600081116121d8576040517f08c379a00000000000000000000000000000000000000000000000000000000081526004016121cf90614ac8565b60405180910390fd5b7f943004f24b74daf8f1b3184c2703c86aa64f95fc624bab58e578754f7bf8ab6b338783876103e84261220b9190614ed3565b60405161221c959493929190614813565b60405180910390a15050506001600081905550505050565b600b6020528060005260406000206000915054906101000a900460ff1681565b6008818154811061226457600080fd5b906000526020600020016000915054906101000a900473ffffffffffffffffffffffffffffffffffffffff1681565b60015481565b6000600354905090565b6103e8426122b19190614ed3565b8110156122f3576040517f08c379a00000000000000000000000000000000000000000000000000000000081526004016122ea90614988565b60405180910390fd5b600760008373ffffffffffffffffffffffffffffffffffffffff1673ffffffffffffffffffffffffffffffffffffffff16815260200190815260200160002060009054906101000a900460ff1615612380576040517f08c379a000000000000000000000000000000000000000000000000000000000815260040161237790614968565b60405180910390fd5b60006123f4600560098111156123bf577f4e487b7100000000000000000000000000000000000000000000000000000000600052602160045260246000fd5b8460015430866040516020016123d9959493929190614627565b60405160208183030381529060405280519060200120612d8b565b90506124008482612dbb565b6001600760008573ffffffffffffffffffffffffffffffffffffffff1673ffffffffffffffffffffffffffffffffffffffff16815260200190815260200160002060006101000a81548160ff0219169083151502179055506008839080600181540180825580915050600190039060005260206000200160009091909190916101000a81548173ffffffffffffffffffffffffffffffffffffffff021916908373ffffffffffffffffffffffffffffffffffffffff16021790555060018060008282546124cd9190614ca4565b925050819055508273ffffffffffffffffffffffffffffffffffffffff167f73ef58e3c2e3da95dfd8fd7f3d28c23b072dba3484a5b53a196bc592056ceb1f60405160405180910390a250505050565b600a818154811061252d57600080fd5b906000526020600020016000915054906101000a900473ffffffffffffffffffffffffffffffffffffffff1681565b6103e84261256a9190614ed3565b8110156125ac576040517f08c379a00000000000000000000000000000000000000000000000000000000081526004016125a390614988565b60405180910390fd5b600061261b6009808111156125ea577f4e487b7100000000000000000000000000000000000000000000000000000000600052602160045260246000fd5b8585856040516020016126009493929190614686565b60405160208183030381529060405280519060200120612d8b565b90506126278582612dbb565b83600260006101000a81548173ffffffffffffffffffffffffffffffffffffffff021916908373ffffffffffffffffffffffffffffffffffffffff160217905550826003819055505050505050565b600c60009054906101000a900460ff16156126c6576040517f08c379a00000000000000000000000000000000000000000000000000000000081526004016126bd90614948565b60405180910390fd5b6103e8426126d49190614ed3565b811015612716576040517f08c379a000000000000000000000000000000000000000000000000000000000815260040161270d90614988565b60405180910390fd5b600061278a60076009811115612755577f4e487b7100000000000000000000000000000000000000000000000000000000600052602160045260246000fd5b60018054308660405160200161276f9594939291906146d4565b60405160208183030381529060405280519060200120612d8b565b90506127968382612dbb565b6001600c60006101000a81548160ff02191690831515021790555060018060008282546127c39190614ca4565b925050819055507f6985a02210a168e66602d3235cb6db0e70f92b3ba4d376a33c0f3d9434bff62560405160405180910390a1505050565b6103e8426128099190614ed3565b81101561284b576040517f08c379a000000000000000000000000000000000000000000000000000000000815260040161284290614988565b60405180910390fd5b600960008373ffffffffffffffffffffffffffffffffffffffff1673ffffffffffffffffffffffffffffffffffffffff16815260200190815260200160002060009054906101000a900460ff166128d7576040517f08c379a00000000000000000000000000000000000000000000000000000000081526004016128ce906149a8565b60405180910390fd5b600061294b60046009811115612916577f4e487b7100000000000000000000000000000000000000000000000000000000600052602160045260246000fd5b846001543086604051602001612930959493929190614627565b60405160208183030381529060405280519060200120612d8b565b90506129578482612dbb565b6000600960008573ffffffffffffffffffffffffffffffffffffffff1673ffffffffffffffffffffffffffffffffffffffff16815260200190815260200160002060006101000a81548160ff02191690831515021790555060005b600a80549050811015612a74578373ffffffffffffffffffffffffffffffffffffffff16600a8281548110612a10577f4e487b7100000000000000000000000000000000000000000000000000000000600052603260045260246000fd5b9060005260206000200160009054906101000a900473ffffffffffffffffffffffffffffffffffffffff1673ffffffffffffffffffffffffffffffffffffffff161415612a6157612a60816136d1565b5b8080612a6c90615067565b9150506129b2565b506001806000828254612a879190614ca4565b925050819055508273ffffffffffffffffffffffffffffffffffffffff167fbea12876694c4055c71f74308f752b9027cf3d554194000a366abddfc239a30660405160405180910390a250505050565b6000600a80549050905090565b60056020528060005260406000206000915054906101000a900460ff1681565b6103e842612b129190614ed3565b811015612b54576040517f08c379a0000000000000000000000000000000000000000000000000000000008152600401612b4b90614988565b60405180910390fd5b600960008373ffffffffffffffffffffffffffffffffffffffff1673ffffffffffffffffffffffffffffffffffffffff16815260200190815260200160002060009054906101000a900460ff1615612be1576040517f08c379a0000000000000000000000000000000000000000000000000000000008152600401612bd890614968565b60405180910390fd5b6000612c5560036009811115612c20577f4e487b7100000000000000000000000000000000000000000000000000000000600052602160045260246000fd5b846001543086604051602001612c3a959493929190614627565b60405160208183030381529060405280519060200120612d8b565b9050612c618482612dbb565b6001600960008573ffffffffffffffffffffffffffffffffffffffff1673ffffffffffffffffffffffffffffffffffffffff16815260200190815260200160002060006101000a81548160ff021916908315150217905550600a839080600181540180825580915050600190039060005260206000200160009091909190916101000a81548173ffffffffffffffffffffffffffffffffffffffff021916908373ffffffffffffffffffffffffffffffffffffffff1602179055506001806000828254612d2e9190614ca4565b925050819055508273ffffffffffffffffffffffffffffffffffffffff167fd1be2e90bd3d24839d9dd94ad871068e1f9688b02fa43f2a62c9975dfa9de2d760405160405180910390a250505050565b6000600480549050905090565b600081604051602001612d9e9190614601565b604051602081830303815290604052805190602001209050919050565b6003600280600480549050612dd09190614ed3565b612dda9190614ca4565b612de49190614d31565b82511015612e27576040517f08c379a0000000000000000000000000000000000000000000000000000000008152600401612e1e90614a28565b60405180910390fd5b6000600190506000835167ffffffffffffffff811115612e70577f4e487b7100000000000000000000000000000000000000000000000000000000600052604160045260246000fd5b604051908082528060200260200182016040528015612e9e5781602001602082028036833780820191505090505b50905060005b845181101561308d576000612ef985878481518110612eec577f4e487b7100000000000000000000000000000000000000000000000000000000600052603260045260246000fd5b60200260200101516138ae565b9050600560008273ffffffffffffffffffffffffffffffffffffffff1673ffffffffffffffffffffffffffffffffffffffff16815260200190815260200160002060009054906101000a900460ff168015612f9e5750600660008273ffffffffffffffffffffffffffffffffffffffff1673ffffffffffffffffffffffffffffffffffffffff16815260200190815260200160002060009054906101000a900460ff16155b15613074576001600660008373ffffffffffffffffffffffffffffffffffffffff1673ffffffffffffffffffffffffffffffffffffffff16815260200190815260200160002060006101000a81548160ff02191690831515021790555080838381518110613035577f4e487b7100000000000000000000000000000000000000000000000000000000600052603260045260246000fd5b602002602001019073ffffffffffffffffffffffffffffffffffffffff16908173ffffffffffffffffffffffffffffffffffffffff1681525050613079565b600093505b50808061308590615067565b915050612ea4565b50816130ce576040517f08c379a00000000000000000000000000000000000000000000000000000000081526004016130c590614a88565b60405180910390fd5b60005b815181101561318557600060066000848481518110613119577f4e487b7100000000000000000000000000000000000000000000000000000000600052603260045260246000fd5b602002602001015173ffffffffffffffffffffffffffffffffffffffff1673ffffffffffffffffffffffffffffffffffffffff16815260200190815260200160002060006101000a81548160ff021916908315150217905550808061317d90615067565b9150506130d1565b5050505050565b600060088260ff1611156131c1576008826131a79190614f61565b600a6131b39190614db5565b836131be9190614ed3565b92505b82905092915050565b61324b8363a9059cbb60e01b84846040516024016131e992919061486d565b604051602081830303815290604052907bffffffffffffffffffffffffffffffffffffffffffffffffffffffff19166020820180517bffffffffffffffffffffffffffffffffffffffffffffffffffffffff8381831617835250505050613981565b505050565b6008805490508110613297576040517f08c379a000000000000000000000000000000000000000000000000000000000815260040161328e90614a68565b60405180910390fd5b60008190505b60016008805490506132af9190614f2d565b8110156133bc5760086001826132c59190614ca4565b815481106132fc577f4e487b7100000000000000000000000000000000000000000000000000000000600052603260045260246000fd5b9060005260206000200160009054906101000a900473ffffffffffffffffffffffffffffffffffffffff1660088281548110613361577f4e487b7100000000000000000000000000000000000000000000000000000000600052603260045260246000fd5b9060005260206000200160006101000a81548173ffffffffffffffffffffffffffffffffffffffff021916908373ffffffffffffffffffffffffffffffffffffffff16021790555080806133b490615067565b91505061329d565b5060088054806133f5577f4e487b7100000000000000000000000000000000000000000000000000000000600052603160045260246000fd5b6001900381819060005260206000200160006101000a81549073ffffffffffffffffffffffffffffffffffffffff0219169055905550565b6004805490508110613474576040517f08c379a000000000000000000000000000000000000000000000000000000000815260040161346b90614a68565b60405180910390fd5b60008190505b600160048054905061348c9190614f2d565b8110156135995760046001826134a29190614ca4565b815481106134d9577f4e487b7100000000000000000000000000000000000000000000000000000000600052603260045260246000fd5b9060005260206000200160009054906101000a900473ffffffffffffffffffffffffffffffffffffffff166004828154811061353e577f4e487b7100000000000000000000000000000000000000000000000000000000600052603260045260246000fd5b9060005260206000200160006101000a81548173ffffffffffffffffffffffffffffffffffffffff021916908373ffffffffffffffffffffffffffffffffffffffff160217905550808061359190615067565b91505061347a565b5060048054806135d2577f4e487b7100000000000000000000000000000000000000000000000000000000600052603160045260246000fd5b6001900381819060005260206000200160006101000a81549073ffffffffffffffffffffffffffffffffffffffff0219169055905550565b600060088260ff16111561363f576008826136259190614f61565b600a6136319190614db5565b8361363c9190614d31565b92505b82905092915050565b6136cb846323b872dd60e01b858585604051602401613669939291906147dc565b604051602081830303815290604052907bffffffffffffffffffffffffffffffffffffffffffffffffffffffff19166020820180517bffffffffffffffffffffffffffffffffffffffffffffffffffffffff8381831617835250505050613981565b50505050565b600a805490508110613718576040517f08c379a000000000000000000000000000000000000000000000000000000000815260040161370f90614a68565b60405180910390fd5b60008190505b6001600a805490506137309190614f2d565b81101561383d57600a6001826137469190614ca4565b8154811061377d577f4e487b7100000000000000000000000000000000000000000000000000000000600052603260045260246000fd5b9060005260206000200160009054906101000a900473ffffffffffffffffffffffffffffffffffffffff16600a82815481106137e2577f4e487b7100000000000000000000000000000000000000000000000000000000600052603260045260246000fd5b9060005260206000200160006101000a81548173ffffffffffffffffffffffffffffffffffffffff021916908373ffffffffffffffffffffffffffffffffffffffff160217905550808061383590615067565b91505061371e565b50600a805480613876577f4e487b7100000000000000000000000000000000000000000000000000000000600052603160045260246000fd5b6001900381819060005260206000200160006101000a81549073ffffffffffffffffffffffffffffffffffffffff0219169055905550565b60008060008060418551146138c9576000935050505061397b565b6020850151925060408501519150606085015160001a9050601b8160ff1610156138fd57601b816138fa9190614cfa565b90505b601b8160ff16141580156139155750601c8160ff1614155b15613926576000935050505061397b565b6001868285856040516000815260200160405260405161394994939291906148b1565b6020604051602081039080840390855afa15801561396b573d6000803e3d6000fd5b5050506020604051035193505050505b92915050565b60006139e3826040518060400160405280602081526020017f5361666545524332303a206c6f772d6c6576656c2063616c6c206661696c65648152508573ffffffffffffffffffffffffffffffffffffffff16613a489092919063ffffffff16565b9050600081511115613a435780806020019051810190613a039190613fc2565b613a42576040517f08c379a0000000000000000000000000000000000000000000000000000000008152600401613a3990614b28565b60405180910390fd5b5b505050565b6060613a578484600085613a60565b90509392505050565b606082471015613aa5576040517f08c379a0000000000000000000000000000000000000000000000000000000008152600401613a9c906149c8565b60405180910390fd5b613aae85613b74565b613aed576040517f08c379a0000000000000000000000000000000000000000000000000000000008152600401613ae490614b08565b60405180910390fd5b6000808673ffffffffffffffffffffffffffffffffffffffff168587604051613b1691906145c2565b60006040518083038185875af1925050503d8060008114613b53576040519150601f19603f3d011682016040523d82523d6000602084013e613b58565b606091505b5091509150613b68828286613b97565b92505050949350505050565b6000808273ffffffffffffffffffffffffffffffffffffffff163b119050919050565b60608315613ba757829050613bf7565b600083511115613bba5782518084602001fd5b816040517f08c379a0000000000000000000000000000000000000000000000000000000008152600401613bee9190614926565b60405180910390fd5b9392505050565b6000613c11613c0c84614bc8565b614ba3565b90508083825260208201905082856020860282011115613c3057600080fd5b60005b85811015613c7a57813567ffffffffffffffff811115613c5257600080fd5b808601613c5f8982613d69565b85526020850194506020840193505050600181019050613c33565b5050509392505050565b6000613c97613c9284614bf4565b614ba3565b905082815260208101848484011115613caf57600080fd5b613cba848285614ff4565b509392505050565b6000613cd5613cd084614c25565b614ba3565b905082815260208101848484011115613ced57600080fd5b613cf8848285614ff4565b509392505050565b600081359050613d0f81615574565b92915050565b600082601f830112613d2657600080fd5b8135613d36848260208601613bfe565b91505092915050565b600081519050613d4e8161558b565b92915050565b600081359050613d63816155a2565b92915050565b600082601f830112613d7a57600080fd5b8135613d8a848260208601613c84565b91505092915050565b600082601f830112613da457600080fd5b8135613db4848260208601613cc2565b91505092915050565b600081359050613dcc816155b9565b92915050565b600081519050613de1816155b9565b92915050565b600081519050613df6816155d0565b92915050565b600060208284031215613e0e57600080fd5b6000613e1c84828501613d00565b91505092915050565b600080600060608486031215613e3a57600080fd5b6000613e4886828701613d00565b9350506020613e5986828701613dbd565b925050604084013567ffffffffffffffff811115613e7657600080fd5b613e8286828701613d93565b9150509250925092565b600080600060608486031215613ea157600080fd5b600084013567ffffffffffffffff811115613ebb57600080fd5b613ec786828701613d15565b9350506020613ed886828701613d00565b9250506040613ee986828701613dbd565b9150509250925092565b60008060008060808587031215613f0957600080fd5b600085013567ffffffffffffffff811115613f2357600080fd5b613f2f87828801613d15565b9450506020613f4087828801613d00565b9350506040613f5187828801613dbd565b9250506060613f6287828801613dbd565b91505092959194509250565b60008060408385031215613f8157600080fd5b600083013567ffffffffffffffff811115613f9b57600080fd5b613fa785828601613d15565b9250506020613fb885828601613dbd565b9150509250929050565b600060208284031215613fd457600080fd5b6000613fe284828501613d3f565b91505092915050565b600060208284031215613ffd57600080fd5b600061400b84828501613d54565b91505092915050565b60006020828403121561402657600080fd5b600082013567ffffffffffffffff81111561404057600080fd5b61404c84828501613d69565b91505092915050565b600080600080600080600060e0888a03121561407057600080fd5b600088013567ffffffffffffffff81111561408a57600080fd5b6140968a828b01613d69565b97505060206140a78a828b01613dbd565b96505060406140b88a828b01613d00565b95505060606140c98a828b01613d00565b94505060806140da8a828b01613dbd565b93505060a088013567ffffffffffffffff8111156140f757600080fd5b6141038a828b01613d15565b92505060c06141148a828b01613dbd565b91505092959891949750929550565b60006020828403121561413557600080fd5b600082013567ffffffffffffffff81111561414f57600080fd5b61415b84828501613d93565b91505092915050565b60006020828403121561417657600080fd5b600061418484828501613dbd565b91505092915050565b60006020828403121561419f57600080fd5b60006141ad84828501613dd2565b91505092915050565b6000602082840312156141c857600080fd5b60006141d684828501613de7565b91505092915050565b6141e881614f95565b82525050565b6141ff6141fa82614f95565b6150b0565b82525050565b61420e81614fa7565b82525050565b61422561422082614fa7565b6150c2565b82525050565b61423481614fb3565b82525050565b61424b61424682614fb3565b6150d4565b82525050565b600061425c82614c56565b6142668185614c6c565b9350614276818560208601615003565b61427f81615199565b840191505092915050565b600061429582614c56565b61429f8185614c7d565b93506142af818560208601615003565b80840191505092915050565b60006142c682614c61565b6142d08185614c88565b93506142e0818560208601615003565b6142e981615199565b840191505092915050565b6000614301601c83614c99565b915061430c826151d1565b601c82019050919050565b6000614324601083614c88565b915061432f826151fa565b602082019050919050565b6000614347601483614c88565b915061435282615223565b602082019050919050565b600061436a601283614c88565b91506143758261524c565b602082019050919050565b600061438d601483614c88565b915061439882615275565b602082019050919050565b60006143b0602683614c88565b91506143bb8261529e565b604082019050919050565b60006143d3601483614c88565b91506143de826152ed565b602082019050919050565b60006143f6601683614c88565b915061440182615316565b602082019050919050565b6000614419600e83614c88565b91506144248261533f565b602082019050919050565b600061443c601a83614c88565b915061444782615368565b602082019050919050565b600061445f601283614c88565b915061446a82615391565b602082019050919050565b6000614482601283614c88565b915061448d826153ba565b602082019050919050565b60006144a5601883614c88565b91506144b0826153e3565b602082019050919050565b60006144c8602e83614c88565b91506144d38261540c565b604082019050919050565b60006144eb603783614c88565b91506144f68261545b565b604082019050919050565b600061450e601d83614c88565b9150614519826154aa565b602082019050919050565b6000614531602a83614c88565b915061453c826154d3565b604082019050919050565b6000614554601f83614c88565b915061455f82615522565b602082019050919050565b6000614577601883614c88565b91506145828261554b565b602082019050919050565b61459681614fdd565b82525050565b6145ad6145a882614fdd565b6150f0565b82525050565b6145bc81614fe7565b82525050565b60006145ce828461428a565b915081905092915050565b60006145e5828561428a565b91506145f1828461459c565b6020820191508190509392505050565b600061460c826142f4565b9150614618828461423a565b60208201915081905092915050565b6000614633828861459c565b60208201915061464382876141ee565b601482019150614653828661459c565b60208201915061466382856141ee565b601482019150614673828461459c565b6020820191508190509695505050505050565b6000614692828761459c565b6020820191506146a282866141ee565b6014820191506146b2828561459c565b6020820191506146c2828461459c565b60208201915081905095945050505050565b60006146e0828861459c565b6020820191506146f08287614214565b600182019150614700828661459c565b60208201915061471082856141ee565b601482019150614720828461459c565b6020820191508190509695505050505050565b600061473f828b61459c565b60208201915061474f828a61428a565b915061475b828961459c565b60208201915061476b82886141ee565b60148201915061477b82876141ee565b60148201915061478b828661459c565b60208201915061479b82856141ee565b6014820191506147ab828461459c565b6020820191508190509998505050505050505050565b60006020820190506147d660008301846141df565b92915050565b60006060820190506147f160008301866141df565b6147fe60208301856141df565b61480b604083018461458d565b949350505050565b600060a08201905061482860008301886141df565b61483560208301876141df565b614842604083018661458d565b818103606083015261485481856142bb565b9050614863608083018461458d565b9695505050505050565b600060408201905061488260008301856141df565b61488f602083018461458d565b9392505050565b60006020820190506148ab6000830184614205565b92915050565b60006080820190506148c6600083018761422b565b6148d360208301866145b3565b6148e0604083018561422b565b6148ed606083018461422b565b95945050505050565b600060408201905081810360008301526149108185614251565b905061491f602083018461458d565b9392505050565b6000602082019050818103600083015261494081846142bb565b905092915050565b6000602082019050818103600083015261496181614317565b9050919050565b600060208201905081810360008301526149818161433a565b9050919050565b600060208201905081810360008301526149a18161435d565b9050919050565b600060208201905081810360008301526149c181614380565b9050919050565b600060208201905081810360008301526149e1816143a3565b9050919050565b60006020820190508181036000830152614a01816143c6565b9050919050565b60006020820190508181036000830152614a21816143e9565b9050919050565b60006020820190508181036000830152614a418161440c565b9050919050565b60006020820190508181036000830152614a618161442f565b9050919050565b60006020820190508181036000830152614a8181614452565b9050919050565b60006020820190508181036000830152614aa181614475565b9050919050565b60006020820190508181036000830152614ac181614498565b9050919050565b60006020820190508181036000830152614ae1816144bb565b9050919050565b60006020820190508181036000830152614b01816144de565b9050919050565b60006020820190508181036000830152614b2181614501565b9050919050565b60006020820190508181036000830152614b4181614524565b9050919050565b60006020820190508181036000830152614b6181614547565b9050919050565b60006020820190508181036000830152614b818161456a565b9050919050565b6000602082019050614b9d600083018461458d565b92915050565b6000614bad614bbe565b9050614bb98282615036565b919050565b6000604051905090565b600067ffffffffffffffff821115614be357614be261516a565b5b602082029050602081019050919050565b600067ffffffffffffffff821115614c0f57614c0e61516a565b5b614c1882615199565b9050602081019050919050565b600067ffffffffffffffff821115614c4057614c3f61516a565b5b614c4982615199565b9050602081019050919050565b600081519050919050565b600081519050919050565b600082825260208201905092915050565b600081905092915050565b600082825260208201905092915050565b600081905092915050565b6000614caf82614fdd565b9150614cba83614fdd565b9250827fffffffffffffffffffffffffffffffffffffffffffffffffffffffffffffffff03821115614cef57614cee61510c565b5b828201905092915050565b6000614d0582614fe7565b9150614d1083614fe7565b92508260ff03821115614d2657614d2561510c565b5b828201905092915050565b6000614d3c82614fdd565b9150614d4783614fdd565b925082614d5757614d5661513b565b5b828204905092915050565b6000808291508390505b6001851115614dac57808604811115614d8857614d8761510c565b5b6001851615614d975780820291505b8081029050614da5856151c4565b9450614d6c565b94509492505050565b6000614dc082614fdd565b9150614dcb83614fe7565b9250614df87fffffffffffffffffffffffffffffffffffffffffffffffffffffffffffffffff8484614e00565b905092915050565b600082614e105760019050614ecc565b81614e1e5760009050614ecc565b8160018114614e345760028114614e3e57614e6d565b6001915050614ecc565b60ff841115614e5057614e4f61510c565b5b8360020a915084821115614e6757614e6661510c565b5b50614ecc565b5060208310610133831016604e8410600b8410161715614ea25782820a905083811115614e9d57614e9c61510c565b5b614ecc565b614eaf8484846001614d62565b92509050818404811115614ec657614ec561510c565b5b81810290505b9392505050565b6000614ede82614fdd565b9150614ee983614fdd565b9250817fffffffffffffffffffffffffffffffffffffffffffffffffffffffffffffffff0483118215151615614f2257614f2161510c565b5b828202905092915050565b6000614f3882614fdd565b9150614f4383614fdd565b925082821015614f5657614f5561510c565b5b828203905092915050565b6000614f6c82614fe7565b9150614f7783614fe7565b925082821015614f8a57614f8961510c565b5b828203905092915050565b6000614fa082614fbd565b9050919050565b60008115159050919050565b6000819050919050565b600073ffffffffffffffffffffffffffffffffffffffff82169050919050565b6000819050919050565b600060ff82169050919050565b82818337600083830152505050565b60005b83811015615021578082015181840152602081019050615006565b83811115615030576000848401525b50505050565b61503f82615199565b810181811067ffffffffffffffff8211171561505e5761505d61516a565b5b80604052505050565b600061507282614fdd565b91507fffffffffffffffffffffffffffffffffffffffffffffffffffffffffffffffff8214156150a5576150a461510c565b5b600182019050919050565b60006150bb826150de565b9050919050565b60006150cd826150fa565b9050919050565b6000819050919050565b60006150e9826151b7565b9050919050565b6000819050919050565b6000615105826151aa565b9050919050565b7f4e487b7100000000000000000000000000000000000000000000000000000000600052601160045260246000fd5b7f4e487b7100000000000000000000000000000000000000000000000000000000600052601260045260246000fd5b7f4e487b7100000000000000000000000000000000000000000000000000000000600052604160045260246000fd5b6000601f19601f8301169050919050565b60008160f81b9050919050565b60008160601b9050919050565b60008160011c9050919050565b7f19457468657265756d205369676e6564204d6573736167653a0a333200000000600082015250565b7f4272696467652069732070617573656400000000000000000000000000000000600082015250565b7f546f6b656e20616c726561647920657869737473000000000000000000000000600082015250565b7f65787069726564207369676e6174757265730000000000000000000000000000600082015250565b7f546f6b656e20646f6573206e6f74206578697374000000000000000000000000600082015250565b7f416464726573733a20696e73756666696369656e742062616c616e636520666f60008201527f722063616c6c0000000000000000000000000000000000000000000000000000602082015250565b7f427269646765206973206e6f7420706175736564000000000000000000000000600082015250565b7f746f6b656e206973206e6f7420737570706f7274656400000000000000000000600082015250565b7f71756f72756d206e6f74206d6574000000000000000000000000000000000000600082015250565b7f7472616e7366657220616c726561647920636f6d706c65746564000000000000600082015250565b7f696e646578206f7574206f6620626f756e640000000000000000000000000000600082015250565b7f696e76616c6964207369676e6174757265730000000000000000000000000000600082015250565b7f56616c696461746f7220646f6573206e6f742065786973740000000000000000600082015250565b7f6e6f726d616c697a6564416d6f756e7420616d6f756e74206d7573742062652060008201527f67726561746572207468616e2030000000000000000000000000000000000000602082015250565b7f706c65617365207573652077726170416e645472616e7366657245544820746f60008201527f207472616e736665722045544820746f204b6f696e6f73000000000000000000602082015250565b7f416464726573733a2063616c6c20746f206e6f6e2d636f6e7472616374000000600082015250565b7f5361666545524332303a204552433230206f7065726174696f6e20646964206e60008201527f6f74207375636365656400000000000000000000000000000000000000000000602082015250565b7f5265656e7472616e637947756172643a207265656e7472616e742063616c6c00600082015250565b7f56616c696461746f7220616c7265616479206578697374730000000000000000600082015250565b61557d81614f95565b811461558857600080fd5b50565b61559481614fa7565b811461559f57600080fd5b50565b6155ab81614fb3565b81146155b657600080fd5b50565b6155c281614fdd565b81146155cd57600080fd5b50565b6155d981614fe7565b81146155e457600080fd5b5056fea26469706673582212206baae5224738c4e13b8399d1ed4a8a2e1936a49884fcfa2fbeba6a44c711663764736f6c63430008040033",
  "linkReferences": {},
  "deployedLinkReferences": {}
}