{
  "_format": "hh-sol-artifact-1",
  "contractName": "Bridge",
  "sourceName": "contracts/Bridge.sol",
  "abi": [
    {
      "inputs": [
        {
          "internalType": "address[]",
          "name": "initialValidators",
          "type": "address[]"
        },
        {
          "internalType": "address",
          "name": "WETHAddress_",
          "type": "address"
        },
        {
          "internalType": "uint256",
          "name": "feeWETH",
          "type": "uint256"
        },
        {
          "internalType": "uint32",
          "name": "_chainId",
          "type": "uint32"
        }
      ],
      "stateMutability": "nonpayable",
      "type": "constructor"
    },
    {
      "anonymous": false,
      "inputs": [],
      "name": "Pause",
      "type": "event"
    },
    {
      "anonymous": false,
      "inputs": [
        {
          "indexed": false,
          "internalType": "bytes",
          "name": "txId",
          "type": "bytes"
        },
        {
          "indexed": false,
          "internalType": "uint256",
          "name": "blocktime",
          "type": "uint256"
        }
      ],
      "name": "RequestNewSignaturesEvent",
      "type": "event"
    },
    {
      "anonymous": false,
      "inputs": [
        {
          "indexed": true,
          "internalType": "address",
          "name": "token",
          "type": "address"
        }
      ],
      "name": "SupportedTokenAdded",
      "type": "event"
    },
    {
      "anonymous": false,
      "inputs": [
        {
          "indexed": true,
          "internalType": "address",
          "name": "token",
          "type": "address"
        }
      ],
      "name": "SupportedTokenClaimFees",
      "type": "event"
    },
    {
      "anonymous": false,
      "inputs": [
        {
          "indexed": true,
          "internalType": "address",
          "name": "token",
          "type": "address"
        }
      ],
      "name": "SupportedTokenRemoved",
      "type": "event"
    },
    {
      "anonymous": false,
      "inputs": [
        {
          "indexed": true,
          "internalType": "address",
          "name": "token",
          "type": "address"
        }
      ],
      "name": "SupportedTokenSetFee",
      "type": "event"
    },
    {
      "anonymous": false,
      "inputs": [
        {
          "indexed": true,
          "internalType": "address",
          "name": "token",
          "type": "address"
        }
      ],
      "name": "SupportedWrappedTokenAdded",
      "type": "event"
    },
    {
      "anonymous": false,
      "inputs": [
        {
          "indexed": true,
          "internalType": "address",
          "name": "token",
          "type": "address"
        }
      ],
      "name": "SupportedWrappedTokenClaimFees",
      "type": "event"
    },
    {
      "anonymous": false,
      "inputs": [
        {
          "indexed": true,
          "internalType": "address",
          "name": "token",
          "type": "address"
        }
      ],
      "name": "SupportedWrappedTokenRemoved",
      "type": "event"
    },
    {
      "anonymous": false,
      "inputs": [
        {
          "indexed": true,
          "internalType": "address",
          "name": "token",
          "type": "address"
        }
      ],
      "name": "SupportedWrappedTokenSetFee",
      "type": "event"
    },
    {
      "anonymous": false,
      "inputs": [
        {
          "indexed": false,
          "internalType": "address",
          "name": "from",
          "type": "address"
        },
        {
          "indexed": false,
          "internalType": "address",
          "name": "token",
          "type": "address"
        },
        {
          "indexed": false,
          "internalType": "uint256",
          "name": "amount",
          "type": "uint256"
        },
        {
          "indexed": false,
          "internalType": "uint256",
          "name": "payment",
          "type": "uint256"
        },
        {
          "indexed": false,
          "internalType": "string",
          "name": "relayer",
          "type": "string"
        },
        {
          "indexed": false,
          "internalType": "string",
          "name": "recipient",
          "type": "string"
        },
        {
          "indexed": false,
          "internalType": "string",
          "name": "metadata",
          "type": "string"
        },
        {
          "indexed": false,
          "internalType": "uint256",
          "name": "blocktime",
          "type": "uint256"
        },
        {
          "indexed": false,
          "internalType": "uint32",
          "name": "chain",
          "type": "uint32"
        }
      ],
      "name": "TokensLockedEvent",
      "type": "event"
    },
    {
      "anonymous": false,
      "inputs": [
        {
          "indexed": false,
          "internalType": "bytes",
          "name": "txId",
          "type": "bytes"
        },
        {
          "indexed": false,
          "internalType": "uint256",
          "name": "operationId",
          "type": "uint256"
        }
      ],
      "name": "TransferCompletedEvent",
      "type": "event"
    },
    {
      "anonymous": false,
      "inputs": [],
      "name": "Unpause",
      "type": "event"
    },
    {
      "anonymous": false,
      "inputs": [
        {
          "indexed": true,
          "internalType": "address",
          "name": "validator",
          "type": "address"
        }
      ],
      "name": "ValidatorAdded",
      "type": "event"
    },
    {
      "anonymous": false,
      "inputs": [
        {
          "indexed": true,
          "internalType": "address",
          "name": "validator",
          "type": "address"
        }
      ],
      "name": "ValidatorRemoved",
      "type": "event"
    },
    {
      "stateMutability": "payable",
      "type": "fallback"
    },
    {
      "inputs": [
        {
          "internalType": "bytes",
          "name": "txId",
          "type": "bytes"
        }
      ],
      "name": "RequestNewSignatures",
      "outputs": [],
      "stateMutability": "nonpayable",
      "type": "function"
    },
    {
      "inputs": [],
      "name": "WETHAddress",
      "outputs": [
        {
          "internalType": "address",
          "name": "",
          "type": "address"
        }
      ],
      "stateMutability": "view",
      "type": "function"
    },
    {
      "inputs": [
        {
          "internalType": "bytes[]",
          "name": "signatures",
          "type": "bytes[]"
        },
        {
          "internalType": "address",
          "name": "token",
          "type": "address"
        },
        {
          "internalType": "uint256",
          "name": "fee",
          "type": "uint256"
        },
        {
          "internalType": "uint256",
          "name": "expiration",
          "type": "uint256"
        }
      ],
      "name": "addSupportedToken",
      "outputs": [],
      "stateMutability": "nonpayable",
      "type": "function"
    },
    {
      "inputs": [
        {
          "internalType": "bytes[]",
          "name": "signatures",
          "type": "bytes[]"
        },
        {
          "internalType": "address",
          "name": "token",
          "type": "address"
        },
        {
          "internalType": "uint256",
          "name": "fee",
          "type": "uint256"
        },
        {
          "internalType": "uint256",
          "name": "expiration",
          "type": "uint256"
        }
      ],
      "name": "addSupportedWrappedToken",
      "outputs": [],
      "stateMutability": "nonpayable",
      "type": "function"
    },
    {
      "inputs": [
        {
          "internalType": "bytes[]",
          "name": "signatures",
          "type": "bytes[]"
        },
        {
          "internalType": "address",
          "name": "validator",
          "type": "address"
        },
        {
          "internalType": "uint256",
          "name": "expiration",
          "type": "uint256"
        }
      ],
      "name": "addValidator",
      "outputs": [],
      "stateMutability": "nonpayable",
      "type": "function"
    },
    {
      "inputs": [
        {
          "internalType": "address",
          "name": "",
          "type": "address"
        }
      ],
      "name": "balanceSupportedToken",
      "outputs": [
        {
          "internalType": "uint256",
          "name": "",
          "type": "uint256"
        }
      ],
      "stateMutability": "view",
      "type": "function"
    },
    {
      "inputs": [
        {
          "internalType": "address",
          "name": "",
          "type": "address"
        }
      ],
      "name": "balanceSupportedWrappedToken",
      "outputs": [
        {
          "internalType": "uint256",
          "name": "",
          "type": "uint256"
        }
      ],
      "stateMutability": "view",
      "type": "function"
    },
    {
      "inputs": [],
      "name": "chainId",
      "outputs": [
        {
          "internalType": "uint32",
          "name": "",
          "type": "uint32"
        }
      ],
      "stateMutability": "view",
      "type": "function"
    },
    {
      "inputs": [
        {
          "internalType": "bytes[]",
          "name": "signatures",
          "type": "bytes[]"
        },
        {
          "internalType": "address",
          "name": "token",
          "type": "address"
        },
        {
          "internalType": "address",
          "name": "wallet",
          "type": "address"
        },
        {
          "internalType": "uint256",
          "name": "expiration",
          "type": "uint256"
        }
      ],
      "name": "claimFeeTokens",
      "outputs": [],
      "stateMutability": "nonpayable",
      "type": "function"
    },
    {
      "inputs": [
        {
          "internalType": "bytes[]",
          "name": "signatures",
          "type": "bytes[]"
        },
        {
          "internalType": "address",
          "name": "token",
          "type": "address"
        },
        {
          "internalType": "address",
          "name": "wallet",
          "type": "address"
        },
        {
          "internalType": "uint256",
          "name": "expiration",
          "type": "uint256"
        }
      ],
      "name": "claimFeeWrappTokens",
      "outputs": [],
      "stateMutability": "nonpayable",
      "type": "function"
    },
    {
      "inputs": [
        {
          "internalType": "bytes",
          "name": "txId",
          "type": "bytes"
        },
        {
          "internalType": "uint256",
          "name": "operationId",
          "type": "uint256"
        },
        {
          "internalType": "address",
          "name": "token",
          "type": "address"
        },
        {
          "internalType": "address",
          "name": "relayer",
          "type": "address"
        },
        {
          "internalType": "address",
          "name": "recipient",
          "type": "address"
        },
        {
          "internalType": "uint256",
          "name": "value",
          "type": "uint256"
        },
        {
          "internalType": "uint256",
          "name": "payment",
          "type": "uint256"
        },
        {
          "internalType": "bytes[]",
          "name": "signatures",
          "type": "bytes[]"
        },
        {
          "internalType": "string",
          "name": "metadata",
          "type": "string"
        },
        {
          "internalType": "uint256",
          "name": "expiration",
          "type": "uint256"
        }
      ],
      "name": "completeTransfer",
      "outputs": [],
      "stateMutability": "nonpayable",
      "type": "function"
    },
    {
      "inputs": [
        {
          "internalType": "address",
          "name": "",
          "type": "address"
        }
      ],
      "name": "feeSupportedToken",
      "outputs": [
        {
          "internalType": "uint256",
          "name": "",
          "type": "uint256"
        }
      ],
      "stateMutability": "view",
      "type": "function"
    },
    {
      "inputs": [
        {
          "internalType": "address",
          "name": "",
          "type": "address"
        }
      ],
      "name": "feeSupportedWrappedToken",
      "outputs": [
        {
          "internalType": "uint256",
          "name": "",
          "type": "uint256"
        }
      ],
      "stateMutability": "view",
      "type": "function"
    },
    {
      "inputs": [],
      "name": "getSupportedTokensLength",
      "outputs": [
        {
          "internalType": "uint256",
          "name": "",
          "type": "uint256"
        }
      ],
      "stateMutability": "view",
      "type": "function"
    },
    {
      "inputs": [],
      "name": "getSupportedWrappedTokensLength",
      "outputs": [
        {
          "internalType": "uint256",
          "name": "",
          "type": "uint256"
        }
      ],
      "stateMutability": "view",
      "type": "function"
    },
    {
      "inputs": [],
      "name": "getValidatorsLength",
      "outputs": [
        {
          "internalType": "uint256",
          "name": "",
          "type": "uint256"
        }
      ],
      "stateMutability": "view",
      "type": "function"
    },
    {
      "inputs": [
        {
          "internalType": "address",
          "name": "",
          "type": "address"
        }
      ],
      "name": "isSupportedToken",
      "outputs": [
        {
          "internalType": "bool",
          "name": "",
          "type": "bool"
        }
      ],
      "stateMutability": "view",
      "type": "function"
    },
    {
      "inputs": [
        {
          "internalType": "address",
          "name": "",
          "type": "address"
        }
      ],
      "name": "isSupportedWrappedToken",
      "outputs": [
        {
          "internalType": "bool",
          "name": "",
          "type": "bool"
        }
      ],
      "stateMutability": "view",
      "type": "function"
    },
    {
      "inputs": [
        {
          "internalType": "bytes32",
          "name": "",
          "type": "bytes32"
        }
      ],
      "name": "isTransferCompleted",
      "outputs": [
        {
          "internalType": "bool",
          "name": "",
          "type": "bool"
        }
      ],
      "stateMutability": "view",
      "type": "function"
    },
    {
      "inputs": [
        {
          "internalType": "address",
          "name": "",
          "type": "address"
        }
      ],
      "name": "isValidator",
      "outputs": [
        {
          "internalType": "bool",
          "name": "",
          "type": "bool"
        }
      ],
      "stateMutability": "view",
      "type": "function"
    },
    {
      "inputs": [],
      "name": "nonce",
      "outputs": [
        {
          "internalType": "uint256",
          "name": "",
          "type": "uint256"
        }
      ],
      "stateMutability": "view",
      "type": "function"
    },
    {
      "inputs": [
        {
          "internalType": "bytes[]",
          "name": "signatures",
          "type": "bytes[]"
        },
        {
          "internalType": "uint256",
          "name": "expiration",
          "type": "uint256"
        }
      ],
      "name": "pause",
      "outputs": [],
      "stateMutability": "nonpayable",
      "type": "function"
    },
    {
      "inputs": [],
      "name": "paused",
      "outputs": [
        {
          "internalType": "bool",
          "name": "",
          "type": "bool"
        }
      ],
      "stateMutability": "view",
      "type": "function"
    },
    {
      "inputs": [
        {
          "internalType": "bytes[]",
          "name": "signatures",
          "type": "bytes[]"
        },
        {
          "internalType": "address",
          "name": "token",
          "type": "address"
        },
        {
          "internalType": "uint256",
          "name": "expiration",
          "type": "uint256"
        }
      ],
      "name": "removeSupportedToken",
      "outputs": [],
      "stateMutability": "nonpayable",
      "type": "function"
    },
    {
      "inputs": [
        {
          "internalType": "bytes[]",
          "name": "signatures",
          "type": "bytes[]"
        },
        {
          "internalType": "address",
          "name": "token",
          "type": "address"
        },
        {
          "internalType": "uint256",
          "name": "expiration",
          "type": "uint256"
        }
      ],
      "name": "removeSupportedWrappedToken",
      "outputs": [],
      "stateMutability": "nonpayable",
      "type": "function"
    },
    {
      "inputs": [
        {
          "internalType": "bytes[]",
          "name": "signatures",
          "type": "bytes[]"
        },
        {
          "internalType": "address",
          "name": "validator",
          "type": "address"
        },
        {
          "internalType": "uint256",
          "name": "expiration",
          "type": "uint256"
        }
      ],
      "name": "removeValidator",
      "outputs": [],
      "stateMutability": "nonpayable",
      "type": "function"
    },
    {
      "inputs": [
        {
          "internalType": "bytes[]",
          "name": "signatures",
          "type": "bytes[]"
        },
        {
          "internalType": "address",
          "name": "token",
          "type": "address"
        },
        {
          "internalType": "uint256",
          "name": "fee",
          "type": "uint256"
        },
        {
          "internalType": "uint256",
          "name": "expiration",
          "type": "uint256"
        }
      ],
      "name": "setFeeSupportedToken",
      "outputs": [],
      "stateMutability": "nonpayable",
      "type": "function"
    },
    {
      "inputs": [
        {
          "internalType": "bytes[]",
          "name": "signatures",
          "type": "bytes[]"
        },
        {
          "internalType": "address",
          "name": "token",
          "type": "address"
        },
        {
          "internalType": "uint256",
          "name": "fee",
          "type": "uint256"
        },
        {
          "internalType": "uint256",
          "name": "expiration",
          "type": "uint256"
        }
      ],
      "name": "setFeeSupportedWrappedToken",
      "outputs": [],
      "stateMutability": "nonpayable",
      "type": "function"
    },
    {
      "inputs": [
        {
          "internalType": "uint256",
          "name": "",
          "type": "uint256"
        }
      ],
      "name": "supportedTokens",
      "outputs": [
        {
          "internalType": "address",
          "name": "",
          "type": "address"
        }
      ],
      "stateMutability": "view",
      "type": "function"
    },
    {
      "inputs": [
        {
          "internalType": "uint256",
          "name": "",
          "type": "uint256"
        }
      ],
      "name": "supportedWrappedTokens",
      "outputs": [
        {
          "internalType": "address",
          "name": "",
          "type": "address"
        }
      ],
      "stateMutability": "view",
      "type": "function"
    },
    {
      "inputs": [
        {
          "internalType": "address",
          "name": "token",
          "type": "address"
        },
        {
          "internalType": "uint256",
          "name": "amount",
          "type": "uint256"
        },
        {
          "internalType": "uint256",
          "name": "payment",
          "type": "uint256"
        },
        {
          "internalType": "string",
          "name": "relayer",
          "type": "string"
        },
        {
          "internalType": "string",
          "name": "recipient",
          "type": "string"
        },
        {
          "internalType": "string",
          "name": "metadata",
          "type": "string"
        },
        {
          "internalType": "uint32",
          "name": "toChain",
          "type": "uint32"
        }
      ],
      "name": "transferTokens",
      "outputs": [],
      "stateMutability": "nonpayable",
      "type": "function"
    },
    {
      "inputs": [
        {
          "internalType": "bytes[]",
          "name": "signatures",
          "type": "bytes[]"
        },
        {
          "internalType": "uint256",
          "name": "expiration",
          "type": "uint256"
        }
      ],
      "name": "unpause",
      "outputs": [],
      "stateMutability": "nonpayable",
      "type": "function"
    },
    {
      "inputs": [
        {
          "internalType": "uint256",
          "name": "",
          "type": "uint256"
        }
      ],
      "name": "validators",
      "outputs": [
        {
          "internalType": "address",
          "name": "",
          "type": "address"
        }
      ],
      "stateMutability": "view",
      "type": "function"
    },
    {
      "inputs": [
        {
          "internalType": "uint256",
          "name": "payment",
          "type": "uint256"
        },
        {
          "internalType": "string",
          "name": "relayer",
          "type": "string"
        },
        {
          "internalType": "string",
          "name": "recipient",
          "type": "string"
        },
        {
          "internalType": "string",
          "name": "metadata",
          "type": "string"
        },
        {
          "internalType": "uint32",
          "name": "toChain",
          "type": "uint32"
        }
      ],
      "name": "wrapAndTransferETH",
      "outputs": [],
      "stateMutability": "payable",
      "type": "function"
    },
    {
      "stateMutability": "payable",
      "type": "receive"
    }
  ],
  "bytecode": "0x608060405260016002555f600f5f6101000a81548160ff02191690831515021790555034801561002d575f80fd5b506040516171db3803806171db833981810160405281019061004f91906105ea565b60015f819055505f845111610099576040517f08c379a0000000000000000000000000000000000000000000000000000000008152600401610090906106c4565b60405180910390fd5b5f5b845181101561027d575f8582815181106100b8576100b76106e2565b5b602002602001015190505f73ffffffffffffffffffffffffffffffffffffffff168173ffffffffffffffffffffffffffffffffffffffff1603610130576040517f08c379a000000000000000000000000000000000000000000000000000000000815260040161012790610759565b60405180910390fd5b60055f8273ffffffffffffffffffffffffffffffffffffffff1673ffffffffffffffffffffffffffffffffffffffff1681526020019081526020015f205f9054906101000a900460ff16156101ba576040517f08c379a00000000000000000000000000000000000000000000000000000000081526004016101b1906107c1565b60405180910390fd5b600160055f8373ffffffffffffffffffffffffffffffffffffffff1673ffffffffffffffffffffffffffffffffffffffff1681526020019081526020015f205f6101000a81548160ff021916908315150217905550600481908060018154018082558091505060019003905f5260205f20015f9091909190916101000a81548173ffffffffffffffffffffffffffffffffffffffff021916908373ffffffffffffffffffffffffffffffffffffffff16021790555050808060010191505061009b565b5082600f60016101000a81548173ffffffffffffffffffffffffffffffffffffffff021916908373ffffffffffffffffffffffffffffffffffffffff160217905550600160085f600f60019054906101000a900473ffffffffffffffffffffffffffffffffffffffff1673ffffffffffffffffffffffffffffffffffffffff1673ffffffffffffffffffffffffffffffffffffffff1681526020019081526020015f205f6101000a81548160ff0219169083151502179055508160095f600f60019054906101000a900473ffffffffffffffffffffffffffffffffffffffff1673ffffffffffffffffffffffffffffffffffffffff1673ffffffffffffffffffffffffffffffffffffffff1681526020019081526020015f20819055508060015f6101000a81548163ffffffff021916908363ffffffff160217905550505050506107df565b5f604051905090565b5f80fd5b5f80fd5b5f80fd5b5f601f19601f8301169050919050565b7f4e487b71000000000000000000000000000000000000000000000000000000005f52604160045260245ffd5b61041e826103d8565b810181811067ffffffffffffffff8211171561043d5761043c6103e8565b5b80604052505050565b5f61044f6103c3565b905061045b8282610415565b919050565b5f67ffffffffffffffff82111561047a576104796103e8565b5b602082029050602081019050919050565b5f80fd5b5f73ffffffffffffffffffffffffffffffffffffffff82169050919050565b5f6104b88261048f565b9050919050565b6104c8816104ae565b81146104d2575f80fd5b50565b5f815190506104e3816104bf565b92915050565b5f6104fb6104f684610460565b610446565b9050808382526020820190506020840283018581111561051e5761051d61048b565b5b835b81811015610547578061053388826104d5565b845260208401935050602081019050610520565b5050509392505050565b5f82601f830112610565576105646103d4565b5b81516105758482602086016104e9565b91505092915050565b5f819050919050565b6105908161057e565b811461059a575f80fd5b50565b5f815190506105ab81610587565b92915050565b5f63ffffffff82169050919050565b6105c9816105b1565b81146105d3575f80fd5b50565b5f815190506105e4816105c0565b92915050565b5f805f8060808587031215610602576106016103cc565b5b5f85015167ffffffffffffffff81111561061f5761061e6103d0565b5b61062b87828801610551565b945050602061063c878288016104d5565b935050604061064d8782880161059d565b925050606061065e878288016105d6565b91505092959194509250565b5f82825260208201905092915050565b7f56616c696461746f7273207265717569726564000000000000000000000000005f82015250565b5f6106ae60138361066a565b91506106b98261067a565b602082019050919050565b5f6020820190508181035f8301526106db816106a2565b9050919050565b7f4e487b71000000000000000000000000000000000000000000000000000000005f52603260045260245ffd5b7f496e76616c69642076616c696461746f720000000000000000000000000000005f82015250565b5f61074360118361066a565b915061074e8261070f565b602082019050919050565b5f6020820190508181035f83015261077081610737565b9050919050565b7f56616c696461746f72206e6f7420756e697175650000000000000000000000005f82015250565b5f6107ab60148361066a565b91506107b682610777565b602082019050919050565b5f6020820190508181035f8301526107d88161079f565b9050919050565b6169ef806107ec5f395ff3fe6080604052600436106101fc575f3560e01c80637725dfe81161010c578063affed0e01161009f578063e91f04201161006e578063e91f0420146107c5578063ef69b68f146107ed578063f960cd6b14610815578063facd743b1461083f578063ff7a071b1461087b5761023c565b8063affed0e01461071b578063c625562614610745578063e3ff155614610781578063e6f0d9ce146107a95761023c565b80639a8a0592116100db5780639a8a05921461063d578063aa4efa5b14610667578063ae5f8727146106a3578063ae6b9bf9146106df5761023c565b80637725dfe81461059b5780637a5332e0146105c55780638392e88b146105ed57806388b2a80a146106155761023c565b80632d45e2db1161018f5780635c975abb1161015e5780635c975abb146104a95780635d62263b146104d3578063647ea600146104fb5780636c1cdd641461053757806375be8642146105735761023c565b80632d45e2db146103e157806335aa2e441461041d578063493d828014610459578063594807ad146104815761023c565b806318ee2b41116101cb57806318ee2b41146103195780631cd775bb14610341578063201efb3f14610369578063240028e8146103a55761023c565b8063051528a9146102775780630af88b241461029f5780630b47c9da146102c95780630be244ae146102f15761023c565b3661023c576040517f08c379a000000000000000000000000000000000000000000000000000000000815260040161023390614a15565b60405180910390fd5b6040517f08c379a000000000000000000000000000000000000000000000000000000000815260040161026e90614a15565b60405180910390fd5b348015610282575f80fd5b5061029d60048036038101906102989190614cef565b6108a5565b005b3480156102aa575f80fd5b506102b3610a96565b6040516102c09190614d7e565b60405180910390f35b3480156102d4575f80fd5b506102ef60048036038101906102ea9190614e6e565b610abc565b005b3480156102fc575f80fd5b5061031760048036038101906103129190614f5f565b611458565b005b348015610324575f80fd5b5061033f600480360381019061033a9190614f5f565b6116fa565b005b34801561034c575f80fd5b5061036760048036038101906103629190614fdf565b6118e6565b005b348015610374575f80fd5b5061038f600480360381019061038a9190615039565b611a6d565b60405161039c919061507e565b60405180910390f35b3480156103b0575f80fd5b506103cb60048036038101906103c69190615039565b611a8a565b6040516103d8919061507e565b60405180910390f35b3480156103ec575f80fd5b5061040760048036038101906104029190615039565b611aa7565b60405161041491906150a6565b60405180910390f35b348015610428575f80fd5b50610443600480360381019061043e91906150bf565b611abc565b6040516104509190614d7e565b60405180910390f35b348015610464575f80fd5b5061047f600480360381019061047a91906150ea565b611af7565b005b34801561048c575f80fd5b506104a760048036038101906104a29190614f5f565b611b8f565b005b3480156104b4575f80fd5b506104bd611d7b565b6040516104ca919061507e565b60405180910390f35b3480156104de575f80fd5b506104f960048036038101906104f49190615131565b611d8d565b005b348015610506575f80fd5b50610521600480360381019061051c9190615039565b61205f565b60405161052e91906150a6565b60405180910390f35b348015610542575f80fd5b5061055d60048036038101906105589190615039565b612074565b60405161056a91906150a6565b60405180910390f35b34801561057e575f80fd5b5061059960048036038101906105949190615131565b612089565b005b3480156105a6575f80fd5b506105af6122e6565b6040516105bc91906150a6565b60405180910390f35b3480156105d0575f80fd5b506105eb60048036038101906105e69190614f5f565b6122f2565b005b3480156105f8575f80fd5b50610613600480360381019061060e919061519d565b612594565b005b348015610620575f80fd5b5061063b60048036038101906106369190615131565b612d55565b005b348015610648575f80fd5b50610651612fe5565b60405161065e91906152d9565b60405180910390f35b348015610672575f80fd5b5061068d60048036038101906106889190615325565b612ffa565b60405161069a919061507e565b60405180910390f35b3480156106ae575f80fd5b506106c960048036038101906106c491906150bf565b613017565b6040516106d69190614d7e565b60405180910390f35b3480156106ea575f80fd5b5061070560048036038101906107009190615039565b613052565b60405161071291906150a6565b60405180910390f35b348015610726575f80fd5b5061072f613067565b60405161073c91906150a6565b60405180910390f35b348015610750575f80fd5b5061076b600480360381019061076691906150bf565b61306d565b6040516107789190614d7e565b60405180910390f35b34801561078c575f80fd5b506107a760048036038101906107a29190614cef565b6130a8565b005b6107c360048036038101906107be9190615350565b61329a565b005b3480156107d0575f80fd5b506107eb60048036038101906107e69190614fdf565b61379a565b005b3480156107f8575f80fd5b50610813600480360381019061080e9190615131565b61390a565b005b348015610820575f80fd5b50610829613bdc565b60405161083691906150a6565b60405180910390f35b34801561084a575f80fd5b5061086560048036038101906108609190615039565b613be8565b604051610872919061507e565b60405180910390f35b348015610886575f80fd5b5061088f613c05565b60405161089c91906150a6565b60405180910390f35b6103e8426108b39190615448565b8110156108f5576040517f08c379a00000000000000000000000000000000000000000000000000000000081526004016108ec906154d3565b60405180910390fd5b5f610956600c8081111561090c5761090b6154f1565b5b8585600254308760015f9054906101000a900463ffffffff1660405160200161093b97969594939291906155b7565b60405160208183030381529060405280519060200120613c11565b90506109628582613c40565b5f600e5f8673ffffffffffffffffffffffffffffffffffffffff1673ffffffffffffffffffffffffffffffffffffffff1681526020019081526020015f205490505f81116109e5576040517f08c379a00000000000000000000000000000000000000000000000000000000081526004016109dc90615681565b60405180910390fd5b6109f0858583613f5b565b5f600e5f8773ffffffffffffffffffffffffffffffffffffffff1673ffffffffffffffffffffffffffffffffffffffff1681526020019081526020015f2081905550600160025f828254610a44919061569f565b925050819055508473ffffffffffffffffffffffffffffffffffffffff167f70c6a5a22233b2f689b4d712b22eae6cd118127c250544595e84ea2d0373458a60405160405180910390a2505050505050565b600f60019054906101000a900473ffffffffffffffffffffffffffffffffffffffff1681565b600f5f9054906101000a900460ff1615610b0b576040517f08c379a0000000000000000000000000000000000000000000000000000000008152600401610b029061571c565b60405180910390fd5b60025f5403610b4f576040517f08c379a0000000000000000000000000000000000000000000000000000000008152600401610b4690615784565b60405180910390fd5b60025f81905550600c5f8873ffffffffffffffffffffffffffffffffffffffff1673ffffffffffffffffffffffffffffffffffffffff1681526020019081526020015f205f9054906101000a900460ff1680610bf1575060085f8873ffffffffffffffffffffffffffffffffffffffff1673ffffffffffffffffffffffffffffffffffffffff1681526020019081526020015f205f9054906101000a900460ff165b610c30576040517f08c379a0000000000000000000000000000000000000000000000000000000008152600401610c27906157ec565b60405180910390fd5b5f8773ffffffffffffffffffffffffffffffffffffffff166040516024016040516020818303038152906040527f313ce567000000000000000000000000000000000000000000000000000000007bffffffffffffffffffffffffffffffffffffffffffffffffffffffff19166020820180517bffffffffffffffffffffffffffffffffffffffffffffffffffffffff8381831617835250505050604051610cd8919061585c565b5f60405180830381855afa9150503d805f8114610d10576040519150601f19603f3d011682016040523d82523d5f602084013e610d15565b606091505b509150505f81806020019051810190610d2e91906158a8565b9050610d43610d3d8983613fe1565b82614051565b9750600c5f8a73ffffffffffffffffffffffffffffffffffffffff1673ffffffffffffffffffffffffffffffffffffffff1681526020019081526020015f205f9054906101000a900460ff1615610fad57610da08933308b6140c1565b5f600d5f8b73ffffffffffffffffffffffffffffffffffffffff1673ffffffffffffffffffffffffffffffffffffffff1681526020019081526020015f20541115610f4057600d5f8a73ffffffffffffffffffffffffffffffffffffffff1673ffffffffffffffffffffffffffffffffffffffff1681526020019081526020015f20548811610e64576040517f08c379a0000000000000000000000000000000000000000000000000000000008152600401610e5b90615943565b60405180910390fd5b600d5f8a73ffffffffffffffffffffffffffffffffffffffff1673ffffffffffffffffffffffffffffffffffffffff1681526020019081526020015f205488610ead9190615961565b9750600d5f8a73ffffffffffffffffffffffffffffffffffffffff1673ffffffffffffffffffffffffffffffffffffffff1681526020019081526020015f2054600e5f8b73ffffffffffffffffffffffffffffffffffffffff1673ffffffffffffffffffffffffffffffffffffffff1681526020019081526020015f205f828254610f38919061569f565b925050819055505b8873ffffffffffffffffffffffffffffffffffffffff16639dc29fac308a6040518363ffffffff1660e01b8152600401610f7b929190615994565b5f604051808303815f87803b158015610f92575f80fd5b505af1158015610fa4573d5f803e3d5ffd5b50505050611352565b5f8973ffffffffffffffffffffffffffffffffffffffff166370a0823160e01b30604051602401610fde9190614d7e565b604051602081830303815290604052907bffffffffffffffffffffffffffffffffffffffffffffffffffffffff19166020820180517bffffffffffffffffffffffffffffffffffffffffffffffffffffffff8381831617835250505050604051611048919061585c565b5f60405180830381855afa9150503d805f8114611080576040519150601f19603f3d011682016040523d82523d5f602084013e611085565b606091505b509150505f8180602001905181019061109e91906159cf565b90506110ac8b33308d6140c1565b5f8b73ffffffffffffffffffffffffffffffffffffffff166370a0823160e01b306040516024016110dd9190614d7e565b604051602081830303815290604052907bffffffffffffffffffffffffffffffffffffffffffffffffffffffff19166020820180517bffffffffffffffffffffffffffffffffffffffffffffffffffffffff8381831617835250505050604051611147919061585c565b5f60405180830381855afa9150503d805f811461117f576040519150601f19603f3d011682016040523d82523d5f602084013e611184565b606091505b509150505f8180602001905181019061119d91906159cf565b905082816111ab9190615961565b9b505f60095f8f73ffffffffffffffffffffffffffffffffffffffff1673ffffffffffffffffffffffffffffffffffffffff1681526020019081526020015f2054111561134d5760095f8e73ffffffffffffffffffffffffffffffffffffffff1673ffffffffffffffffffffffffffffffffffffffff1681526020019081526020015f20548c11611271576040517f08c379a000000000000000000000000000000000000000000000000000000000815260040161126890615943565b60405180910390fd5b60095f8e73ffffffffffffffffffffffffffffffffffffffff1673ffffffffffffffffffffffffffffffffffffffff1681526020019081526020015f20548c6112ba9190615961565b9b5060095f8e73ffffffffffffffffffffffffffffffffffffffff1673ffffffffffffffffffffffffffffffffffffffff1681526020019081526020015f2054600a5f8f73ffffffffffffffffffffffffffffffffffffffff1673ffffffffffffffffffffffffffffffffffffffff1681526020019081526020015f205f828254611345919061569f565b925050819055505b505050505b5f61135d8983613fe1565b90505f61136a8984613fe1565b90505f82116113ae576040517f08c379a00000000000000000000000000000000000000000000000000000000081526004016113a590615a6a565b60405180910390fd5b8082116113f0576040517f08c379a00000000000000000000000000000000000000000000000000000000081526004016113e790615af8565b60405180910390fd5b7f1581ca8f4b4c1e564c6fba30d5d197d6d21974b35147c5e3c896b94b3c9bd126338c84848c8c8c6103e8426114269190615448565b8d60405161143c99989796959493929190615b58565b60405180910390a15050505060015f8190555050505050505050565b6103e8426114669190615448565b8110156114a8576040517f08c379a000000000000000000000000000000000000000000000000000000000815260040161149f906154d3565b60405180910390fd5b600c5f8473ffffffffffffffffffffffffffffffffffffffff1673ffffffffffffffffffffffffffffffffffffffff1681526020019081526020015f205f9054906101000a900460ff1615611532576040517f08c379a000000000000000000000000000000000000000000000000000000000815260040161152990615c42565b60405180910390fd5b5f6115946005600c81111561154a576115496154f1565b5b8585600254308760015f9054906101000a900463ffffffff166040516020016115799796959493929190615c60565b60405160208183030381529060405280519060200120613c11565b90506115a08582613c40565b6001600c5f8673ffffffffffffffffffffffffffffffffffffffff1673ffffffffffffffffffffffffffffffffffffffff1681526020019081526020015f205f6101000a81548160ff02191690831515021790555082600d5f8673ffffffffffffffffffffffffffffffffffffffff1673ffffffffffffffffffffffffffffffffffffffff1681526020019081526020015f2081905550600b84908060018154018082558091505060019003905f5260205f20015f9091909190916101000a81548173ffffffffffffffffffffffffffffffffffffffff021916908373ffffffffffffffffffffffffffffffffffffffff160217905550600160025f8282546116a9919061569f565b925050819055508373ffffffffffffffffffffffffffffffffffffffff167f73ef58e3c2e3da95dfd8fd7f3d28c23b072dba3484a5b53a196bc592056ceb1f60405160405180910390a25050505050565b6103e8426117089190615448565b81101561174a576040517f08c379a0000000000000000000000000000000000000000000000000000000008152600401611741906154d3565b60405180910390fd5b600c5f8473ffffffffffffffffffffffffffffffffffffffff1673ffffffffffffffffffffffffffffffffffffffff1681526020019081526020015f205f9054906101000a900460ff166117d3576040517f08c379a00000000000000000000000000000000000000000000000000000000081526004016117ca90615d2a565b60405180910390fd5b5f611835600a600c8111156117eb576117ea6154f1565b5b8585600254308760015f9054906101000a900463ffffffff1660405160200161181a9796959493929190615c60565b60405160208183030381529060405280519060200120613c11565b90506118418582613c40565b82600d5f8673ffffffffffffffffffffffffffffffffffffffff1673ffffffffffffffffffffffffffffffffffffffff1681526020019081526020015f2081905550600160025f828254611895919061569f565b925050819055508373ffffffffffffffffffffffffffffffffffffffff167ffa4f9d629b2e9b1e242787d02cec64d10b889b1e369cbed9be9e0d6a8547430060405160405180910390a25050505050565b600f5f9054906101000a900460ff16611934576040517f08c379a000000000000000000000000000000000000000000000000000000000815260040161192b90615d92565b60405180910390fd5b6103e8426119429190615448565b811015611984576040517f08c379a000000000000000000000000000000000000000000000000000000000815260040161197b906154d3565b60405180910390fd5b5f6119e46007600c81111561199c5761199b6154f1565b5b5f600254308660015f9054906101000a900463ffffffff166040516020016119c996959493929190615df5565b60405160208183030381529060405280519060200120613c11565b90506119f08382613c40565b6001600f5f6101000a81548160ff021916908315150217905550600160025f828254611a1c919061569f565b925050819055505f600f5f6101000a81548160ff0219169083151502179055507f7805862f689e2f13df9f062ff482ad3ad112aca9e0847911ed832e158c525b3360405160405180910390a1505050565b600c602052805f5260405f205f915054906101000a900460ff1681565b6008602052805f5260405f205f915054906101000a900460ff1681565b6009602052805f5260405f205f915090505481565b60048181548110611acb575f80fd5b905f5260205f20015f915054906101000a900473ffffffffffffffffffffffffffffffffffffffff1681565b600f5f9054906101000a900460ff1615611b46576040517f08c379a0000000000000000000000000000000000000000000000000000000008152600401611b3d9061571c565b60405180910390fd5b7f41f9d865e9570fc2c0097e4bcdf9738724c95a54729d01e0e51ae983b3d0fcaf816103e842611b769190615448565b604051611b84929190615eac565b60405180910390a150565b6103e842611b9d9190615448565b811015611bdf576040517f08c379a0000000000000000000000000000000000000000000000000000000008152600401611bd6906154d3565b60405180910390fd5b60085f8473ffffffffffffffffffffffffffffffffffffffff1673ffffffffffffffffffffffffffffffffffffffff1681526020019081526020015f205f9054906101000a900460ff16611c68576040517f08c379a0000000000000000000000000000000000000000000000000000000008152600401611c5f90615d2a565b60405180910390fd5b5f611cca6009600c811115611c8057611c7f6154f1565b5b8585600254308760015f9054906101000a900463ffffffff16604051602001611caf9796959493929190615c60565b60405160208183030381529060405280519060200120613c11565b9050611cd68582613c40565b8260095f8673ffffffffffffffffffffffffffffffffffffffff1673ffffffffffffffffffffffffffffffffffffffff1681526020019081526020015f2081905550600160025f828254611d2a919061569f565b925050819055508373ffffffffffffffffffffffffffffffffffffffff167f69ab3b10537df3859684a1256f9aca42b36af54bf2461136199b2f6eb0a2f1cf60405160405180910390a25050505050565b600f5f9054906101000a900460ff1681565b6103e842611d9b9190615448565b811015611ddd576040517f08c379a0000000000000000000000000000000000000000000000000000000008152600401611dd4906154d3565b60405180910390fd5b600c5f8373ffffffffffffffffffffffffffffffffffffffff1673ffffffffffffffffffffffffffffffffffffffff1681526020019081526020015f205f9054906101000a900460ff16611e66576040517f08c379a0000000000000000000000000000000000000000000000000000000008152600401611e5d90615d2a565b60405180910390fd5b5f611ec66006600c811115611e7e57611e7d6154f1565b5b84600254308660015f9054906101000a900463ffffffff16604051602001611eab96959493929190615eda565b60405160208183030381529060405280519060200120613c11565b9050611ed28482613c40565b5f600c5f8573ffffffffffffffffffffffffffffffffffffffff1673ffffffffffffffffffffffffffffffffffffffff1681526020019081526020015f205f6101000a81548160ff0219169083151502179055505f600d5f8573ffffffffffffffffffffffffffffffffffffffff1673ffffffffffffffffffffffffffffffffffffffff1681526020019081526020015f20819055505f5b600b80549050811015611ffc578373ffffffffffffffffffffffffffffffffffffffff16600b8281548110611fa257611fa1615f49565b5b905f5260205f20015f9054906101000a900473ffffffffffffffffffffffffffffffffffffffff1673ffffffffffffffffffffffffffffffffffffffff1603611fef57611fee8161414a565b5b8080600101915050611f6a565b50600160025f82825461200f919061569f565b925050819055508273ffffffffffffffffffffffffffffffffffffffff167fc4d7c78b5869618497de798f19809c2d74b2afca7a1190ca9544ad256f35a3c760405160405180910390a250505050565b600e602052805f5260405f205f915090505481565b600a602052805f5260405f205f915090505481565b6103e8426120979190615448565b8110156120d9576040517f08c379a00000000000000000000000000000000000000000000000000000000081526004016120d0906154d3565b60405180910390fd5b60055f8373ffffffffffffffffffffffffffffffffffffffff1673ffffffffffffffffffffffffffffffffffffffff1681526020019081526020015f205f9054906101000a900460ff1615612163576040517f08c379a000000000000000000000000000000000000000000000000000000000815260040161215a90615fc0565b60405180910390fd5b5f6121c36001600c81111561217b5761217a6154f1565b5b84600254308660015f9054906101000a900463ffffffff166040516020016121a896959493929190615eda565b60405160208183030381529060405280519060200120613c11565b90506121cf8482613c40565b600160055f8573ffffffffffffffffffffffffffffffffffffffff1673ffffffffffffffffffffffffffffffffffffffff1681526020019081526020015f205f6101000a81548160ff021916908315150217905550600483908060018154018082558091505060019003905f5260205f20015f9091909190916101000a81548173ffffffffffffffffffffffffffffffffffffffff021916908373ffffffffffffffffffffffffffffffffffffffff160217905550600160025f828254612296919061569f565b925050819055508273ffffffffffffffffffffffffffffffffffffffff167fe366c1c0452ed8eec96861e9e54141ebff23c9ec89fe27b996b45f5ec388498760405160405180910390a250505050565b5f600b80549050905090565b6103e8426123009190615448565b811015612342576040517f08c379a0000000000000000000000000000000000000000000000000000000008152600401612339906154d3565b60405180910390fd5b60085f8473ffffffffffffffffffffffffffffffffffffffff1673ffffffffffffffffffffffffffffffffffffffff1681526020019081526020015f205f9054906101000a900460ff16156123cc576040517f08c379a00000000000000000000000000000000000000000000000000000000081526004016123c390615c42565b60405180910390fd5b5f61242e6003600c8111156123e4576123e36154f1565b5b8585600254308760015f9054906101000a900463ffffffff166040516020016124139796959493929190615c60565b60405160208183030381529060405280519060200120613c11565b905061243a8582613c40565b600160085f8673ffffffffffffffffffffffffffffffffffffffff1673ffffffffffffffffffffffffffffffffffffffff1681526020019081526020015f205f6101000a81548160ff0219169083151502179055508260095f8673ffffffffffffffffffffffffffffffffffffffff1673ffffffffffffffffffffffffffffffffffffffff1681526020019081526020015f2081905550600784908060018154018082558091505060019003905f5260205f20015f9091909190916101000a81548173ffffffffffffffffffffffffffffffffffffffff021916908373ffffffffffffffffffffffffffffffffffffffff160217905550600160025f828254612543919061569f565b925050819055508373ffffffffffffffffffffffffffffffffffffffff167fd1be2e90bd3d24839d9dd94ad871068e1f9688b02fa43f2a62c9975dfa9de2d760405160405180910390a25050505050565b600f5f9054906101000a900460ff16156125e3576040517f08c379a00000000000000000000000000000000000000000000000000000000081526004016125da9061571c565b60405180910390fd5b60025f5403612627576040517f08c379a000000000000000000000000000000000000000000000000000000000815260040161261e90615784565b60405180910390fd5b60025f819055506103e84261263c9190615448565b81101561267e576040517f08c379a0000000000000000000000000000000000000000000000000000000008152600401612675906154d3565b60405180910390fd5b600c5f8973ffffffffffffffffffffffffffffffffffffffff1673ffffffffffffffffffffffffffffffffffffffff1681526020019081526020015f205f9054906101000a900460ff1680612719575060085f8973ffffffffffffffffffffffffffffffffffffffff1673ffffffffffffffffffffffffffffffffffffffff1681526020019081526020015f205f9054906101000a900460ff165b612758576040517f08c379a000000000000000000000000000000000000000000000000000000000815260040161274f906157ec565b60405180910390fd5b8673ffffffffffffffffffffffffffffffffffffffff163373ffffffffffffffffffffffffffffffffffffffff1614806127bd57508573ffffffffffffffffffffffffffffffffffffffff163373ffffffffffffffffffffffffffffffffffffffff16145b6127fc576040517f08c379a00000000000000000000000000000000000000000000000000000000081526004016127f39061604e565b60405180910390fd5b5f6128666008600c811115612814576128136154f1565b5b8c8c8c8c8c8c8c8b308c60015f9054906101000a900463ffffffff1660405160200161284b9c9b9a999897969594939291906160a6565b60405160208183030381529060405280519060200120613c11565b90505f61289a8c8c60405160200161287f929190616173565b60405160208183030381529060405280519060200120613c11565b905060035f8281526020019081526020015f205f9054906101000a900460ff16156128fa576040517f08c379a00000000000000000000000000000000000000000000000000000000081526004016128f1906161e4565b60405180910390fd5b600160035f8381526020019081526020015f205f6101000a81548160ff02191690831515021790555061292d8583613c40565b5f8a73ffffffffffffffffffffffffffffffffffffffff166040516024016040516020818303038152906040527f313ce567000000000000000000000000000000000000000000000000000000007bffffffffffffffffffffffffffffffffffffffffffffffffffffffff19166020820180517bffffffffffffffffffffffffffffffffffffffffffffffffffffffff83818316178352505050506040516129d5919061585c565b5f60405180830381855afa9150503d805f8114612a0d576040519150601f19603f3d011682016040523d82523d5f602084013e612a12565b606091505b509150505f81806020019051810190612a2b91906158a8565b90505f612a388a83614051565b9050600c5f8e73ffffffffffffffffffffffffffffffffffffffff1673ffffffffffffffffffffffffffffffffffffffff1681526020019081526020015f205f9054906101000a900460ff1615612b5a578c73ffffffffffffffffffffffffffffffffffffffff166340c10f1930836040518363ffffffff1660e01b8152600401612ac4929190615994565b5f604051808303815f87803b158015612adb575f80fd5b505af1158015612aed573d5f803e3d5ffd5b505050508b73ffffffffffffffffffffffffffffffffffffffff163373ffffffffffffffffffffffffffffffffffffffff16148015612b2b57505f89115b15612b4a57612b3b8d8d8b613f5b565b8881612b479190615961565b90505b612b558d8c83613f5b565b612d04565b600f60019054906101000a900473ffffffffffffffffffffffffffffffffffffffff1673ffffffffffffffffffffffffffffffffffffffff168d73ffffffffffffffffffffffffffffffffffffffff1603612c9e57600f60019054906101000a900473ffffffffffffffffffffffffffffffffffffffff1673ffffffffffffffffffffffffffffffffffffffff16632e1a7d4d826040518263ffffffff1660e01b8152600401612c0a91906150a6565b5f604051808303815f87803b158015612c21575f80fd5b505af1158015612c33573d5f803e3d5ffd5b505050508b73ffffffffffffffffffffffffffffffffffffffff163373ffffffffffffffffffffffffffffffffffffffff16148015612c7157505f89115b15612c8f57612c808b8a6142a5565b8881612c8c9190615961565b90505b612c998b826142a5565b612d03565b8b73ffffffffffffffffffffffffffffffffffffffff163373ffffffffffffffffffffffffffffffffffffffff16148015612cd857505f89115b15612cf757612ce88d8d8b613f5b565b8881612cf49190615961565b90505b612d028d8c83613f5b565b5b5b7f87d736ddec252f246151c10998db4ad3bb9717bfe77c0dff2e9737b6e44d6df58f8f604051612d35929190615eac565b60405180910390a1505050505060015f8190555050505050505050505050565b6103e842612d639190615448565b811015612da5576040517f08c379a0000000000000000000000000000000000000000000000000000000008152600401612d9c906154d3565b60405180910390fd5b60055f8373ffffffffffffffffffffffffffffffffffffffff1673ffffffffffffffffffffffffffffffffffffffff1681526020019081526020015f205f9054906101000a900460ff16612e2e576040517f08c379a0000000000000000000000000000000000000000000000000000000008152600401612e259061624c565b60405180910390fd5b5f612e8e6002600c811115612e4657612e456154f1565b5b84600254308660015f9054906101000a900463ffffffff16604051602001612e7396959493929190615eda565b60405160208183030381529060405280519060200120613c11565b9050612e9a8482613c40565b5f60055f8573ffffffffffffffffffffffffffffffffffffffff1673ffffffffffffffffffffffffffffffffffffffff1681526020019081526020015f205f6101000a81548160ff021916908315150217905550600160025f828254612f00919061569f565b925050819055505f5b600480549050811015612f9b578373ffffffffffffffffffffffffffffffffffffffff1660048281548110612f4157612f40615f49565b5b905f5260205f20015f9054906101000a900473ffffffffffffffffffffffffffffffffffffffff1673ffffffffffffffffffffffffffffffffffffffff1603612f8e57612f8d816143a0565b5b8080600101915050612f09565b508273ffffffffffffffffffffffffffffffffffffffff167fe1434e25d6611e0db941968fdc97811c982ac1602e951637d206f5fdda9dd8f160405160405180910390a250505050565b60015f9054906101000a900463ffffffff1681565b6003602052805f5260405f205f915054906101000a900460ff1681565b600b8181548110613026575f80fd5b905f5260205f20015f915054906101000a900473ffffffffffffffffffffffffffffffffffffffff1681565b600d602052805f5260405f205f915090505481565b60025481565b6007818154811061307c575f80fd5b905f5260205f20015f915054906101000a900473ffffffffffffffffffffffffffffffffffffffff1681565b6103e8426130b69190615448565b8110156130f8576040517f08c379a00000000000000000000000000000000000000000000000000000000081526004016130ef906154d3565b60405180910390fd5b5f61315a600b600c8111156131105761310f6154f1565b5b8585600254308760015f9054906101000a900463ffffffff1660405160200161313f97969594939291906155b7565b60405160208183030381529060405280519060200120613c11565b90506131668582613c40565b5f600a5f8673ffffffffffffffffffffffffffffffffffffffff1673ffffffffffffffffffffffffffffffffffffffff1681526020019081526020015f205490505f81116131e9576040517f08c379a00000000000000000000000000000000000000000000000000000000081526004016131e090615681565b60405180910390fd5b6131f4858583613f5b565b5f600a5f8773ffffffffffffffffffffffffffffffffffffffff1673ffffffffffffffffffffffffffffffffffffffff1681526020019081526020015f2081905550600160025f828254613248919061569f565b925050819055508473ffffffffffffffffffffffffffffffffffffffff167f8817948ac9390455e8c8613705d20e3ff4b6ce84a88f676930b9cddc3f9caef560405160405180910390a2505050505050565b600f5f9054906101000a900460ff16156132e9576040517f08c379a00000000000000000000000000000000000000000000000000000000081526004016132e09061571c565b60405180910390fd5b60025f540361332d576040517f08c379a000000000000000000000000000000000000000000000000000000000815260040161332490615784565b60405180910390fd5b60025f819055505f3490505f60095f600f60019054906101000a900473ffffffffffffffffffffffffffffffffffffffff1673ffffffffffffffffffffffffffffffffffffffff1673ffffffffffffffffffffffffffffffffffffffff1681526020019081526020015f205411156135825760095f600f60019054906101000a900473ffffffffffffffffffffffffffffffffffffffff1673ffffffffffffffffffffffffffffffffffffffff1673ffffffffffffffffffffffffffffffffffffffff1681526020019081526020015f20548111613440576040517f08c379a000000000000000000000000000000000000000000000000000000000815260040161343790615943565b60405180910390fd5b60095f600f60019054906101000a900473ffffffffffffffffffffffffffffffffffffffff1673ffffffffffffffffffffffffffffffffffffffff1673ffffffffffffffffffffffffffffffffffffffff1681526020019081526020015f2054816134ab9190615961565b905060095f600f60019054906101000a900473ffffffffffffffffffffffffffffffffffffffff1673ffffffffffffffffffffffffffffffffffffffff1673ffffffffffffffffffffffffffffffffffffffff1681526020019081526020015f2054600a5f600f60019054906101000a900473ffffffffffffffffffffffffffffffffffffffff1673ffffffffffffffffffffffffffffffffffffffff1673ffffffffffffffffffffffffffffffffffffffff1681526020019081526020015f205f82825461357a919061569f565b925050819055505b5f61358e826012613fe1565b90505f61359c886012613fe1565b90505f82116135e0576040517f08c379a00000000000000000000000000000000000000000000000000000000081526004016135d790615a6a565b60405180910390fd5b808211613622576040517f08c379a000000000000000000000000000000000000000000000000000000000815260040161361990615af8565b60405180910390fd5b5f61362e836012614051565b846136399190615961565b90505f811115613688573373ffffffffffffffffffffffffffffffffffffffff166108fc8290811502906040515f60405180830381858888f19350505050158015613686573d5f803e3d5ffd5b505b600f60019054906101000a900473ffffffffffffffffffffffffffffffffffffffff1673ffffffffffffffffffffffffffffffffffffffff1663d0e30db082866136d29190615961565b6040518263ffffffff1660e01b81526004015f604051808303818588803b1580156136fb575f80fd5b505af115801561370d573d5f803e3d5ffd5b50505050507f1581ca8f4b4c1e564c6fba30d5d197d6d21974b35147c5e3c896b94b3c9bd12633600f60019054906101000a900473ffffffffffffffffffffffffffffffffffffffff1685858c8c8c6103e84261376a9190615448565b8d60405161378099989796959493929190615b58565b60405180910390a15050505060015f819055505050505050565b600f5f9054906101000a900460ff16156137e9576040517f08c379a00000000000000000000000000000000000000000000000000000000081526004016137e09061571c565b60405180910390fd5b6103e8426137f79190615448565b811015613839576040517f08c379a0000000000000000000000000000000000000000000000000000000008152600401613830906154d3565b60405180910390fd5b5f61389a6007600c811115613851576138506154f1565b5b6001600254308660015f9054906101000a900463ffffffff1660405160200161387f96959493929190615df5565b60405160208183030381529060405280519060200120613c11565b90506138a68382613c40565b6001600f5f6101000a81548160ff021916908315150217905550600160025f8282546138d2919061569f565b925050819055507f6985a02210a168e66602d3235cb6db0e70f92b3ba4d376a33c0f3d9434bff62560405160405180910390a1505050565b6103e8426139189190615448565b81101561395a576040517f08c379a0000000000000000000000000000000000000000000000000000000008152600401613951906154d3565b60405180910390fd5b60085f8373ffffffffffffffffffffffffffffffffffffffff1673ffffffffffffffffffffffffffffffffffffffff1681526020019081526020015f205f9054906101000a900460ff166139e3576040517f08c379a00000000000000000000000000000000000000000000000000000000081526004016139da90615d2a565b60405180910390fd5b5f613a436004600c8111156139fb576139fa6154f1565b5b84600254308660015f9054906101000a900463ffffffff16604051602001613a2896959493929190615eda565b60405160208183030381529060405280519060200120613c11565b9050613a4f8482613c40565b5f60085f8573ffffffffffffffffffffffffffffffffffffffff1673ffffffffffffffffffffffffffffffffffffffff1681526020019081526020015f205f6101000a81548160ff0219169083151502179055505f60095f8573ffffffffffffffffffffffffffffffffffffffff1673ffffffffffffffffffffffffffffffffffffffff1681526020019081526020015f20819055505f5b600780549050811015613b79578373ffffffffffffffffffffffffffffffffffffffff1660078281548110613b1f57613b1e615f49565b5b905f5260205f20015f9054906101000a900473ffffffffffffffffffffffffffffffffffffffff1673ffffffffffffffffffffffffffffffffffffffff1603613b6c57613b6b816144fb565b5b8080600101915050613ae7565b50600160025f828254613b8c919061569f565b925050819055508273ffffffffffffffffffffffffffffffffffffffff167fbea12876694c4055c71f74308f752b9027cf3d554194000a366abddfc239a30660405160405180910390a250505050565b5f600780549050905090565b6005602052805f5260405f205f915054906101000a900460ff1681565b5f600480549050905090565b5f81604051602001613c2391906162d4565b604051602081830303815290604052805190602001209050919050565b6009600a6005600480549050613c569190615448565b613c60919061569f565b613c6a9190616326565b82511015613cad576040517f08c379a0000000000000000000000000000000000000000000000000000000008152600401613ca4906163a0565b60405180910390fd5b5f600190505f835167ffffffffffffffff811115613cce57613ccd614a58565b5b604051908082528060200260200182016040528015613cfc5781602001602082028036833780820191505090505b5090505f5b8451811015613e8d575f613d2f85878481518110613d2257613d21615f49565b5b6020026020010151614656565b905060055f8273ffffffffffffffffffffffffffffffffffffffff1673ffffffffffffffffffffffffffffffffffffffff1681526020019081526020015f205f9054906101000a900460ff168015613dce575060065f8273ffffffffffffffffffffffffffffffffffffffff1673ffffffffffffffffffffffffffffffffffffffff1681526020019081526020015f205f9054906101000a900460ff16155b15613e7b57600160065f8373ffffffffffffffffffffffffffffffffffffffff1673ffffffffffffffffffffffffffffffffffffffff1681526020019081526020015f205f6101000a81548160ff02191690831515021790555080838381518110613e3c57613e3b615f49565b5b602002602001019073ffffffffffffffffffffffffffffffffffffffff16908173ffffffffffffffffffffffffffffffffffffffff1681525050613e7f565b5f93505b508080600101915050613d01565b5081613ece576040517f08c379a0000000000000000000000000000000000000000000000000000000008152600401613ec590616408565b60405180910390fd5b5f5b8151811015613f54575f60065f848481518110613ef057613eef615f49565b5b602002602001015173ffffffffffffffffffffffffffffffffffffffff1673ffffffffffffffffffffffffffffffffffffffff1681526020019081526020015f205f6101000a81548160ff0219169083151502179055508080600101915050613ed0565b5050505050565b613fdc8363a9059cbb60e01b8484604051602401613f7a929190615994565b604051602081830303815290604052907bffffffffffffffffffffffffffffffffffffffffffffffffffffffff19166020820180517bffffffffffffffffffffffffffffffffffffffffffffffffffffffff8381831617835250505050614721565b505050565b5f60088260ff16111561401557600882613ffb9190616426565b600a6140079190616589565b836140129190616326565b92505b60088260ff1610156140485781600861402e9190616426565b600a61403a9190616589565b836140459190615448565b92505b82905092915050565b5f60088260ff1611156140855760088261406b9190616426565b600a6140779190616589565b836140829190615448565b92505b60088260ff1610156140b85781600861409e9190616426565b600a6140aa9190616589565b836140b59190616326565b92505b82905092915050565b614144846323b872dd60e01b8585856040516024016140e2939291906165d3565b604051602081830303815290604052907bffffffffffffffffffffffffffffffffffffffffffffffffffffffff19166020820180517bffffffffffffffffffffffffffffffffffffffffffffffffffffffff8381831617835250505050614721565b50505050565b600b805490508110614191576040517f08c379a000000000000000000000000000000000000000000000000000000000815260040161418890616652565b60405180910390fd5b5f8190505b6001600b805490506141a89190615961565b81101561425d57600b6001826141be919061569f565b815481106141cf576141ce615f49565b5b905f5260205f20015f9054906101000a900473ffffffffffffffffffffffffffffffffffffffff16600b828154811061420b5761420a615f49565b5b905f5260205f20015f6101000a81548173ffffffffffffffffffffffffffffffffffffffff021916908373ffffffffffffffffffffffffffffffffffffffff1602179055508080600101915050614196565b50600b8054806142705761426f616670565b5b600190038181905f5260205f20015f6101000a81549073ffffffffffffffffffffffffffffffffffffffff0219169055905550565b5f8273ffffffffffffffffffffffffffffffffffffffff16825f67ffffffffffffffff8111156142d8576142d7614a58565b5b6040519080825280601f01601f19166020018201604052801561430a5781602001600182028036833780820191505090505b50604051614318919061585c565b5f6040518083038185875af1925050503d805f8114614352576040519150601f19603f3d011682016040523d82523d5f602084013e614357565b606091505b505090508061439b576040517f08c379a00000000000000000000000000000000000000000000000000000000081526004016143929061670d565b60405180910390fd5b505050565b60048054905081106143e7576040517f08c379a00000000000000000000000000000000000000000000000000000000081526004016143de90616652565b60405180910390fd5b5f8190505b60016004805490506143fe9190615961565b8110156144b3576004600182614414919061569f565b8154811061442557614424615f49565b5b905f5260205f20015f9054906101000a900473ffffffffffffffffffffffffffffffffffffffff166004828154811061446157614460615f49565b5b905f5260205f20015f6101000a81548173ffffffffffffffffffffffffffffffffffffffff021916908373ffffffffffffffffffffffffffffffffffffffff16021790555080806001019150506143ec565b5060048054806144c6576144c5616670565b5b600190038181905f5260205f20015f6101000a81549073ffffffffffffffffffffffffffffffffffffffff0219169055905550565b6007805490508110614542576040517f08c379a000000000000000000000000000000000000000000000000000000000815260040161453990616652565b60405180910390fd5b5f8190505b60016007805490506145599190615961565b81101561460e57600760018261456f919061569f565b815481106145805761457f615f49565b5b905f5260205f20015f9054906101000a900473ffffffffffffffffffffffffffffffffffffffff16600782815481106145bc576145bb615f49565b5b905f5260205f20015f6101000a81548173ffffffffffffffffffffffffffffffffffffffff021916908373ffffffffffffffffffffffffffffffffffffffff1602179055508080600101915050614547565b50600780548061462157614620616670565b5b600190038181905f5260205f20015f6101000a81549073ffffffffffffffffffffffffffffffffffffffff0219169055905550565b5f805f80604185511461466e575f935050505061471b565b602085015192506040850151915060608501515f1a9050601b8160ff1610156146a157601b8161469e919061672b565b90505b601b8160ff16141580156146b95750601c8160ff1614155b156146c9575f935050505061471b565b6001868285856040515f81526020016040526040516146eb949392919061677d565b6020604051602081039080840390855afa15801561470b573d5f803e3d5ffd5b5050506020604051035193505050505b92915050565b5f614782826040518060400160405280602081526020017f5361666545524332303a206c6f772d6c6576656c2063616c6c206661696c65648152508573ffffffffffffffffffffffffffffffffffffffff166147e69092919063ffffffff16565b90505f815111156147e157808060200190518101906147a191906167ea565b6147e0576040517f08c379a00000000000000000000000000000000000000000000000000000000081526004016147d790616885565b60405180910390fd5b5b505050565b60606147f484845f856147fd565b90509392505050565b606082471015614842576040517f08c379a000000000000000000000000000000000000000000000000000000000815260040161483990616913565b60405180910390fd5b61484b8561490d565b61488a576040517f08c379a00000000000000000000000000000000000000000000000000000000081526004016148819061697b565b60405180910390fd5b5f808673ffffffffffffffffffffffffffffffffffffffff1685876040516148b2919061585c565b5f6040518083038185875af1925050503d805f81146148ec576040519150601f19603f3d011682016040523d82523d5f602084013e6148f1565b606091505b509150915061490182828661492f565b92505050949350505050565b5f808273ffffffffffffffffffffffffffffffffffffffff163b119050919050565b6060831561493f5782905061498e565b5f835111156149515782518084602001fd5b816040517f08c379a00000000000000000000000000000000000000000000000000000000081526004016149859190616999565b60405180910390fd5b9392505050565b5f82825260208201905092915050565b7f706c65617365207573652077726170416e645472616e7366657245544820746f5f8201527f207472616e736665722045544820746f204b6f696e6f73000000000000000000602082015250565b5f6149ff603783614995565b9150614a0a826149a5565b604082019050919050565b5f6020820190508181035f830152614a2c816149f3565b9050919050565b5f604051905090565b5f80fd5b5f80fd5b5f80fd5b5f601f19601f8301169050919050565b7f4e487b71000000000000000000000000000000000000000000000000000000005f52604160045260245ffd5b614a8e82614a48565b810181811067ffffffffffffffff82111715614aad57614aac614a58565b5b80604052505050565b5f614abf614a33565b9050614acb8282614a85565b919050565b5f67ffffffffffffffff821115614aea57614ae9614a58565b5b602082029050602081019050919050565b5f80fd5b5f80fd5b5f67ffffffffffffffff821115614b1d57614b1c614a58565b5b614b2682614a48565b9050602081019050919050565b828183375f83830152505050565b5f614b53614b4e84614b03565b614ab6565b905082815260208101848484011115614b6f57614b6e614aff565b5b614b7a848285614b33565b509392505050565b5f82601f830112614b9657614b95614a44565b5b8135614ba6848260208601614b41565b91505092915050565b5f614bc1614bbc84614ad0565b614ab6565b90508083825260208201905060208402830185811115614be457614be3614afb565b5b835b81811015614c2b57803567ffffffffffffffff811115614c0957614c08614a44565b5b808601614c168982614b82565b85526020850194505050602081019050614be6565b5050509392505050565b5f82601f830112614c4957614c48614a44565b5b8135614c59848260208601614baf565b91505092915050565b5f73ffffffffffffffffffffffffffffffffffffffff82169050919050565b5f614c8b82614c62565b9050919050565b614c9b81614c81565b8114614ca5575f80fd5b50565b5f81359050614cb681614c92565b92915050565b5f819050919050565b614cce81614cbc565b8114614cd8575f80fd5b50565b5f81359050614ce981614cc5565b92915050565b5f805f8060808587031215614d0757614d06614a3c565b5b5f85013567ffffffffffffffff811115614d2457614d23614a40565b5b614d3087828801614c35565b9450506020614d4187828801614ca8565b9350506040614d5287828801614ca8565b9250506060614d6387828801614cdb565b91505092959194509250565b614d7881614c81565b82525050565b5f602082019050614d915f830184614d6f565b92915050565b5f67ffffffffffffffff821115614db157614db0614a58565b5b614dba82614a48565b9050602081019050919050565b5f614dd9614dd484614d97565b614ab6565b905082815260208101848484011115614df557614df4614aff565b5b614e00848285614b33565b509392505050565b5f82601f830112614e1c57614e1b614a44565b5b8135614e2c848260208601614dc7565b91505092915050565b5f63ffffffff82169050919050565b614e4d81614e35565b8114614e57575f80fd5b50565b5f81359050614e6881614e44565b92915050565b5f805f805f805f60e0888a031215614e8957614e88614a3c565b5b5f614e968a828b01614ca8565b9750506020614ea78a828b01614cdb565b9650506040614eb88a828b01614cdb565b955050606088013567ffffffffffffffff811115614ed957614ed8614a40565b5b614ee58a828b01614e08565b945050608088013567ffffffffffffffff811115614f0657614f05614a40565b5b614f128a828b01614e08565b93505060a088013567ffffffffffffffff811115614f3357614f32614a40565b5b614f3f8a828b01614e08565b92505060c0614f508a828b01614e5a565b91505092959891949750929550565b5f805f8060808587031215614f7757614f76614a3c565b5b5f85013567ffffffffffffffff811115614f9457614f93614a40565b5b614fa087828801614c35565b9450506020614fb187828801614ca8565b9350506040614fc287828801614cdb565b9250506060614fd387828801614cdb565b91505092959194509250565b5f8060408385031215614ff557614ff4614a3c565b5b5f83013567ffffffffffffffff81111561501257615011614a40565b5b61501e85828601614c35565b925050602061502f85828601614cdb565b9150509250929050565b5f6020828403121561504e5761504d614a3c565b5b5f61505b84828501614ca8565b91505092915050565b5f8115159050919050565b61507881615064565b82525050565b5f6020820190506150915f83018461506f565b92915050565b6150a081614cbc565b82525050565b5f6020820190506150b95f830184615097565b92915050565b5f602082840312156150d4576150d3614a3c565b5b5f6150e184828501614cdb565b91505092915050565b5f602082840312156150ff576150fe614a3c565b5b5f82013567ffffffffffffffff81111561511c5761511b614a40565b5b61512884828501614b82565b91505092915050565b5f805f6060848603121561514857615147614a3c565b5b5f84013567ffffffffffffffff81111561516557615164614a40565b5b61517186828701614c35565b935050602061518286828701614ca8565b925050604061519386828701614cdb565b9150509250925092565b5f805f805f805f805f806101408b8d0312156151bc576151bb614a3c565b5b5f8b013567ffffffffffffffff8111156151d9576151d8614a40565b5b6151e58d828e01614b82565b9a505060206151f68d828e01614cdb565b99505060406152078d828e01614ca8565b98505060606152188d828e01614ca8565b97505060806152298d828e01614ca8565b96505060a061523a8d828e01614cdb565b95505060c061524b8d828e01614cdb565b94505060e08b013567ffffffffffffffff81111561526c5761526b614a40565b5b6152788d828e01614c35565b9350506101008b013567ffffffffffffffff81111561529a57615299614a40565b5b6152a68d828e01614e08565b9250506101206152b88d828e01614cdb565b9150509295989b9194979a5092959850565b6152d381614e35565b82525050565b5f6020820190506152ec5f8301846152ca565b92915050565b5f819050919050565b615304816152f2565b811461530e575f80fd5b50565b5f8135905061531f816152fb565b92915050565b5f6020828403121561533a57615339614a3c565b5b5f61534784828501615311565b91505092915050565b5f805f805f60a0868803121561536957615368614a3c565b5b5f61537688828901614cdb565b955050602086013567ffffffffffffffff81111561539757615396614a40565b5b6153a388828901614e08565b945050604086013567ffffffffffffffff8111156153c4576153c3614a40565b5b6153d088828901614e08565b935050606086013567ffffffffffffffff8111156153f1576153f0614a40565b5b6153fd88828901614e08565b925050608061540e88828901614e5a565b9150509295509295909350565b7f4e487b71000000000000000000000000000000000000000000000000000000005f52601160045260245ffd5b5f61545282614cbc565b915061545d83614cbc565b925082820261546b81614cbc565b915082820484148315176154825761548161541b565b5b5092915050565b7f65787069726564207369676e61747572657300000000000000000000000000005f82015250565b5f6154bd601283614995565b91506154c882615489565b602082019050919050565b5f6020820190508181035f8301526154ea816154b1565b9050919050565b7f4e487b71000000000000000000000000000000000000000000000000000000005f52602160045260245ffd5b5f819050919050565b61553861553382614cbc565b61551e565b82525050565b5f8160601b9050919050565b5f6155548261553e565b9050919050565b5f6155658261554a565b9050919050565b61557d61557882614c81565b61555b565b82525050565b5f8160e01b9050919050565b5f61559982615583565b9050919050565b6155b16155ac82614e35565b61558f565b82525050565b5f6155c2828a615527565b6020820191506155d2828961556c565b6014820191506155e2828861556c565b6014820191506155f28287615527565b602082019150615602828661556c565b6014820191506156128285615527565b60208201915061562282846155a0565b60048201915081905098975050505050505050565b7f62616c616e6365206d7573742062652067726561746572207468616e203000005f82015250565b5f61566b601e83614995565b915061567682615637565b602082019050919050565b5f6020820190508181035f8301526156988161565f565b9050919050565b5f6156a982614cbc565b91506156b483614cbc565b92508282019050808211156156cc576156cb61541b565b5b92915050565b7f42726964676520697320706175736564000000000000000000000000000000005f82015250565b5f615706601083614995565b9150615711826156d2565b602082019050919050565b5f6020820190508181035f830152615733816156fa565b9050919050565b7f5265656e7472616e637947756172643a207265656e7472616e742063616c6c005f82015250565b5f61576e601f83614995565b91506157798261573a565b602082019050919050565b5f6020820190508181035f83015261579b81615762565b9050919050565b7f746f6b656e206973206e6f7420737570706f72746564000000000000000000005f82015250565b5f6157d6601683614995565b91506157e1826157a2565b602082019050919050565b5f6020820190508181035f830152615803816157ca565b9050919050565b5f81519050919050565b5f81905092915050565b8281835e5f83830152505050565b5f6158368261580a565b6158408185615814565b935061585081856020860161581e565b80840191505092915050565b5f615867828461582c565b915081905092915050565b5f60ff82169050919050565b61588781615872565b8114615891575f80fd5b50565b5f815190506158a28161587e565b92915050565b5f602082840312156158bd576158bc614a3c565b5b5f6158ca84828501615894565b91505092915050565b7f616d6f756e74206d7573742062652067726561746572207468616e20666565205f8201527f6f66206272696467650000000000000000000000000000000000000000000000602082015250565b5f61592d602983614995565b9150615938826158d3565b604082019050919050565b5f6020820190508181035f83015261595a81615921565b9050919050565b5f61596b82614cbc565b915061597683614cbc565b925082820390508181111561598e5761598d61541b565b5b92915050565b5f6040820190506159a75f830185614d6f565b6159b46020830184615097565b9392505050565b5f815190506159c981614cc5565b92915050565b5f602082840312156159e4576159e3614a3c565b5b5f6159f1848285016159bb565b91505092915050565b7f6e6f726d616c697a6564416d6f756e7420616d6f756e74206d757374206265205f8201527f67726561746572207468616e2030000000000000000000000000000000000000602082015250565b5f615a54602e83614995565b9150615a5f826159fa565b604082019050919050565b5f6020820190508181035f830152615a8181615a48565b9050919050565b7f6e6f726d616c697a6564416d6f756e7420616d6f756e74206d757374206265205f8201527f67726561746572207468616e206e6f726d616c697a65645061796d656e740000602082015250565b5f615ae2603e83614995565b9150615aed82615a88565b604082019050919050565b5f6020820190508181035f830152615b0f81615ad6565b9050919050565b5f81519050919050565b5f615b2a82615b16565b615b348185614995565b9350615b4481856020860161581e565b615b4d81614a48565b840191505092915050565b5f61012082019050615b6c5f83018c614d6f565b615b79602083018b614d6f565b615b86604083018a615097565b615b936060830189615097565b8181036080830152615ba58188615b20565b905081810360a0830152615bb98187615b20565b905081810360c0830152615bcd8186615b20565b9050615bdc60e0830185615097565b615bea6101008301846152ca565b9a9950505050505050505050565b7f546f6b656e20616c7265616479206578697374730000000000000000000000005f82015250565b5f615c2c601483614995565b9150615c3782615bf8565b602082019050919050565b5f6020820190508181035f830152615c5981615c20565b9050919050565b5f615c6b828a615527565b602082019150615c7b828961556c565b601482019150615c8b8288615527565b602082019150615c9b8287615527565b602082019150615cab828661556c565b601482019150615cbb8285615527565b602082019150615ccb82846155a0565b60048201915081905098975050505050505050565b7f546f6b656e20646f6573206e6f742065786973740000000000000000000000005f82015250565b5f615d14601483614995565b9150615d1f82615ce0565b602082019050919050565b5f6020820190508181035f830152615d4181615d08565b9050919050565b7f427269646765206973206e6f74207061757365640000000000000000000000005f82015250565b5f615d7c601483614995565b9150615d8782615d48565b602082019050919050565b5f6020820190508181035f830152615da981615d70565b9050919050565b5f8160f81b9050919050565b5f615dc682615db0565b9050919050565b5f615dd782615dbc565b9050919050565b615def615dea82615064565b615dcd565b82525050565b5f615e008289615527565b602082019150615e108288615dde565b600182019150615e208287615527565b602082019150615e30828661556c565b601482019150615e408285615527565b602082019150615e5082846155a0565b600482019150819050979650505050505050565b5f82825260208201905092915050565b5f615e7e8261580a565b615e888185615e64565b9350615e9881856020860161581e565b615ea181614a48565b840191505092915050565b5f6040820190508181035f830152615ec48185615e74565b9050615ed36020830184615097565b9392505050565b5f615ee58289615527565b602082019150615ef5828861556c565b601482019150615f058287615527565b602082019150615f15828661556c565b601482019150615f258285615527565b602082019150615f3582846155a0565b600482019150819050979650505050505050565b7f4e487b71000000000000000000000000000000000000000000000000000000005f52603260045260245ffd5b7f56616c696461746f7220616c72656164792065786973747300000000000000005f82015250565b5f615faa601883614995565b9150615fb582615f76565b602082019050919050565b5f6020820190508181035f830152615fd781615f9e565b9050919050565b7f746f6b656e732063616e206f6e6c7920626520636c61696d65642062792074685f8201527f6520726563697069656e74206f722072656c6179657200000000000000000000602082015250565b5f616038603683614995565b915061604382615fde565b604082019050919050565b5f6020820190508181035f8301526160658161602c565b9050919050565b5f81905092915050565b5f61608082615b16565b61608a818561606c565b935061609a81856020860161581e565b80840191505092915050565b5f6160b1828f615527565b6020820191506160c1828e61582c565b91506160cd828d615527565b6020820191506160dd828c61556c565b6014820191506160ed828b61556c565b6014820191506160fd828a61556c565b60148201915061610d8289615527565b60208201915061611d8288615527565b60208201915061612d8287616076565b9150616139828661556c565b6014820191506161498285615527565b60208201915061615982846155a0565b6004820191508190509d9c50505050505050505050505050565b5f61617e828561582c565b915061618a8284615527565b6020820191508190509392505050565b7f7472616e7366657220616c726561647920636f6d706c657465640000000000005f82015250565b5f6161ce601a83614995565b91506161d98261619a565b602082019050919050565b5f6020820190508181035f8301526161fb816161c2565b9050919050565b7f56616c696461746f7220646f6573206e6f7420657869737400000000000000005f82015250565b5f616236601883614995565b915061624182616202565b602082019050919050565b5f6020820190508181035f8301526162638161622a565b9050919050565b7f19457468657265756d205369676e6564204d6573736167653a0a3332000000005f82015250565b5f61629e601c8361606c565b91506162a98261626a565b601c82019050919050565b5f819050919050565b6162ce6162c9826152f2565b6162b4565b82525050565b5f6162de82616292565b91506162ea82846162bd565b60208201915081905092915050565b7f4e487b71000000000000000000000000000000000000000000000000000000005f52601260045260245ffd5b5f61633082614cbc565b915061633b83614cbc565b92508261634b5761634a6162f9565b5b828204905092915050565b7f71756f72756d206e6f74206d65740000000000000000000000000000000000005f82015250565b5f61638a600e83614995565b915061639582616356565b602082019050919050565b5f6020820190508181035f8301526163b78161637e565b9050919050565b7f696e76616c6964207369676e61747572657300000000000000000000000000005f82015250565b5f6163f2601283614995565b91506163fd826163be565b602082019050919050565b5f6020820190508181035f83015261641f816163e6565b9050919050565b5f61643082615872565b915061643b83615872565b9250828203905060ff8111156164545761645361541b565b5b92915050565b5f8160011c9050919050565b5f808291508390505b60018511156164af5780860481111561648b5761648a61541b565b5b600185161561649a5780820291505b80810290506164a88561645a565b945061646f565b94509492505050565b5f826164c75760019050616582565b816164d4575f9050616582565b81600181146164ea57600281146164f457616523565b6001915050616582565b60ff8411156165065761650561541b565b5b8360020a91508482111561651d5761651c61541b565b5b50616582565b5060208310610133831016604e8410600b84101617156165585782820a9050838111156165535761655261541b565b5b616582565b6165658484846001616466565b9250905081840481111561657c5761657b61541b565b5b81810290505b9392505050565b5f61659382614cbc565b915061659e83615872565b92506165cb7fffffffffffffffffffffffffffffffffffffffffffffffffffffffffffffffff84846164b8565b905092915050565b5f6060820190506165e65f830186614d6f565b6165f36020830185614d6f565b6166006040830184615097565b949350505050565b7f696e646578206f7574206f6620626f756e6400000000000000000000000000005f82015250565b5f61663c601283614995565b915061664782616608565b602082019050919050565b5f6020820190508181035f83015261666981616630565b9050919050565b7f4e487b71000000000000000000000000000000000000000000000000000000005f52603160045260245ffd5b7f736166655472616e736665724554483a20455448207472616e736665722066615f8201527f696c656400000000000000000000000000000000000000000000000000000000602082015250565b5f6166f7602483614995565b91506167028261669d565b604082019050919050565b5f6020820190508181035f830152616724816166eb565b9050919050565b5f61673582615872565b915061674083615872565b9250828201905060ff8111156167595761675861541b565b5b92915050565b616768816152f2565b82525050565b61677781615872565b82525050565b5f6080820190506167905f83018761675f565b61679d602083018661676e565b6167aa604083018561675f565b6167b7606083018461675f565b95945050505050565b6167c981615064565b81146167d3575f80fd5b50565b5f815190506167e4816167c0565b92915050565b5f602082840312156167ff576167fe614a3c565b5b5f61680c848285016167d6565b91505092915050565b7f5361666545524332303a204552433230206f7065726174696f6e20646964206e5f8201527f6f74207375636365656400000000000000000000000000000000000000000000602082015250565b5f61686f602a83614995565b915061687a82616815565b604082019050919050565b5f6020820190508181035f83015261689c81616863565b9050919050565b7f416464726573733a20696e73756666696369656e742062616c616e636520666f5f8201527f722063616c6c0000000000000000000000000000000000000000000000000000602082015250565b5f6168fd602683614995565b9150616908826168a3565b604082019050919050565b5f6020820190508181035f83015261692a816168f1565b9050919050565b7f416464726573733a2063616c6c20746f206e6f6e2d636f6e74726163740000005f82015250565b5f616965601d83614995565b915061697082616931565b602082019050919050565b5f6020820190508181035f83015261699281616959565b9050919050565b5f6020820190508181035f8301526169b18184615b20565b90509291505056fea2646970667358221220f313d39a76e3e6c8af17c21d32853c7ff97d224f5d0e37650dbc3d76a0cfca3864736f6c63430008190033",
  "linkReferences": {},
  "deployedLinkReferences": {}
}