{
  "_format": "hh-sol-artifact-1",
  "contractName": "Bridge",
  "sourceName": "contracts/Bridge.sol",
  "abi": [
    {
      "inputs": [
        {
          "internalType": "address[]",
          "name": "initialValidators",
          "type": "address[]"
        },
        {
          "internalType": "address",
          "name": "WETHAddress_",
          "type": "address"
        },
        {
          "internalType": "uint256",
          "name": "feeWETH",
          "type": "uint256"
        },
        {
          "internalType": "uint32",
          "name": "_chainId",
          "type": "uint32"
        }
      ],
      "stateMutability": "nonpayable",
      "type": "constructor"
    },
    {
      "anonymous": false,
      "inputs": [],
      "name": "Pause",
      "type": "event"
    },
    {
      "anonymous": false,
      "inputs": [
        {
          "indexed": false,
          "internalType": "bytes",
          "name": "txId",
          "type": "bytes"
        },
        {
          "indexed": false,
          "internalType": "uint256",
          "name": "blocktime",
          "type": "uint256"
        }
      ],
      "name": "RequestNewSignaturesEvent",
      "type": "event"
    },
    {
      "anonymous": false,
      "inputs": [
        {
          "indexed": true,
          "internalType": "address",
          "name": "token",
          "type": "address"
        }
      ],
      "name": "SupportedTokenAdded",
      "type": "event"
    },
    {
      "anonymous": false,
      "inputs": [
        {
          "indexed": true,
          "internalType": "address",
          "name": "token",
          "type": "address"
        }
      ],
      "name": "SupportedTokenRemoved",
      "type": "event"
    },
    {
      "anonymous": false,
      "inputs": [
        {
          "indexed": true,
          "internalType": "address",
          "name": "token",
          "type": "address"
        }
      ],
      "name": "SupportedTokenSetFee",
      "type": "event"
    },
    {
      "anonymous": false,
      "inputs": [
        {
          "indexed": true,
          "internalType": "address",
          "name": "token",
          "type": "address"
        }
      ],
      "name": "SupportedWrappedTokenAdded",
      "type": "event"
    },
    {
      "anonymous": false,
      "inputs": [
        {
          "indexed": true,
          "internalType": "address",
          "name": "token",
          "type": "address"
        }
      ],
      "name": "SupportedWrappedTokenRemoved",
      "type": "event"
    },
    {
      "anonymous": false,
      "inputs": [
        {
          "indexed": true,
          "internalType": "address",
          "name": "token",
          "type": "address"
        }
      ],
      "name": "SupportedWrappedTokenSetFee",
      "type": "event"
    },
    {
      "anonymous": false,
      "inputs": [
        {
          "indexed": false,
          "internalType": "address",
          "name": "from",
          "type": "address"
        },
        {
          "indexed": false,
          "internalType": "address",
          "name": "token",
          "type": "address"
        },
        {
          "indexed": false,
          "internalType": "uint256",
          "name": "amount",
          "type": "uint256"
        },
        {
          "indexed": false,
          "internalType": "string",
          "name": "recipient",
          "type": "string"
        },
        {
          "indexed": false,
          "internalType": "uint256",
          "name": "blocktime",
          "type": "uint256"
        },
        {
          "indexed": false,
          "internalType": "uint32",
          "name": "chain",
          "type": "uint32"
        }
      ],
      "name": "TokensLockedEvent",
      "type": "event"
    },
    {
      "anonymous": false,
      "inputs": [
        {
          "indexed": false,
          "internalType": "bytes",
          "name": "txId",
          "type": "bytes"
        },
        {
          "indexed": false,
          "internalType": "uint256",
          "name": "operationId",
          "type": "uint256"
        }
      ],
      "name": "TransferCompletedEvent",
      "type": "event"
    },
    {
      "anonymous": false,
      "inputs": [],
      "name": "Unpause",
      "type": "event"
    },
    {
      "anonymous": false,
      "inputs": [
        {
          "indexed": true,
          "internalType": "address",
          "name": "validator",
          "type": "address"
        }
      ],
      "name": "ValidatorAdded",
      "type": "event"
    },
    {
      "anonymous": false,
      "inputs": [
        {
          "indexed": true,
          "internalType": "address",
          "name": "validator",
          "type": "address"
        }
      ],
      "name": "ValidatorRemoved",
      "type": "event"
    },
    {
      "stateMutability": "payable",
      "type": "fallback"
    },
    {
      "inputs": [
        {
          "internalType": "bytes",
          "name": "txId",
          "type": "bytes"
        }
      ],
      "name": "RequestNewSignatures",
      "outputs": [],
      "stateMutability": "nonpayable",
      "type": "function"
    },
    {
      "inputs": [],
      "name": "WETHAddress",
      "outputs": [
        {
          "internalType": "address",
          "name": "",
          "type": "address"
        }
      ],
      "stateMutability": "view",
      "type": "function"
    },
    {
      "inputs": [
        {
          "internalType": "bytes[]",
          "name": "signatures",
          "type": "bytes[]"
        },
        {
          "internalType": "address",
          "name": "token",
          "type": "address"
        },
        {
          "internalType": "uint256",
          "name": "fee",
          "type": "uint256"
        },
        {
          "internalType": "uint256",
          "name": "expiration",
          "type": "uint256"
        }
      ],
      "name": "addSupportedToken",
      "outputs": [],
      "stateMutability": "nonpayable",
      "type": "function"
    },
    {
      "inputs": [
        {
          "internalType": "bytes[]",
          "name": "signatures",
          "type": "bytes[]"
        },
        {
          "internalType": "address",
          "name": "token",
          "type": "address"
        },
        {
          "internalType": "uint256",
          "name": "fee",
          "type": "uint256"
        },
        {
          "internalType": "uint256",
          "name": "expiration",
          "type": "uint256"
        }
      ],
      "name": "addSupportedWrappedToken",
      "outputs": [],
      "stateMutability": "nonpayable",
      "type": "function"
    },
    {
      "inputs": [
        {
          "internalType": "bytes[]",
          "name": "signatures",
          "type": "bytes[]"
        },
        {
          "internalType": "address",
          "name": "validator",
          "type": "address"
        },
        {
          "internalType": "uint256",
          "name": "expiration",
          "type": "uint256"
        }
      ],
      "name": "addValidator",
      "outputs": [],
      "stateMutability": "nonpayable",
      "type": "function"
    },
    {
      "inputs": [],
      "name": "chainId",
      "outputs": [
        {
          "internalType": "uint32",
          "name": "",
          "type": "uint32"
        }
      ],
      "stateMutability": "view",
      "type": "function"
    },
    {
      "inputs": [
        {
          "internalType": "bytes",
          "name": "txId",
          "type": "bytes"
        },
        {
          "internalType": "uint256",
          "name": "operationId",
          "type": "uint256"
        },
        {
          "internalType": "address",
          "name": "token",
          "type": "address"
        },
        {
          "internalType": "address",
          "name": "relayer",
          "type": "address"
        },
        {
          "internalType": "address",
          "name": "recipient",
          "type": "address"
        },
        {
          "internalType": "uint256",
          "name": "value",
          "type": "uint256"
        },
        {
          "internalType": "bytes[]",
          "name": "signatures",
          "type": "bytes[]"
        },
        {
          "internalType": "uint256",
          "name": "expiration",
          "type": "uint256"
        }
      ],
      "name": "completeTransfer",
      "outputs": [],
      "stateMutability": "nonpayable",
      "type": "function"
    },
    {
      "inputs": [],
      "name": "feeAmount",
      "outputs": [
        {
          "internalType": "uint256",
          "name": "",
          "type": "uint256"
        }
      ],
      "stateMutability": "view",
      "type": "function"
    },
    {
      "inputs": [
        {
          "internalType": "address",
          "name": "",
          "type": "address"
        }
      ],
      "name": "feeSupportedToken",
      "outputs": [
        {
          "internalType": "uint256",
          "name": "",
          "type": "uint256"
        }
      ],
      "stateMutability": "view",
      "type": "function"
    },
    {
      "inputs": [
        {
          "internalType": "address",
          "name": "",
          "type": "address"
        }
      ],
      "name": "feeSupportedWrappedToken",
      "outputs": [
        {
          "internalType": "uint256",
          "name": "",
          "type": "uint256"
        }
      ],
      "stateMutability": "view",
      "type": "function"
    },
    {
      "inputs": [],
      "name": "feeTo",
      "outputs": [
        {
          "internalType": "address",
          "name": "",
          "type": "address"
        }
      ],
      "stateMutability": "view",
      "type": "function"
    },
    {
      "inputs": [],
      "name": "getFeeAddress",
      "outputs": [
        {
          "internalType": "address",
          "name": "",
          "type": "address"
        }
      ],
      "stateMutability": "view",
      "type": "function"
    },
    {
      "inputs": [],
      "name": "getFeeAmount",
      "outputs": [
        {
          "internalType": "uint256",
          "name": "",
          "type": "uint256"
        }
      ],
      "stateMutability": "view",
      "type": "function"
    },
    {
      "inputs": [],
      "name": "getSupportedTokensLength",
      "outputs": [
        {
          "internalType": "uint256",
          "name": "",
          "type": "uint256"
        }
      ],
      "stateMutability": "view",
      "type": "function"
    },
    {
      "inputs": [],
      "name": "getSupportedWrappedTokensLength",
      "outputs": [
        {
          "internalType": "uint256",
          "name": "",
          "type": "uint256"
        }
      ],
      "stateMutability": "view",
      "type": "function"
    },
    {
      "inputs": [],
      "name": "getValidatorsLength",
      "outputs": [
        {
          "internalType": "uint256",
          "name": "",
          "type": "uint256"
        }
      ],
      "stateMutability": "view",
      "type": "function"
    },
    {
      "inputs": [
        {
          "internalType": "address",
          "name": "",
          "type": "address"
        }
      ],
      "name": "isSupportedToken",
      "outputs": [
        {
          "internalType": "bool",
          "name": "",
          "type": "bool"
        }
      ],
      "stateMutability": "view",
      "type": "function"
    },
    {
      "inputs": [
        {
          "internalType": "address",
          "name": "",
          "type": "address"
        }
      ],
      "name": "isSupportedWrappedToken",
      "outputs": [
        {
          "internalType": "bool",
          "name": "",
          "type": "bool"
        }
      ],
      "stateMutability": "view",
      "type": "function"
    },
    {
      "inputs": [
        {
          "internalType": "bytes32",
          "name": "",
          "type": "bytes32"
        }
      ],
      "name": "isTransferCompleted",
      "outputs": [
        {
          "internalType": "bool",
          "name": "",
          "type": "bool"
        }
      ],
      "stateMutability": "view",
      "type": "function"
    },
    {
      "inputs": [
        {
          "internalType": "address",
          "name": "",
          "type": "address"
        }
      ],
      "name": "isValidator",
      "outputs": [
        {
          "internalType": "bool",
          "name": "",
          "type": "bool"
        }
      ],
      "stateMutability": "view",
      "type": "function"
    },
    {
      "inputs": [],
      "name": "nonce",
      "outputs": [
        {
          "internalType": "uint256",
          "name": "",
          "type": "uint256"
        }
      ],
      "stateMutability": "view",
      "type": "function"
    },
    {
      "inputs": [
        {
          "internalType": "bytes[]",
          "name": "signatures",
          "type": "bytes[]"
        },
        {
          "internalType": "uint256",
          "name": "expiration",
          "type": "uint256"
        }
      ],
      "name": "pause",
      "outputs": [],
      "stateMutability": "nonpayable",
      "type": "function"
    },
    {
      "inputs": [],
      "name": "paused",
      "outputs": [
        {
          "internalType": "bool",
          "name": "",
          "type": "bool"
        }
      ],
      "stateMutability": "view",
      "type": "function"
    },
    {
      "inputs": [
        {
          "internalType": "bytes[]",
          "name": "signatures",
          "type": "bytes[]"
        },
        {
          "internalType": "address",
          "name": "token",
          "type": "address"
        },
        {
          "internalType": "uint256",
          "name": "expiration",
          "type": "uint256"
        }
      ],
      "name": "removeSupportedToken",
      "outputs": [],
      "stateMutability": "nonpayable",
      "type": "function"
    },
    {
      "inputs": [
        {
          "internalType": "bytes[]",
          "name": "signatures",
          "type": "bytes[]"
        },
        {
          "internalType": "address",
          "name": "token",
          "type": "address"
        },
        {
          "internalType": "uint256",
          "name": "expiration",
          "type": "uint256"
        }
      ],
      "name": "removeSupportedWrappedToken",
      "outputs": [],
      "stateMutability": "nonpayable",
      "type": "function"
    },
    {
      "inputs": [
        {
          "internalType": "bytes[]",
          "name": "signatures",
          "type": "bytes[]"
        },
        {
          "internalType": "address",
          "name": "validator",
          "type": "address"
        },
        {
          "internalType": "uint256",
          "name": "expiration",
          "type": "uint256"
        }
      ],
      "name": "removeValidator",
      "outputs": [],
      "stateMutability": "nonpayable",
      "type": "function"
    },
    {
      "inputs": [
        {
          "internalType": "bytes[]",
          "name": "signatures",
          "type": "bytes[]"
        },
        {
          "internalType": "address",
          "name": "token",
          "type": "address"
        },
        {
          "internalType": "uint256",
          "name": "fee",
          "type": "uint256"
        },
        {
          "internalType": "uint256",
          "name": "expiration",
          "type": "uint256"
        }
      ],
      "name": "setFeeSupportedToken",
      "outputs": [],
      "stateMutability": "nonpayable",
      "type": "function"
    },
    {
      "inputs": [
        {
          "internalType": "bytes[]",
          "name": "signatures",
          "type": "bytes[]"
        },
        {
          "internalType": "address",
          "name": "token",
          "type": "address"
        },
        {
          "internalType": "uint256",
          "name": "fee",
          "type": "uint256"
        },
        {
          "internalType": "uint256",
          "name": "expiration",
          "type": "uint256"
        }
      ],
      "name": "setFeeSupportedWrappedToken",
      "outputs": [],
      "stateMutability": "nonpayable",
      "type": "function"
    },
    {
      "inputs": [
        {
          "internalType": "bytes[]",
          "name": "signatures",
          "type": "bytes[]"
        },
        {
          "internalType": "address",
          "name": "_feeTo",
          "type": "address"
        },
        {
          "internalType": "uint256",
          "name": "_feeAmount",
          "type": "uint256"
        },
        {
          "internalType": "uint256",
          "name": "expiration",
          "type": "uint256"
        }
      ],
      "name": "setFeeTo",
      "outputs": [],
      "stateMutability": "nonpayable",
      "type": "function"
    },
    {
      "inputs": [
        {
          "internalType": "uint256",
          "name": "",
          "type": "uint256"
        }
      ],
      "name": "supportedTokens",
      "outputs": [
        {
          "internalType": "address",
          "name": "",
          "type": "address"
        }
      ],
      "stateMutability": "view",
      "type": "function"
    },
    {
      "inputs": [
        {
          "internalType": "uint256",
          "name": "",
          "type": "uint256"
        }
      ],
      "name": "supportedWrappedTokens",
      "outputs": [
        {
          "internalType": "address",
          "name": "",
          "type": "address"
        }
      ],
      "stateMutability": "view",
      "type": "function"
    },
    {
      "inputs": [
        {
          "internalType": "address",
          "name": "token",
          "type": "address"
        },
        {
          "internalType": "uint256",
          "name": "amount",
          "type": "uint256"
        },
        {
          "internalType": "uint32",
          "name": "toChain",
          "type": "uint32"
        },
        {
          "internalType": "string",
          "name": "recipient",
          "type": "string"
        }
      ],
      "name": "transferTokens",
      "outputs": [],
      "stateMutability": "nonpayable",
      "type": "function"
    },
    {
      "inputs": [
        {
          "internalType": "bytes[]",
          "name": "signatures",
          "type": "bytes[]"
        },
        {
          "internalType": "uint256",
          "name": "expiration",
          "type": "uint256"
        }
      ],
      "name": "unpause",
      "outputs": [],
      "stateMutability": "nonpayable",
      "type": "function"
    },
    {
      "inputs": [
        {
          "internalType": "uint256",
          "name": "",
          "type": "uint256"
        }
      ],
      "name": "validators",
      "outputs": [
        {
          "internalType": "address",
          "name": "",
          "type": "address"
        }
      ],
      "stateMutability": "view",
      "type": "function"
    },
    {
      "inputs": [
        {
          "internalType": "string",
          "name": "recipient",
          "type": "string"
        },
        {
          "internalType": "uint32",
          "name": "toChain",
          "type": "uint32"
        }
      ],
      "name": "wrapAndTransferETH",
      "outputs": [],
      "stateMutability": "payable",
      "type": "function"
    },
    {
      "stateMutability": "payable",
      "type": "receive"
    }
  ],
  "bytecode": "0x608060405260016002556000600f60006101000a81548160ff0219169083151502179055503480156200003157600080fd5b5060405162006ed038038062006ed0833981810160405281019062000057919062000502565b60016000819055506000845111620000a6576040517f08c379a00000000000000000000000000000000000000000000000000000000081526004016200009d90620005fc565b60405180910390fd5b60005b8451811015620002ce576000858281518110620000ef577f4e487b7100000000000000000000000000000000000000000000000000000000600052603260045260246000fd5b60200260200101519050600073ffffffffffffffffffffffffffffffffffffffff168173ffffffffffffffffffffffffffffffffffffffff1614156200016c576040517f08c379a000000000000000000000000000000000000000000000000000000000815260040162000163906200061e565b60405180910390fd5b600660008273ffffffffffffffffffffffffffffffffffffffff1673ffffffffffffffffffffffffffffffffffffffff16815260200190815260200160002060009054906101000a900460ff1615620001fc576040517f08c379a0000000000000000000000000000000000000000000000000000000008152600401620001f39062000640565b60405180910390fd5b6001600660008373ffffffffffffffffffffffffffffffffffffffff1673ffffffffffffffffffffffffffffffffffffffff16815260200190815260200160002060006101000a81548160ff0219169083151502179055506005819080600181540180825580915050600190039060005260206000200160009091909190916101000a81548173ffffffffffffffffffffffffffffffffffffffff021916908373ffffffffffffffffffffffffffffffffffffffff160217905550508080620002c5906200074f565b915050620000a9565b5082600f60016101000a81548173ffffffffffffffffffffffffffffffffffffffff021916908373ffffffffffffffffffffffffffffffffffffffff1602179055506001600b6000600f60019054906101000a900473ffffffffffffffffffffffffffffffffffffffff1673ffffffffffffffffffffffffffffffffffffffff1673ffffffffffffffffffffffffffffffffffffffff16815260200190815260200160002060006101000a81548160ff02191690831515021790555081600c6000600f60019054906101000a900473ffffffffffffffffffffffffffffffffffffffff1673ffffffffffffffffffffffffffffffffffffffff1673ffffffffffffffffffffffffffffffffffffffff1681526020019081526020016000208190555080600160006101000a81548163ffffffff021916908363ffffffff16021790555050505050620008d5565b6000620004326200042c846200068b565b62000662565b905080838252602082019050828560208602820111156200045257600080fd5b60005b858110156200048657816200046b888262000490565b84526020840193506020830192505060018101905062000455565b5050509392505050565b600081519050620004a18162000887565b92915050565b600082601f830112620004b957600080fd5b8151620004cb8482602086016200041b565b91505092915050565b600081519050620004e581620008a1565b92915050565b600081519050620004fc81620008bb565b92915050565b600080600080608085870312156200051957600080fd5b600085015167ffffffffffffffff8111156200053457600080fd5b6200054287828801620004a7565b9450506020620005558782880162000490565b93505060406200056887828801620004d4565b92505060606200057b87828801620004eb565b91505092959194509250565b600062000596601383620006ba565b9150620005a3826200080c565b602082019050919050565b6000620005bd601183620006ba565b9150620005ca8262000835565b602082019050919050565b6000620005e4601483620006ba565b9150620005f1826200085e565b602082019050919050565b60006020820190508181036000830152620006178162000587565b9050919050565b600060208201905081810360008301526200063981620005ae565b9050919050565b600060208201905081810360008301526200065b81620005d5565b9050919050565b60006200066e62000681565b90506200067c828262000719565b919050565b6000604051905090565b600067ffffffffffffffff821115620006a957620006a8620007cc565b5b602082029050602081019050919050565b600082825260208201905092915050565b6000620006d882620006df565b9050919050565b600073ffffffffffffffffffffffffffffffffffffffff82169050919050565b6000819050919050565b600063ffffffff82169050919050565b6200072482620007fb565b810181811067ffffffffffffffff82111715620007465762000745620007cc565b5b80604052505050565b60006200075c82620006ff565b91507fffffffffffffffffffffffffffffffffffffffffffffffffffffffffffffffff8214156200079257620007916200079d565b5b600182019050919050565b7f4e487b7100000000000000000000000000000000000000000000000000000000600052601160045260246000fd5b7f4e487b7100000000000000000000000000000000000000000000000000000000600052604160045260246000fd5b6000601f19601f8301169050919050565b7f56616c696461746f727320726571756972656400000000000000000000000000600082015250565b7f496e76616c69642076616c696461746f72000000000000000000000000000000600082015250565b7f56616c696461746f72206e6f7420756e69717565000000000000000000000000600082015250565b6200089281620006cb565b81146200089e57600080fd5b50565b620008ac81620006ff565b8114620008b857600080fd5b50565b620008c68162000709565b8114620008d257600080fd5b50565b6165eb80620008e56000396000f3fe6080604052600436106102085760003560e01c80637725dfe811610118578063bf0aae2e116100a0578063e91f04201161006f578063e91f0420146107f6578063ef69b68f1461081f578063f960cd6b14610848578063facd743b14610873578063ff7a071b146108b057610248565b8063bf0aae2e14610749578063bf5c982214610765578063c625562614610790578063db917ff0146107cd57610248565b8063aa4efa5b116100e7578063aa4efa5b1461063e578063ae5f87271461067b578063ae6b9bf9146106b8578063affed0e0146106f5578063b2481c6c1461072057610248565b80637725dfe8146105965780637a5332e0146105c157806388b2a80a146105ea5780639a8a05921461061357610248565b806335aa2e441161019b578063594807ad1161016a578063594807ad146104c55780635c975abb146104ee5780635d62263b1461051957806369e154041461054257806375be86421461056d57610248565b806335aa2e441461040b578063493d8280146104485780634e7ceacb14610471578063574b561c1461049c57610248565b80631cd775bb116101d75780631cd775bb1461032b578063201efb3f14610354578063240028e8146103915780632d45e2db146103ce57610248565b8063017e7e58146102835780630af88b24146102ae5780630be244ae146102d957806318ee2b411461030257610248565b36610248576040517f08c379a000000000000000000000000000000000000000000000000000000000815260040161023f906159bd565b60405180910390fd5b6040517f08c379a000000000000000000000000000000000000000000000000000000000815260040161027a906159bd565b60405180910390fd5b34801561028f57600080fd5b506102986108db565b6040516102a59190615668565b60405180910390f35b3480156102ba57600080fd5b506102c3610901565b6040516102d09190615668565b60405180910390f35b3480156102e557600080fd5b5061030060048036038101906102fb9190614c42565b610927565b005b34801561030e57600080fd5b5061032960048036038101906103249190614c42565b610bfd565b005b34801561033757600080fd5b50610352600480360381019061034d9190614cbd565b610e16565b005b34801561036057600080fd5b5061037b60048036038101906103769190614b37565b610fcb565b604051610388919061574b565b60405180910390f35b34801561039d57600080fd5b506103b860048036038101906103b39190614b37565b610feb565b6040516103c5919061574b565b60405180910390f35b3480156103da57600080fd5b506103f560048036038101906103f09190614b37565b61100b565b6040516104029190615a7d565b60405180910390f35b34801561041757600080fd5b50610432600480360381019061042d9190614eda565b611023565b60405161043f9190615668565b60405180910390f35b34801561045457600080fd5b5061046f600480360381019061046a9190614d63565b611062565b005b34801561047d57600080fd5b506104866110fb565b6040516104939190615668565b60405180910390f35b3480156104a857600080fd5b506104c360048036038101906104be9190614da4565b611125565b005b3480156104d157600080fd5b506104ec60048036038101906104e79190614c42565b611b1d565b005b3480156104fa57600080fd5b50610503611d37565b604051610510919061574b565b60405180910390f35b34801561052557600080fd5b50610540600480360381019061053b9190614bdb565b611d4a565b005b34801561054e57600080fd5b50610557612080565b6040516105649190615a7d565b60405180910390f35b34801561057957600080fd5b50610594600480360381019061058f9190614bdb565b612086565b005b3480156105a257600080fd5b506105ab612315565b6040516105b89190615a7d565b60405180910390f35b3480156105cd57600080fd5b506105e860048036038101906105e39190614c42565b612322565b005b3480156105f657600080fd5b50610611600480360381019061060c9190614bdb565b6125f8565b005b34801561061f57600080fd5b506106286128e9565b6040516106359190615a98565b60405180910390f35b34801561064a57600080fd5b5061066560048036038101906106609190614d3a565b6128ff565b604051610672919061574b565b60405180910390f35b34801561068757600080fd5b506106a2600480360381019061069d9190614eda565b61291f565b6040516106af9190615668565b60405180910390f35b3480156106c457600080fd5b506106df60048036038101906106da9190614b37565b61295e565b6040516106ec9190615a7d565b60405180910390f35b34801561070157600080fd5b5061070a612976565b6040516107179190615a7d565b60405180910390f35b34801561072c57600080fd5b5061074760048036038101906107429190614b60565b61297c565b005b610763600480360381019061075e9190614e86565b613035565b005b34801561077157600080fd5b5061077a6132a2565b6040516107879190615a7d565b60405180910390f35b34801561079c57600080fd5b506107b760048036038101906107b29190614eda565b6132ac565b6040516107c49190615668565b60405180910390f35b3480156107d957600080fd5b506107f460048036038101906107ef9190614c42565b6132eb565b005b34801561080257600080fd5b5061081d60048036038101906108189190614cbd565b61341a565b005b34801561082b57600080fd5b5061084660048036038101906108419190614bdb565b6135b5565b005b34801561085457600080fd5b5061085d6138eb565b60405161086a9190615a7d565b60405180910390f35b34801561087f57600080fd5b5061089a60048036038101906108959190614b37565b6138f8565b6040516108a7919061574b565b60405180910390f35b3480156108bc57600080fd5b506108c5613918565b6040516108d29190615a7d565b60405180910390f35b600360009054906101000a900473ffffffffffffffffffffffffffffffffffffffff1681565b600f60019054906101000a900473ffffffffffffffffffffffffffffffffffffffff1681565b6103e8426109359190615de3565b811015610977576040517f08c379a000000000000000000000000000000000000000000000000000000000815260040161096e9061585d565b60405180910390fd5b600860008473ffffffffffffffffffffffffffffffffffffffff1673ffffffffffffffffffffffffffffffffffffffff16815260200190815260200160002060009054906101000a900460ff1615610a04576040517f08c379a00000000000000000000000000000000000000000000000000000000081526004016109fb9061583d565b60405180910390fd5b6000610a8e6005600b811115610a43577f4e487b7100000000000000000000000000000000000000000000000000000000600052602160045260246000fd5b85856002543087600160009054906101000a900463ffffffff16604051602001610a739796959493929190615479565b60405160208183030381529060405280519060200120613925565b9050610a9a8582613955565b6001600860008673ffffffffffffffffffffffffffffffffffffffff1673ffffffffffffffffffffffffffffffffffffffff16815260200190815260200160002060006101000a81548160ff02191690831515021790555082600960008673ffffffffffffffffffffffffffffffffffffffff1673ffffffffffffffffffffffffffffffffffffffff16815260200190815260200160002081905550600a849080600181540180825580915050600190039060005260206000200160009091909190916101000a81548173ffffffffffffffffffffffffffffffffffffffff021916908373ffffffffffffffffffffffffffffffffffffffff160217905550600160026000828254610bac9190615bb4565b925050819055508373ffffffffffffffffffffffffffffffffffffffff167f73ef58e3c2e3da95dfd8fd7f3d28c23b072dba3484a5b53a196bc592056ceb1f60405160405180910390a25050505050565b6103e842610c0b9190615de3565b811015610c4d576040517f08c379a0000000000000000000000000000000000000000000000000000000008152600401610c449061585d565b60405180910390fd5b600860008473ffffffffffffffffffffffffffffffffffffffff1673ffffffffffffffffffffffffffffffffffffffff16815260200190815260200160002060009054906101000a900460ff16610cd9576040517f08c379a0000000000000000000000000000000000000000000000000000000008152600401610cd09061587d565b60405180910390fd5b6000610d62600b80811115610d17577f4e487b7100000000000000000000000000000000000000000000000000000000600052602160045260246000fd5b85856002543087600160009054906101000a900463ffffffff16604051602001610d479796959493929190615479565b60405160208183030381529060405280519060200120613925565b9050610d6e8582613955565b82600960008673ffffffffffffffffffffffffffffffffffffffff1673ffffffffffffffffffffffffffffffffffffffff16815260200190815260200160002081905550600160026000828254610dc59190615bb4565b925050819055508373ffffffffffffffffffffffffffffffffffffffff167ffa4f9d629b2e9b1e242787d02cec64d10b889b1e369cbed9be9e0d6a8547430060405160405180910390a25050505050565b600f60009054906101000a900460ff16610e65576040517f08c379a0000000000000000000000000000000000000000000000000000000008152600401610e5c906158bd565b60405180910390fd5b6103e842610e739190615de3565b811015610eb5576040517f08c379a0000000000000000000000000000000000000000000000000000000008152600401610eac9061585d565b60405180910390fd5b6000610f3e6007600b811115610ef4577f4e487b7100000000000000000000000000000000000000000000000000000000600052602160045260246000fd5b60006002543086600160009054906101000a900463ffffffff16604051602001610f2396959493929190615559565b60405160208183030381529060405280519060200120613925565b9050610f4a8382613955565b6001600f60006101000a81548160ff021916908315150217905550600160026000828254610f789190615bb4565b925050819055506000600f60006101000a81548160ff0219169083151502179055507f7805862f689e2f13df9f062ff482ad3ad112aca9e0847911ed832e158c525b3360405160405180910390a1505050565b60086020528060005260406000206000915054906101000a900460ff1681565b600b6020528060005260406000206000915054906101000a900460ff1681565b600c6020528060005260406000206000915090505481565b6005818154811061103357600080fd5b906000526020600020016000915054906101000a900473ffffffffffffffffffffffffffffffffffffffff1681565b600f60009054906101000a900460ff16156110b2576040517f08c379a00000000000000000000000000000000000000000000000000000000081526004016110a9906157fd565b60405180910390fd5b7f41f9d865e9570fc2c0097e4bcdf9738724c95a54729d01e0e51ae983b3d0fcaf816103e8426110e29190615de3565b6040516110f09291906157ab565b60405180910390a150565b6000600360009054906101000a900473ffffffffffffffffffffffffffffffffffffffff16905090565b600f60009054906101000a900460ff1615611175576040517f08c379a000000000000000000000000000000000000000000000000000000000815260040161116c906157fd565b60405180910390fd5b600260005414156111bb576040517f08c379a00000000000000000000000000000000000000000000000000000000081526004016111b290615a3d565b60405180910390fd5b60026000819055506103e8426111d19190615de3565b811015611213576040517f08c379a000000000000000000000000000000000000000000000000000000000815260040161120a9061585d565b60405180910390fd5b600860008773ffffffffffffffffffffffffffffffffffffffff1673ffffffffffffffffffffffffffffffffffffffff16815260200190815260200160002060009054906101000a900460ff16806112b45750600b60008773ffffffffffffffffffffffffffffffffffffffff1673ffffffffffffffffffffffffffffffffffffffff16815260200190815260200160002060009054906101000a900460ff165b6112f3576040517f08c379a00000000000000000000000000000000000000000000000000000000081526004016112ea906158dd565b60405180910390fd5b600061137f6008600b811115611332577f4e487b7100000000000000000000000000000000000000000000000000000000600052602160045260246000fd5b8a8a8a89893089600160009054906101000a900463ffffffff16604051602001611364999897969594939291906155c9565b60405160208183030381529060405280519060200120613925565b905060006113b48a8a6040516020016113999291906153bb565b60405160208183030381529060405280519060200120613925565b9050600e600082815260200190815260200160002060009054906101000a900460ff1615611417576040517f08c379a000000000000000000000000000000000000000000000000000000000815260040161140e9061591d565b60405180910390fd5b6001600e600083815260200190815260200160002060006101000a81548160ff02191690831515021790555061144d8483613955565b60008873ffffffffffffffffffffffffffffffffffffffff166040516024016040516020818303038152906040527f313ce567000000000000000000000000000000000000000000000000000000007bffffffffffffffffffffffffffffffffffffffffffffffffffffffff19166020820180517bffffffffffffffffffffffffffffffffffffffffffffffffffffffff83818316178352505050506040516114f691906153a4565b600060405180830381855afa9150503d8060008114611531576040519150601f19603f3d011682016040523d82523d6000602084013e611536565b606091505b509150506000818060200190518101906115509190614f2c565b9050600061155e8883613d26565b9050600860008c73ffffffffffffffffffffffffffffffffffffffff1673ffffffffffffffffffffffffffffffffffffffff16815260200190815260200160002060009054906101000a900460ff1615611730576000600960008d73ffffffffffffffffffffffffffffffffffffffff1673ffffffffffffffffffffffffffffffffffffffff168152602001908152602001600020549050818110611638576040517f08c379a000000000000000000000000000000000000000000000000000000000815260040161162f9061581d565b60405180910390fd5b60008111156116bd578b73ffffffffffffffffffffffffffffffffffffffff166340c10f198c836040518363ffffffff1660e01b815260040161167c929190615722565b600060405180830381600087803b15801561169657600080fd5b505af11580156116aa573d6000803e3d6000fd5b5050505080826116ba9190615e3d565b91505b8b73ffffffffffffffffffffffffffffffffffffffff166340c10f198b846040518363ffffffff1660e01b81526004016116f8929190615722565b600060405180830381600087803b15801561171257600080fd5b505af1158015611726573d6000803e3d6000fd5b5050505050611acd565b600f60019054906101000a900473ffffffffffffffffffffffffffffffffffffffff1673ffffffffffffffffffffffffffffffffffffffff168b73ffffffffffffffffffffffffffffffffffffffff16141561197057600f60019054906101000a900473ffffffffffffffffffffffffffffffffffffffff1673ffffffffffffffffffffffffffffffffffffffff16632e1a7d4d826040518263ffffffff1660e01b81526004016117e19190615a7d565b600060405180830381600087803b1580156117fb57600080fd5b505af115801561180f573d6000803e3d6000fd5b505050506000600c60008d73ffffffffffffffffffffffffffffffffffffffff1673ffffffffffffffffffffffffffffffffffffffff168152602001908152602001600020549050818110611899576040517f08c379a00000000000000000000000000000000000000000000000000000000081526004016118909061581d565b60405180910390fd5b60008111156118bb576118ac8b82613d97565b80826118b89190615e3d565b91505b6000600360009054906101000a900473ffffffffffffffffffffffffffffffffffffffff169050600073ffffffffffffffffffffffffffffffffffffffff168173ffffffffffffffffffffffffffffffffffffffff161415801561192157506000600454115b1561195f576000612710846004546119399190615de3565b6119439190615c41565b905061194f8282613d97565b808461195b9190615e3d565b9350505b6119698b84613d97565b5050611acc565b6000600c60008d73ffffffffffffffffffffffffffffffffffffffff1673ffffffffffffffffffffffffffffffffffffffff1681526020019081526020016000205490508181106119f6576040517f08c379a00000000000000000000000000000000000000000000000000000000081526004016119ed9061581d565b60405180910390fd5b6000811115611a1957611a0a8c8c83613ebd565b8082611a169190615e3d565b91505b6000600360009054906101000a900473ffffffffffffffffffffffffffffffffffffffff169050600073ffffffffffffffffffffffffffffffffffffffff168173ffffffffffffffffffffffffffffffffffffffff1614158015611a7f57506000600454115b15611abe57600061271084600454611a979190615de3565b611aa19190615c41565b9050611aae8e8383613ebd565b8084611aba9190615e3d565b9350505b611ac98d8c85613ebd565b50505b5b7f87d736ddec252f246151c10998db4ad3bb9717bfe77c0dff2e9737b6e44d6df58d8d604051611afe9291906157ab565b60405180910390a1505050505060016000819055505050505050505050565b6103e842611b2b9190615de3565b811015611b6d576040517f08c379a0000000000000000000000000000000000000000000000000000000008152600401611b649061585d565b60405180910390fd5b600b60008473ffffffffffffffffffffffffffffffffffffffff1673ffffffffffffffffffffffffffffffffffffffff16815260200190815260200160002060009054906101000a900460ff16611bf9576040517f08c379a0000000000000000000000000000000000000000000000000000000008152600401611bf09061587d565b60405180910390fd5b6000611c83600a600b811115611c38577f4e487b7100000000000000000000000000000000000000000000000000000000600052602160045260246000fd5b85856002543087600160009054906101000a900463ffffffff16604051602001611c689796959493929190615479565b60405160208183030381529060405280519060200120613925565b9050611c8f8582613955565b82600c60008673ffffffffffffffffffffffffffffffffffffffff1673ffffffffffffffffffffffffffffffffffffffff16815260200190815260200160002081905550600160026000828254611ce69190615bb4565b925050819055508373ffffffffffffffffffffffffffffffffffffffff167f69ab3b10537df3859684a1256f9aca42b36af54bf2461136199b2f6eb0a2f1cf60405160405180910390a25050505050565b600f60009054906101000a900460ff1681565b6103e842611d589190615de3565b811015611d9a576040517f08c379a0000000000000000000000000000000000000000000000000000000008152600401611d919061585d565b60405180910390fd5b600860008373ffffffffffffffffffffffffffffffffffffffff1673ffffffffffffffffffffffffffffffffffffffff16815260200190815260200160002060009054906101000a900460ff16611e26576040517f08c379a0000000000000000000000000000000000000000000000000000000008152600401611e1d9061587d565b60405180910390fd5b6000611eae6006600b811115611e65577f4e487b7100000000000000000000000000000000000000000000000000000000600052602160045260246000fd5b846002543086600160009054906101000a900463ffffffff16604051602001611e9396959493929190615409565b60405160208183030381529060405280519060200120613925565b9050611eba8482613955565b6000600860008573ffffffffffffffffffffffffffffffffffffffff1673ffffffffffffffffffffffffffffffffffffffff16815260200190815260200160002060006101000a81548160ff0219169083151502179055506000600960008573ffffffffffffffffffffffffffffffffffffffff1673ffffffffffffffffffffffffffffffffffffffff1681526020019081526020016000208190555060005b600a8054905081101561201c578373ffffffffffffffffffffffffffffffffffffffff16600a8281548110611fb8577f4e487b7100000000000000000000000000000000000000000000000000000000600052603260045260246000fd5b9060005260206000200160009054906101000a900473ffffffffffffffffffffffffffffffffffffffff1673ffffffffffffffffffffffffffffffffffffffff1614156120095761200881613f43565b5b808061201490615f87565b915050611f5a565b506001600260008282546120309190615bb4565b925050819055508273ffffffffffffffffffffffffffffffffffffffff167fc4d7c78b5869618497de798f19809c2d74b2afca7a1190ca9544ad256f35a3c760405160405180910390a250505050565b60045481565b6103e8426120949190615de3565b8110156120d6576040517f08c379a00000000000000000000000000000000000000000000000000000000081526004016120cd9061585d565b60405180910390fd5b600660008373ffffffffffffffffffffffffffffffffffffffff1673ffffffffffffffffffffffffffffffffffffffff16815260200190815260200160002060009054906101000a900460ff1615612163576040517f08c379a000000000000000000000000000000000000000000000000000000000815260040161215a90615a5d565b60405180910390fd5b60006121eb6001600b8111156121a2577f4e487b7100000000000000000000000000000000000000000000000000000000600052602160045260246000fd5b846002543086600160009054906101000a900463ffffffff166040516020016121d096959493929190615409565b60405160208183030381529060405280519060200120613925565b90506121f78482613955565b6001600660008573ffffffffffffffffffffffffffffffffffffffff1673ffffffffffffffffffffffffffffffffffffffff16815260200190815260200160002060006101000a81548160ff0219169083151502179055506005839080600181540180825580915050600190039060005260206000200160009091909190916101000a81548173ffffffffffffffffffffffffffffffffffffffff021916908373ffffffffffffffffffffffffffffffffffffffff1602179055506001600260008282546122c59190615bb4565b925050819055508273ffffffffffffffffffffffffffffffffffffffff167fe366c1c0452ed8eec96861e9e54141ebff23c9ec89fe27b996b45f5ec388498760405160405180910390a250505050565b6000600a80549050905090565b6103e8426123309190615de3565b811015612372576040517f08c379a00000000000000000000000000000000000000000000000000000000081526004016123699061585d565b60405180910390fd5b600b60008473ffffffffffffffffffffffffffffffffffffffff1673ffffffffffffffffffffffffffffffffffffffff16815260200190815260200160002060009054906101000a900460ff16156123ff576040517f08c379a00000000000000000000000000000000000000000000000000000000081526004016123f69061583d565b60405180910390fd5b60006124896003600b81111561243e577f4e487b7100000000000000000000000000000000000000000000000000000000600052602160045260246000fd5b85856002543087600160009054906101000a900463ffffffff1660405160200161246e9796959493929190615479565b60405160208183030381529060405280519060200120613925565b90506124958582613955565b6001600b60008673ffffffffffffffffffffffffffffffffffffffff1673ffffffffffffffffffffffffffffffffffffffff16815260200190815260200160002060006101000a81548160ff02191690831515021790555082600c60008673ffffffffffffffffffffffffffffffffffffffff1673ffffffffffffffffffffffffffffffffffffffff16815260200190815260200160002081905550600d849080600181540180825580915050600190039060005260206000200160009091909190916101000a81548173ffffffffffffffffffffffffffffffffffffffff021916908373ffffffffffffffffffffffffffffffffffffffff1602179055506001600260008282546125a79190615bb4565b925050819055508373ffffffffffffffffffffffffffffffffffffffff167fd1be2e90bd3d24839d9dd94ad871068e1f9688b02fa43f2a62c9975dfa9de2d760405160405180910390a25050505050565b6103e8426126069190615de3565b811015612648576040517f08c379a000000000000000000000000000000000000000000000000000000000815260040161263f9061585d565b60405180910390fd5b600660008373ffffffffffffffffffffffffffffffffffffffff1673ffffffffffffffffffffffffffffffffffffffff16815260200190815260200160002060009054906101000a900460ff166126d4576040517f08c379a00000000000000000000000000000000000000000000000000000000081526004016126cb9061597d565b60405180910390fd5b600061275c6002600b811115612713577f4e487b7100000000000000000000000000000000000000000000000000000000600052602160045260246000fd5b846002543086600160009054906101000a900463ffffffff1660405160200161274196959493929190615409565b60405160208183030381529060405280519060200120613925565b90506127688482613955565b6000600660008573ffffffffffffffffffffffffffffffffffffffff1673ffffffffffffffffffffffffffffffffffffffff16815260200190815260200160002060006101000a81548160ff0219169083151502179055506001600260008282546127d39190615bb4565b9250508190555060005b60058054905081101561289f578373ffffffffffffffffffffffffffffffffffffffff166005828154811061283b577f4e487b7100000000000000000000000000000000000000000000000000000000600052603260045260246000fd5b9060005260206000200160009054906101000a900473ffffffffffffffffffffffffffffffffffffffff1673ffffffffffffffffffffffffffffffffffffffff16141561288c5761288b81614120565b5b808061289790615f87565b9150506127dd565b508273ffffffffffffffffffffffffffffffffffffffff167fe1434e25d6611e0db941968fdc97811c982ac1602e951637d206f5fdda9dd8f160405160405180910390a250505050565b600160009054906101000a900463ffffffff1681565b600e6020528060005260406000206000915054906101000a900460ff1681565b600a818154811061292f57600080fd5b906000526020600020016000915054906101000a900473ffffffffffffffffffffffffffffffffffffffff1681565b60096020528060005260406000206000915090505481565b60025481565b600f60009054906101000a900460ff16156129cc576040517f08c379a00000000000000000000000000000000000000000000000000000000081526004016129c3906157fd565b60405180910390fd5b60026000541415612a12576040517f08c379a0000000000000000000000000000000000000000000000000000000008152600401612a0990615a3d565b60405180910390fd5b6002600081905550600860008573ffffffffffffffffffffffffffffffffffffffff1673ffffffffffffffffffffffffffffffffffffffff16815260200190815260200160002060009054906101000a900460ff1680612abb5750600b60008573ffffffffffffffffffffffffffffffffffffffff1673ffffffffffffffffffffffffffffffffffffffff16815260200190815260200160002060009054906101000a900460ff165b612afa576040517f08c379a0000000000000000000000000000000000000000000000000000000008152600401612af1906158dd565b60405180910390fd5b600860008573ffffffffffffffffffffffffffffffffffffffff1673ffffffffffffffffffffffffffffffffffffffff16815260200190815260200160002060009054906101000a900460ff1615612bca57612b58843330866142fd565b8373ffffffffffffffffffffffffffffffffffffffff16639dc29fac30856040518363ffffffff1660e01b8152600401612b93929190615722565b600060405180830381600087803b158015612bad57600080fd5b505af1158015612bc1573d6000803e3d6000fd5b50505050612e80565b60008473ffffffffffffffffffffffffffffffffffffffff166370a0823160e01b30604051602401612bfc9190615668565b604051602081830303815290604052907bffffffffffffffffffffffffffffffffffffffffffffffffffffffff19166020820180517bffffffffffffffffffffffffffffffffffffffffffffffffffffffff8381831617835250505050604051612c6691906153a4565b600060405180830381855afa9150503d8060008114612ca1576040519150601f19603f3d011682016040523d82523d6000602084013e612ca6565b606091505b50915050600081806020019051810190612cc09190614f03565b90506000600360009054906101000a900473ffffffffffffffffffffffffffffffffffffffff169050600073ffffffffffffffffffffffffffffffffffffffff168173ffffffffffffffffffffffffffffffffffffffff1614158015612d2857506000600454115b15612d6857600061271087600454612d409190615de3565b612d4a9190615c41565b9050612d58883384846142fd565b8087612d649190615e3d565b9650505b612d74873330896142fd565b60008773ffffffffffffffffffffffffffffffffffffffff166370a0823160e01b30604051602401612da69190615668565b604051602081830303815290604052907bffffffffffffffffffffffffffffffffffffffffffffffffffffffff19166020820180517bffffffffffffffffffffffffffffffffffffffffffffffffffffffff8381831617835250505050604051612e1091906153a4565b600060405180830381855afa9150503d8060008114612e4b576040519150601f19603f3d011682016040523d82523d6000602084013e612e50565b606091505b50915050600081806020019051810190612e6a9190614f03565b90508381612e789190615e3d565b975050505050505b60008473ffffffffffffffffffffffffffffffffffffffff166040516024016040516020818303038152906040527f313ce567000000000000000000000000000000000000000000000000000000007bffffffffffffffffffffffffffffffffffffffffffffffffffffffff19166020820180517bffffffffffffffffffffffffffffffffffffffffffffffffffffffff8381831617835250505050604051612f2991906153a4565b600060405180830381855afa9150503d8060008114612f64576040519150601f19603f3d011682016040523d82523d6000602084013e612f69565b606091505b50915050600081806020019051810190612f839190614f2c565b90506000612f918683614386565b905060008111612fd6576040517f08c379a0000000000000000000000000000000000000000000000000000000008152600401612fcd9061599d565b60405180910390fd5b7fb40d137518e1e5006f29da78c4c45a0ecf9f9b8784978106e294bfae0ac53af2338883876103e8426130099190615de3565b8a60405161301c969594939291906156ba565b60405180910390a1505050600160008190555050505050565b600f60009054906101000a900460ff1615613085576040517f08c379a000000000000000000000000000000000000000000000000000000000815260040161307c906157fd565b60405180910390fd5b600260005414156130cb576040517f08c379a00000000000000000000000000000000000000000000000000000000081526004016130c290615a3d565b60405180910390fd5b6002600081905550600034905060006130e5826012614386565b90506000811161312a576040517f08c379a00000000000000000000000000000000000000000000000000000000081526004016131219061599d565b60405180910390fd5b6000613137826012613d26565b836131429190615e3d565b90506000811115613195573373ffffffffffffffffffffffffffffffffffffffff166108fc829081150290604051600060405180830381858888f19350505050158015613193573d6000803e3d6000fd5b505b600f60019054906101000a900473ffffffffffffffffffffffffffffffffffffffff1673ffffffffffffffffffffffffffffffffffffffff1663d0e30db082856131df9190615e3d565b6040518263ffffffff1660e01b81526004016000604051808303818588803b15801561320a57600080fd5b505af115801561321e573d6000803e3d6000fd5b50505050507fb40d137518e1e5006f29da78c4c45a0ecf9f9b8784978106e294bfae0ac53af233600f60019054906101000a900473ffffffffffffffffffffffffffffffffffffffff1684886103e8426132789190615de3565b8960405161328b969594939291906156ba565b60405180910390a150505060016000819055505050565b6000600454905090565b600d81815481106132bc57600080fd5b906000526020600020016000915054906101000a900473ffffffffffffffffffffffffffffffffffffffff1681565b6103e8426132f99190615de3565b81101561333b576040517f08c379a00000000000000000000000000000000000000000000000000000000081526004016133329061585d565b60405180910390fd5b60006133bf6009600b81111561337a577f4e487b7100000000000000000000000000000000000000000000000000000000600052602160045260246000fd5b858585600160009054906101000a900463ffffffff166040516020016133a49594939291906154fa565b60405160208183030381529060405280519060200120613925565b90506133cb8582613955565b83600360006101000a81548173ffffffffffffffffffffffffffffffffffffffff021916908373ffffffffffffffffffffffffffffffffffffffff160217905550826004819055505050505050565b600f60009054906101000a900460ff161561346a576040517f08c379a0000000000000000000000000000000000000000000000000000000008152600401613461906157fd565b60405180910390fd5b6103e8426134789190615de3565b8110156134ba576040517f08c379a00000000000000000000000000000000000000000000000000000000081526004016134b19061585d565b60405180910390fd5b60006135436007600b8111156134f9577f4e487b7100000000000000000000000000000000000000000000000000000000600052602160045260246000fd5b60016002543086600160009054906101000a900463ffffffff1660405160200161352896959493929190615559565b60405160208183030381529060405280519060200120613925565b905061354f8382613955565b6001600f60006101000a81548160ff02191690831515021790555060016002600082825461357d9190615bb4565b925050819055507f6985a02210a168e66602d3235cb6db0e70f92b3ba4d376a33c0f3d9434bff62560405160405180910390a1505050565b6103e8426135c39190615de3565b811015613605576040517f08c379a00000000000000000000000000000000000000000000000000000000081526004016135fc9061585d565b60405180910390fd5b600b60008373ffffffffffffffffffffffffffffffffffffffff1673ffffffffffffffffffffffffffffffffffffffff16815260200190815260200160002060009054906101000a900460ff16613691576040517f08c379a00000000000000000000000000000000000000000000000000000000081526004016136889061587d565b60405180910390fd5b60006137196004600b8111156136d0577f4e487b7100000000000000000000000000000000000000000000000000000000600052602160045260246000fd5b846002543086600160009054906101000a900463ffffffff166040516020016136fe96959493929190615409565b60405160208183030381529060405280519060200120613925565b90506137258482613955565b6000600b60008573ffffffffffffffffffffffffffffffffffffffff1673ffffffffffffffffffffffffffffffffffffffff16815260200190815260200160002060006101000a81548160ff0219169083151502179055506000600c60008573ffffffffffffffffffffffffffffffffffffffff1673ffffffffffffffffffffffffffffffffffffffff1681526020019081526020016000208190555060005b600d80549050811015613887578373ffffffffffffffffffffffffffffffffffffffff16600d8281548110613823577f4e487b7100000000000000000000000000000000000000000000000000000000600052603260045260246000fd5b9060005260206000200160009054906101000a900473ffffffffffffffffffffffffffffffffffffffff1673ffffffffffffffffffffffffffffffffffffffff16141561387457613873816143f7565b5b808061387f90615f87565b9150506137c5565b5060016002600082825461389b9190615bb4565b925050819055508273ffffffffffffffffffffffffffffffffffffffff167fbea12876694c4055c71f74308f752b9027cf3d554194000a366abddfc239a30660405160405180910390a250505050565b6000600d80549050905090565b60066020528060005260406000206000915054906101000a900460ff1681565b6000600580549050905090565b60008160405160200161393891906153e3565b604051602081830303815290604052805190602001209050919050565b6009600a6005808054905061396a9190615de3565b6139749190615bb4565b61397e9190615c41565b825110156139c1576040517f08c379a00000000000000000000000000000000000000000000000000000000081526004016139b8906158fd565b60405180910390fd5b6000600190506000835167ffffffffffffffff811115613a0a577f4e487b7100000000000000000000000000000000000000000000000000000000600052604160045260246000fd5b604051908082528060200260200182016040528015613a385781602001602082028036833780820191505090505b50905060005b8451811015613c27576000613a9385878481518110613a86577f4e487b7100000000000000000000000000000000000000000000000000000000600052603260045260246000fd5b60200260200101516145d4565b9050600660008273ffffffffffffffffffffffffffffffffffffffff1673ffffffffffffffffffffffffffffffffffffffff16815260200190815260200160002060009054906101000a900460ff168015613b385750600760008273ffffffffffffffffffffffffffffffffffffffff1673ffffffffffffffffffffffffffffffffffffffff16815260200190815260200160002060009054906101000a900460ff16155b15613c0e576001600760008373ffffffffffffffffffffffffffffffffffffffff1673ffffffffffffffffffffffffffffffffffffffff16815260200190815260200160002060006101000a81548160ff02191690831515021790555080838381518110613bcf577f4e487b7100000000000000000000000000000000000000000000000000000000600052603260045260246000fd5b602002602001019073ffffffffffffffffffffffffffffffffffffffff16908173ffffffffffffffffffffffffffffffffffffffff1681525050613c13565b600093505b508080613c1f90615f87565b915050613a3e565b5081613c68576040517f08c379a0000000000000000000000000000000000000000000000000000000008152600401613c5f9061595d565b60405180910390fd5b60005b8151811015613d1f57600060076000848481518110613cb3577f4e487b7100000000000000000000000000000000000000000000000000000000600052603260045260246000fd5b602002602001015173ffffffffffffffffffffffffffffffffffffffff1673ffffffffffffffffffffffffffffffffffffffff16815260200190815260200160002060006101000a81548160ff0219169083151502179055508080613d1790615f87565b915050613c6b565b5050505050565b600060088260ff161115613d5b57600882613d419190615e71565b600a613d4d9190615cc5565b83613d589190615de3565b92505b60088260ff161015613d8e57816008613d749190615e71565b600a613d809190615cc5565b83613d8b9190615c41565b92505b82905092915050565b60008273ffffffffffffffffffffffffffffffffffffffff1682600067ffffffffffffffff811115613df2577f4e487b7100000000000000000000000000000000000000000000000000000000600052604160045260246000fd5b6040519080825280601f01601f191660200182016040528015613e245781602001600182028036833780820191505090505b50604051613e3291906153a4565b60006040518083038185875af1925050503d8060008114613e6f576040519150601f19603f3d011682016040523d82523d6000602084013e613e74565b606091505b5050905080613eb8576040517f08c379a0000000000000000000000000000000000000000000000000000000008152600401613eaf906159fd565b60405180910390fd5b505050565b613f3e8363a9059cbb60e01b8484604051602401613edc929190615722565b604051602081830303815290604052907bffffffffffffffffffffffffffffffffffffffffffffffffffffffff19166020820180517bffffffffffffffffffffffffffffffffffffffffffffffffffffffff83818316178352505050506146a7565b505050565b600a805490508110613f8a576040517f08c379a0000000000000000000000000000000000000000000000000000000008152600401613f819061593d565b60405180910390fd5b60008190505b6001600a80549050613fa29190615e3d565b8110156140af57600a600182613fb89190615bb4565b81548110613fef577f4e487b7100000000000000000000000000000000000000000000000000000000600052603260045260246000fd5b9060005260206000200160009054906101000a900473ffffffffffffffffffffffffffffffffffffffff16600a8281548110614054577f4e487b7100000000000000000000000000000000000000000000000000000000600052603260045260246000fd5b9060005260206000200160006101000a81548173ffffffffffffffffffffffffffffffffffffffff021916908373ffffffffffffffffffffffffffffffffffffffff16021790555080806140a790615f87565b915050613f90565b50600a8054806140e8577f4e487b7100000000000000000000000000000000000000000000000000000000600052603160045260246000fd5b6001900381819060005260206000200160006101000a81549073ffffffffffffffffffffffffffffffffffffffff0219169055905550565b6005805490508110614167576040517f08c379a000000000000000000000000000000000000000000000000000000000815260040161415e9061593d565b60405180910390fd5b60008190505b600160058054905061417f9190615e3d565b81101561428c5760056001826141959190615bb4565b815481106141cc577f4e487b7100000000000000000000000000000000000000000000000000000000600052603260045260246000fd5b9060005260206000200160009054906101000a900473ffffffffffffffffffffffffffffffffffffffff1660058281548110614231577f4e487b7100000000000000000000000000000000000000000000000000000000600052603260045260246000fd5b9060005260206000200160006101000a81548173ffffffffffffffffffffffffffffffffffffffff021916908373ffffffffffffffffffffffffffffffffffffffff160217905550808061428490615f87565b91505061416d565b5060058054806142c5577f4e487b7100000000000000000000000000000000000000000000000000000000600052603160045260246000fd5b6001900381819060005260206000200160006101000a81549073ffffffffffffffffffffffffffffffffffffffff0219169055905550565b614380846323b872dd60e01b85858560405160240161431e93929190615683565b604051602081830303815290604052907bffffffffffffffffffffffffffffffffffffffffffffffffffffffff19166020820180517bffffffffffffffffffffffffffffffffffffffffffffffffffffffff83818316178352505050506146a7565b50505050565b600060088260ff1611156143bb576008826143a19190615e71565b600a6143ad9190615cc5565b836143b89190615c41565b92505b60088260ff1610156143ee578160086143d49190615e71565b600a6143e09190615cc5565b836143eb9190615de3565b92505b82905092915050565b600d80549050811061443e576040517f08c379a00000000000000000000000000000000000000000000000000000000081526004016144359061593d565b60405180910390fd5b60008190505b6001600d805490506144569190615e3d565b81101561456357600d60018261446c9190615bb4565b815481106144a3577f4e487b7100000000000000000000000000000000000000000000000000000000600052603260045260246000fd5b9060005260206000200160009054906101000a900473ffffffffffffffffffffffffffffffffffffffff16600d8281548110614508577f4e487b7100000000000000000000000000000000000000000000000000000000600052603260045260246000fd5b9060005260206000200160006101000a81548173ffffffffffffffffffffffffffffffffffffffff021916908373ffffffffffffffffffffffffffffffffffffffff160217905550808061455b90615f87565b915050614444565b50600d80548061459c577f4e487b7100000000000000000000000000000000000000000000000000000000600052603160045260246000fd5b6001900381819060005260206000200160006101000a81549073ffffffffffffffffffffffffffffffffffffffff0219169055905550565b60008060008060418551146145ef57600093505050506146a1565b6020850151925060408501519150606085015160001a9050601b8160ff16101561462357601b816146209190615c0a565b90505b601b8160ff161415801561463b5750601c8160ff1614155b1561464c57600093505050506146a1565b6001868285856040516000815260200160405260405161466f9493929190615766565b6020604051602081039080840390855afa158015614691573d6000803e3d6000fd5b5050506020604051035193505050505b92915050565b6000614709826040518060400160405280602081526020017f5361666545524332303a206c6f772d6c6576656c2063616c6c206661696c65648152508573ffffffffffffffffffffffffffffffffffffffff1661476e9092919063ffffffff16565b905060008151111561476957808060200190518101906147299190614d11565b614768576040517f08c379a000000000000000000000000000000000000000000000000000000000815260040161475f90615a1d565b60405180910390fd5b5b505050565b606061477d8484600085614786565b90509392505050565b6060824710156147cb576040517f08c379a00000000000000000000000000000000000000000000000000000000081526004016147c29061589d565b60405180910390fd5b6147d48561489a565b614813576040517f08c379a000000000000000000000000000000000000000000000000000000000815260040161480a906159dd565b60405180910390fd5b6000808673ffffffffffffffffffffffffffffffffffffffff16858760405161483c91906153a4565b60006040518083038185875af1925050503d8060008114614879576040519150601f19603f3d011682016040523d82523d6000602084013e61487e565b606091505b509150915061488e8282866148bd565b92505050949350505050565b6000808273ffffffffffffffffffffffffffffffffffffffff163b119050919050565b606083156148cd5782905061491d565b6000835111156148e05782518084602001fd5b816040517f08c379a000000000000000000000000000000000000000000000000000000000815260040161491491906157db565b60405180910390fd5b9392505050565b600061493761493284615ad8565b615ab3565b9050808382526020820190508285602086028201111561495657600080fd5b60005b858110156149a057813567ffffffffffffffff81111561497857600080fd5b8086016149858982614a8f565b85526020850194506020840193505050600181019050614959565b5050509392505050565b60006149bd6149b884615b04565b615ab3565b9050828152602081018484840111156149d557600080fd5b6149e0848285615f14565b509392505050565b60006149fb6149f684615b35565b615ab3565b905082815260208101848484011115614a1357600080fd5b614a1e848285615f14565b509392505050565b600081359050614a358161652b565b92915050565b600082601f830112614a4c57600080fd5b8135614a5c848260208601614924565b91505092915050565b600081519050614a7481616542565b92915050565b600081359050614a8981616559565b92915050565b600082601f830112614aa057600080fd5b8135614ab08482602086016149aa565b91505092915050565b600082601f830112614aca57600080fd5b8135614ada8482602086016149e8565b91505092915050565b600081359050614af281616570565b92915050565b600081519050614b0781616570565b92915050565b600081359050614b1c81616587565b92915050565b600081519050614b318161659e565b92915050565b600060208284031215614b4957600080fd5b6000614b5784828501614a26565b91505092915050565b60008060008060808587031215614b7657600080fd5b6000614b8487828801614a26565b9450506020614b9587828801614ae3565b9350506040614ba687828801614b0d565b925050606085013567ffffffffffffffff811115614bc357600080fd5b614bcf87828801614ab9565b91505092959194509250565b600080600060608486031215614bf057600080fd5b600084013567ffffffffffffffff811115614c0a57600080fd5b614c1686828701614a3b565b9350506020614c2786828701614a26565b9250506040614c3886828701614ae3565b9150509250925092565b60008060008060808587031215614c5857600080fd5b600085013567ffffffffffffffff811115614c7257600080fd5b614c7e87828801614a3b565b9450506020614c8f87828801614a26565b9350506040614ca087828801614ae3565b9250506060614cb187828801614ae3565b91505092959194509250565b60008060408385031215614cd057600080fd5b600083013567ffffffffffffffff811115614cea57600080fd5b614cf685828601614a3b565b9250506020614d0785828601614ae3565b9150509250929050565b600060208284031215614d2357600080fd5b6000614d3184828501614a65565b91505092915050565b600060208284031215614d4c57600080fd5b6000614d5a84828501614a7a565b91505092915050565b600060208284031215614d7557600080fd5b600082013567ffffffffffffffff811115614d8f57600080fd5b614d9b84828501614a8f565b91505092915050565b600080600080600080600080610100898b031215614dc157600080fd5b600089013567ffffffffffffffff811115614ddb57600080fd5b614de78b828c01614a8f565b9850506020614df88b828c01614ae3565b9750506040614e098b828c01614a26565b9650506060614e1a8b828c01614a26565b9550506080614e2b8b828c01614a26565b94505060a0614e3c8b828c01614ae3565b93505060c089013567ffffffffffffffff811115614e5957600080fd5b614e658b828c01614a3b565b92505060e0614e768b828c01614ae3565b9150509295985092959890939650565b60008060408385031215614e9957600080fd5b600083013567ffffffffffffffff811115614eb357600080fd5b614ebf85828601614ab9565b9250506020614ed085828601614b0d565b9150509250929050565b600060208284031215614eec57600080fd5b6000614efa84828501614ae3565b91505092915050565b600060208284031215614f1557600080fd5b6000614f2384828501614af8565b91505092915050565b600060208284031215614f3e57600080fd5b6000614f4c84828501614b22565b91505092915050565b614f5e81615ea5565b82525050565b614f75614f7082615ea5565b615fd0565b82525050565b614f8481615eb7565b82525050565b614f9b614f9682615eb7565b615fe2565b82525050565b614faa81615ec3565b82525050565b614fc1614fbc82615ec3565b615ff4565b82525050565b6000614fd282615b66565b614fdc8185615b7c565b9350614fec818560208601615f23565b614ff5816160cb565b840191505092915050565b600061500b82615b66565b6150158185615b8d565b9350615025818560208601615f23565b80840191505092915050565b600061503c82615b71565b6150468185615b98565b9350615056818560208601615f23565b61505f816160cb565b840191505092915050565b6000615077601c83615ba9565b915061508282616110565b601c82019050919050565b600061509a601083615b98565b91506150a582616139565b602082019050919050565b60006150bd601383615b98565b91506150c882616162565b602082019050919050565b60006150e0601483615b98565b91506150eb8261618b565b602082019050919050565b6000615103601283615b98565b915061510e826161b4565b602082019050919050565b6000615126601483615b98565b9150615131826161dd565b602082019050919050565b6000615149602683615b98565b915061515482616206565b604082019050919050565b600061516c601483615b98565b915061517782616255565b602082019050919050565b600061518f601683615b98565b915061519a8261627e565b602082019050919050565b60006151b2600e83615b98565b91506151bd826162a7565b602082019050919050565b60006151d5601a83615b98565b91506151e0826162d0565b602082019050919050565b60006151f8601283615b98565b9150615203826162f9565b602082019050919050565b600061521b601283615b98565b915061522682616322565b602082019050919050565b600061523e601883615b98565b91506152498261634b565b602082019050919050565b6000615261602e83615b98565b915061526c82616374565b604082019050919050565b6000615284603783615b98565b915061528f826163c3565b604082019050919050565b60006152a7601d83615b98565b91506152b282616412565b602082019050919050565b60006152ca602483615b98565b91506152d58261643b565b604082019050919050565b60006152ed602a83615b98565b91506152f88261648a565b604082019050919050565b6000615310601f83615b98565b915061531b826164d9565b602082019050919050565b6000615333601883615b98565b915061533e82616502565b602082019050919050565b61535281615eed565b82525050565b61536961536482615eed565b616010565b82525050565b61537881615ef7565b82525050565b61538f61538a82615ef7565b61601a565b82525050565b61539e81615f07565b82525050565b60006153b08284615000565b915081905092915050565b60006153c78285615000565b91506153d38284615358565b6020820191508190509392505050565b60006153ee8261506a565b91506153fa8284614fb0565b60208201915081905092915050565b60006154158289615358565b6020820191506154258288614f64565b6014820191506154358287615358565b6020820191506154458286614f64565b6014820191506154558285615358565b602082019150615465828461537e565b600482019150819050979650505050505050565b6000615485828a615358565b6020820191506154958289614f64565b6014820191506154a58288615358565b6020820191506154b58287615358565b6020820191506154c58286614f64565b6014820191506154d58285615358565b6020820191506154e5828461537e565b60048201915081905098975050505050505050565b60006155068288615358565b6020820191506155168287614f64565b6014820191506155268286615358565b6020820191506155368285615358565b602082019150615546828461537e565b6004820191508190509695505050505050565b60006155658289615358565b6020820191506155758288614f8a565b6001820191506155858287615358565b6020820191506155958286614f64565b6014820191506155a58285615358565b6020820191506155b5828461537e565b600482019150819050979650505050505050565b60006155d5828c615358565b6020820191506155e5828b615000565b91506155f1828a615358565b6020820191506156018289614f64565b6014820191506156118288614f64565b6014820191506156218287615358565b6020820191506156318286614f64565b6014820191506156418285615358565b602082019150615651828461537e565b6004820191508190509a9950505050505050505050565b600060208201905061567d6000830184614f55565b92915050565b60006060820190506156986000830186614f55565b6156a56020830185614f55565b6156b26040830184615349565b949350505050565b600060c0820190506156cf6000830189614f55565b6156dc6020830188614f55565b6156e96040830187615349565b81810360608301526156fb8186615031565b905061570a6080830185615349565b61571760a083018461536f565b979650505050505050565b60006040820190506157376000830185614f55565b6157446020830184615349565b9392505050565b60006020820190506157606000830184614f7b565b92915050565b600060808201905061577b6000830187614fa1565b6157886020830186615395565b6157956040830185614fa1565b6157a26060830184614fa1565b95945050505050565b600060408201905081810360008301526157c58185614fc7565b90506157d46020830184615349565b9392505050565b600060208201905081810360008301526157f58184615031565b905092915050565b600060208201905081810360008301526158168161508d565b9050919050565b60006020820190508181036000830152615836816150b0565b9050919050565b60006020820190508181036000830152615856816150d3565b9050919050565b60006020820190508181036000830152615876816150f6565b9050919050565b6000602082019050818103600083015261589681615119565b9050919050565b600060208201905081810360008301526158b68161513c565b9050919050565b600060208201905081810360008301526158d68161515f565b9050919050565b600060208201905081810360008301526158f681615182565b9050919050565b60006020820190508181036000830152615916816151a5565b9050919050565b60006020820190508181036000830152615936816151c8565b9050919050565b60006020820190508181036000830152615956816151eb565b9050919050565b600060208201905081810360008301526159768161520e565b9050919050565b6000602082019050818103600083015261599681615231565b9050919050565b600060208201905081810360008301526159b681615254565b9050919050565b600060208201905081810360008301526159d681615277565b9050919050565b600060208201905081810360008301526159f68161529a565b9050919050565b60006020820190508181036000830152615a16816152bd565b9050919050565b60006020820190508181036000830152615a36816152e0565b9050919050565b60006020820190508181036000830152615a5681615303565b9050919050565b60006020820190508181036000830152615a7681615326565b9050919050565b6000602082019050615a926000830184615349565b92915050565b6000602082019050615aad600083018461536f565b92915050565b6000615abd615ace565b9050615ac98282615f56565b919050565b6000604051905090565b600067ffffffffffffffff821115615af357615af261609c565b5b602082029050602081019050919050565b600067ffffffffffffffff821115615b1f57615b1e61609c565b5b615b28826160cb565b9050602081019050919050565b600067ffffffffffffffff821115615b5057615b4f61609c565b5b615b59826160cb565b9050602081019050919050565b600081519050919050565b600081519050919050565b600082825260208201905092915050565b600081905092915050565b600082825260208201905092915050565b600081905092915050565b6000615bbf82615eed565b9150615bca83615eed565b9250827fffffffffffffffffffffffffffffffffffffffffffffffffffffffffffffffff03821115615bff57615bfe61603e565b5b828201905092915050565b6000615c1582615f07565b9150615c2083615f07565b92508260ff03821115615c3657615c3561603e565b5b828201905092915050565b6000615c4c82615eed565b9150615c5783615eed565b925082615c6757615c6661606d565b5b828204905092915050565b6000808291508390505b6001851115615cbc57808604811115615c9857615c9761603e565b5b6001851615615ca75780820291505b8081029050615cb585616103565b9450615c7c565b94509492505050565b6000615cd082615eed565b9150615cdb83615f07565b9250615d087fffffffffffffffffffffffffffffffffffffffffffffffffffffffffffffffff8484615d10565b905092915050565b600082615d205760019050615ddc565b81615d2e5760009050615ddc565b8160018114615d445760028114615d4e57615d7d565b6001915050615ddc565b60ff841115615d6057615d5f61603e565b5b8360020a915084821115615d7757615d7661603e565b5b50615ddc565b5060208310610133831016604e8410600b8410161715615db25782820a905083811115615dad57615dac61603e565b5b615ddc565b615dbf8484846001615c72565b92509050818404811115615dd657615dd561603e565b5b81810290505b9392505050565b6000615dee82615eed565b9150615df983615eed565b9250817fffffffffffffffffffffffffffffffffffffffffffffffffffffffffffffffff0483118215151615615e3257615e3161603e565b5b828202905092915050565b6000615e4882615eed565b9150615e5383615eed565b925082821015615e6657615e6561603e565b5b828203905092915050565b6000615e7c82615f07565b9150615e8783615f07565b925082821015615e9a57615e9961603e565b5b828203905092915050565b6000615eb082615ecd565b9050919050565b60008115159050919050565b6000819050919050565b600073ffffffffffffffffffffffffffffffffffffffff82169050919050565b6000819050919050565b600063ffffffff82169050919050565b600060ff82169050919050565b82818337600083830152505050565b60005b83811015615f41578082015181840152602081019050615f26565b83811115615f50576000848401525b50505050565b615f5f826160cb565b810181811067ffffffffffffffff82111715615f7e57615f7d61609c565b5b80604052505050565b6000615f9282615eed565b91507fffffffffffffffffffffffffffffffffffffffffffffffffffffffffffffffff821415615fc557615fc461603e565b5b600182019050919050565b6000615fdb82615ffe565b9050919050565b6000615fed8261602c565b9050919050565b6000819050919050565b6000616009826160f6565b9050919050565b6000819050919050565b6000616025826160dc565b9050919050565b6000616037826160e9565b9050919050565b7f4e487b7100000000000000000000000000000000000000000000000000000000600052601160045260246000fd5b7f4e487b7100000000000000000000000000000000000000000000000000000000600052601260045260246000fd5b7f4e487b7100000000000000000000000000000000000000000000000000000000600052604160045260246000fd5b6000601f19601f8301169050919050565b60008160e01b9050919050565b60008160f81b9050919050565b60008160601b9050919050565b60008160011c9050919050565b7f19457468657265756d205369676e6564204d6573736167653a0a333200000000600082015250565b7f4272696467652069732070617573656400000000000000000000000000000000600082015250565b7f696e73756666696369656e7420616d6f756e7400000000000000000000000000600082015250565b7f546f6b656e20616c726561647920657869737473000000000000000000000000600082015250565b7f65787069726564207369676e6174757265730000000000000000000000000000600082015250565b7f546f6b656e20646f6573206e6f74206578697374000000000000000000000000600082015250565b7f416464726573733a20696e73756666696369656e742062616c616e636520666f60008201527f722063616c6c0000000000000000000000000000000000000000000000000000602082015250565b7f427269646765206973206e6f7420706175736564000000000000000000000000600082015250565b7f746f6b656e206973206e6f7420737570706f7274656400000000000000000000600082015250565b7f71756f72756d206e6f74206d6574000000000000000000000000000000000000600082015250565b7f7472616e7366657220616c726561647920636f6d706c65746564000000000000600082015250565b7f696e646578206f7574206f6620626f756e640000000000000000000000000000600082015250565b7f696e76616c6964207369676e6174757265730000000000000000000000000000600082015250565b7f56616c696461746f7220646f6573206e6f742065786973740000000000000000600082015250565b7f6e6f726d616c697a6564416d6f756e7420616d6f756e74206d7573742062652060008201527f67726561746572207468616e2030000000000000000000000000000000000000602082015250565b7f706c65617365207573652077726170416e645472616e7366657245544820746f60008201527f207472616e736665722045544820746f204b6f696e6f73000000000000000000602082015250565b7f416464726573733a2063616c6c20746f206e6f6e2d636f6e7472616374000000600082015250565b7f736166655472616e736665724554483a20455448207472616e7366657220666160008201527f696c656400000000000000000000000000000000000000000000000000000000602082015250565b7f5361666545524332303a204552433230206f7065726174696f6e20646964206e60008201527f6f74207375636365656400000000000000000000000000000000000000000000602082015250565b7f5265656e7472616e637947756172643a207265656e7472616e742063616c6c00600082015250565b7f56616c696461746f7220616c7265616479206578697374730000000000000000600082015250565b61653481615ea5565b811461653f57600080fd5b50565b61654b81615eb7565b811461655657600080fd5b50565b61656281615ec3565b811461656d57600080fd5b50565b61657981615eed565b811461658457600080fd5b50565b61659081615ef7565b811461659b57600080fd5b50565b6165a781615f07565b81146165b257600080fd5b5056fea2646970667358221220f42c30cb95e9c79fa78aedacfb9f35e30be205ec75ede2aa595402332a780bff64736f6c63430008040033",
  "linkReferences": {},
  "deployedLinkReferences": {}
}